[
  {
    "type": "STATICCALL",
    "from": "0x74fe4729c31002c817a2c57cbe67fa37e62cf2f0",
    "to": "0x5eb0a4366d4ae285e96af8ea22a853f1ef91f1eb",
    "gas": 774645,
    "gasUsed": 56240,
    "input": "0x0496ce2a7d97161202010100000000000000000000000000000000000000000000000004e4198d0cde725ee488d800af27c0ad6adfe6849d916a26ca8eee1de0b74a0a14000000000000000000000000000000000000000000000000000000000000008000000000000000000000000000000000000000000000000000000000000001800000000000000000000000008fffffd4afb6115b954bd326cbe7b4ba576818f6c5d2460186f7233c927e7db2dcc703c0e500b653ca82273b7bfad8045d85a470000000000000000000000000000000000000000000000000000000000000000018352300020101000000000000006572405f00656859bb00000006fc23ac000c000000000000000000000000000000000000000000000000010001000000001100000000000000000000000000000000000000000000000000000000000000c00000000000000000000000000000000000000000000000000000000000000004feaf968c000000000000000000000000000000000000000000000000000000000000000000000000000000000000000000000000000000000000000000000002000000000000000000000000991e5e72d9acc110b1d8d2aa06c26931ee8cf33000000000000000000000000014f0a3d41af8a5a0f65a68b159d343dd4ff2d661",
    "output": "0x0000000000000000000000000000000000000000000000000000000000000001000000000000000000000000000000000000000000000000000000000000004000000000000000000000000000000000000000000000000000000000000000a000000000000000000000000000000000000000000000000200000000000005c50000000000000000000000000000000000000000000000000000000005f5cdfc0000000000000000000000000000000000000000000000000000000065684123000000000000000000000000000000000000000000000000000000006568412300000000000000000000000000000000000000000000000200000000000005c5",
    "subtraces": 1,
    "traceAddress": [0, 0, 2]
  },
  {
    "type": "STATICCALL",
    "from": "0x5eb0a4366d4ae285e96af8ea22a853f1ef91f1eb",
    "to": "0x8fffffd4afb6115b954bd326cbe7b4ba576818f6",
    "gas": 689003,
    "gasUsed": 15643,
    "input": "0xfeaf968c",
    "output": "0x00000000000000000000000000000000000000000000000200000000000005c50000000000000000000000000000000000000000000000000000000005f5cdfc0000000000000000000000000000000000000000000000000000000065684123000000000000000000000000000000000000000000000000000000006568412300000000000000000000000000000000000000000000000200000000000005c5",
    "decodedOutput": [
      {
        "value": "36893488147419104709",
        "type": "uint80",
        "name": "roundId"
      },
      {
        "value": "99995132",
        "type": "int256",
        "name": "answer"
      },
      {
        "value": "1701331235",
        "type": "uint256",
        "name": "startedAt"
      },
      {
        "value": "1701331235",
        "type": "uint256",
        "name": "updatedAt"
      },
      {
        "value": "36893488147419104709",
        "type": "uint80",
        "name": "answeredInRound"
      }
    ],
    "subtraces": 1,
    "traceAddress": [0, 0, 2, 0, 0, 2, 2]
  },
  {
    "type": "STATICCALL",
    "from": "0x74fe4729c31002c817a2c57cbe67fa37e62cf2f0",
    "to": "0x5eb0a4366d4ae285e96af8ea22a853f1ef91f1eb",
    "gas": 96318,
    "gasUsed": 11534,
    "input": "0x0496ce2a7d97161202010100000000000000000000000000000000000000000000000004e4198d0cde725ee488d800af27c0ad6adfe6849d916a26ca8eee1de0b74a0a1400000000000000000000000000000000000000000000000000000000000000800000000000000000000000000000000000000000000000000000000000000220000000000000000000000000421ac2a90550942abb532e06d1d4d5220c095777c5d2460186f7233c927e7db2dcc703c0e500b653ca82273b7bfad8045d85a470000000000000000000000000000000000000000000000000000000000000000018352300020101000000000000006572405f00656859bb00000006fc23ac000c0000000000000000000000000000000000000000000000000200020001783e1100000000000000000000000000000000000000000000000000000000000000c000000000000000000000000000000000000000000000000000000000000000a4c96e9e3e0000000000000000000000000000000000000000000000000000000005f5cdfc000000000000000000000000000000000000000000000000000000000000000800000000000000000000000000000000000000000000000010a741a46278000000000000000000000000000000000000000000000000000000000000000000120000000000000000000000000000000000000000000000000000000000000008000000000000000000000000000000000000000000000000000000000000000000000000000000000000000000000000000000000000000000000002000000000000000000000000991e5e72d9acc110b1d8d2aa06c26931ee8cf33000000000000000000000000014f0a3d41af8a5a0f65a68b159d343dd4ff2d661",
    "output": "0x0000000000000000000000000000000000000000000000000000000000000001000000000000000000000000000000000000000000000000000000000000004000000000000000000000000000000000000000000000000000000000000000200000000000000000000000000000000000000000000000000000000001314004",
    "subtraces": 1,
    "traceAddress": [0, 0, 3]
  },
  {
    "type": "STATICCALL",
    "from": "0x5eb0a4366d4ae285e96af8ea22a853f1ef91f1eb",
    "to": "0x421ac2a90550942abb532e06d1d4d5220c095777",
    "gas": 81991,
    "gasUsed": 2169,
    "input": "0xc96e9e3e0000000000000000000000000000000000000000000000000000000005f5cdfc000000000000000000000000000000000000000000000000000000000000000800000000000000000000000000000000000000000000000010a741a46278000000000000000000000000000000000000000000000000000000000000000000120000000000000000000000000000000000000000000000000000000000000008",
    "output": "0x0000000000000000000000000000000000000000000000000000000001314004",
    "subtraces": 0,
    "traceAddress": [0, 0, 3, 0, 0, 2, 2]
  },
  {
    "type": "STATICCALL",
    "from": "0x74fe4729c31002c817a2c57cbe67fa37e62cf2f0",
    "to": "0x5eb0a4366d4ae285e96af8ea22a853f1ef91f1eb",
    "gas": 75448,
    "gasUsed": 19093,
    "input": "0x0496ce2a7d97161202010100000000000000000000000000000000000000000000000004e4198d0cde725ee488d800af27c0ad6adfe6849d916a26ca8eee1de0b74a0a14000000000000000000000000000000000000000000000000000000000000008000000000000000000000000000000000000000000000000000000000000001a0000000000000000000000000a0b86991c6218b36c1d19d4a2e9eb0ce3606eb48c5d2460186f7233c927e7db2dcc703c0e500b653ca82273b7bfad8045d85a470000000000000000000000000000000000000000000000000000000000000000018352300020101000000000000006572405f00656859bb00000006fc23ac000c000000000000000000000000000000000000000000000000030003000126b81100000000000000000000000000000000000000000000000000000000000000c0000000000000000000000000000000000000000000000000000000000000002470a0823100000000000000000000000014f0a3d41af8a5a0f65a68b159d343dd4ff2d661000000000000000000000000000000000000000000000000000000000000000000000000000000000000000000000000000000000000000000000002000000000000000000000000991e5e72d9acc110b1d8d2aa06c26931ee8cf33000000000000000000000000014f0a3d41af8a5a0f65a68b159d343dd4ff2d661",
    "output": "0x00000000000000000000000000000000000000000000000000000000000000010000000000000000000000000000000000000000000000000000000000000040000000000000000000000000000000000000000000000000000000000000002000000000000000000000000000000000000000000000000000000000004c4b40",
    "subtraces": 1,
    "traceAddress": [0, 0, 4]
  },
  {
    "type": "STATICCALL",
    "from": "0x5eb0a4366d4ae285e96af8ea22a853f1ef91f1eb",
    "to": "0xa0b86991c6218b36c1d19d4a2e9eb0ce3606eb48",
    "gas": 62488,
    "gasUsed": 9815,
    "input": "0x70a0823100000000000000000000000014f0a3d41af8a5a0f65a68b159d343dd4ff2d661",
    "decodedInput": [
      {
        "value": "0x14f0a3d41af8a5a0f65a68b159d343dd4ff2d661",
        "type": "address",
        "name": ""
      }
    ],
    "output": "0x00000000000000000000000000000000000000000000000000000000004c4b40",
    "decodedOutput": [
      {
        "value": "5000000",
        "type": "uint256",
        "name": ""
      }
    ],
    "subtraces": 1,
    "traceAddress": [0, 0, 4, 0, 0, 2, 2]
  },
  {
    "type": "CALL",
    "from": "0x74fe4729c31002c817a2c57cbe67fa37e62cf2f0",
    "to": "0x5eb0a4366d4ae285e96af8ea22a853f1ef91f1eb",
    "gas": 107870,
    "gasUsed": 33691,
    "value": "0x0",
    "input": "0x0496ce2a7d97161202010100000000000000000000000000000000000000000000000004e4198d0cde725ee488d800af27c0ad6adfe6849d916a26ca8eee1de0b74a0a14000000000000000000000000000000000000000000000000000000000000008000000000000000000000000000000000000000000000000000000000000001e0000000000000000000000000a0b86991c6218b36c1d19d4a2e9eb0ce3606eb48c5d2460186f7233c927e7db2dcc703c0e500b653ca82273b7bfad8045d85a470000000000000000000000000000000000000000000000000000000000000000018352300020101000000000000006572405f00656859bb00000006fc23ac000c0000000000000000000000000000000000000000000000000400040001a55e0400000000000000000000000000000000000000000000000000000000000000c0000000000000000000000000000000000000000000000000000000000000006423b872dd00000000000000000000000014f0a3d41af8a5a0f65a68b159d343dd4ff2d6610000000000000000000000005eb0a4366d4ae285e96af8ea22a853f1ef91f1eb00000000000000000000000000000000000000000000000000000000004c4b40000000000000000000000000000000000000000000000000000000000000000000000000000000000000000000000000000000000000000000000002000000000000000000000000991e5e72d9acc110b1d8d2aa06c26931ee8cf33000000000000000000000000014f0a3d41af8a5a0f65a68b159d343dd4ff2d661",
    "output": "0x0000000000000000000000000000000000000000000000000000000000000001000000000000000000000000000000000000000000000000000000000000004000000000000000000000000000000000000000000000000000000000000000200000000000000000000000000000000000000000000000000000000000000001",
    "subtraces": 1,
    "traceAddress": [0, 0, 5]
  },
  {
    "type": "CALL",
    "from": "0x5eb0a4366d4ae285e96af8ea22a853f1ef91f1eb",
    "to": "0xa0b86991c6218b36c1d19d4a2e9eb0ce3606eb48",
    "gas": 92907,
    "gasUsed": 24392,
    "value": "0x0",
    "input": "0x23b872dd00000000000000000000000014f0a3d41af8a5a0f65a68b159d343dd4ff2d6610000000000000000000000005eb0a4366d4ae285e96af8ea22a853f1ef91f1eb00000000000000000000000000000000000000000000000000000000004c4b40",
    "decodedInput": [
      {
        "value": "0x14f0a3d41af8a5a0f65a68b159d343dd4ff2d661",
        "type": "address",
        "name": "from"
      },
      {
        "value": "0x5eb0a4366d4ae285e96af8ea22a853f1ef91f1eb",
        "type": "address",
        "name": "to"
      },
      {
        "value": "5000000",
        "type": "uint256",
        "name": "value"
      }
    ],
    "output": "0x0000000000000000000000000000000000000000000000000000000000000001",
    "decodedOutput": [
      {
        "value": true,
        "type": "bool",
        "name": ""
      }
    ],
    "subtraces": 1,
    "traceAddress": [0, 0, 5, 0, 0, 2, 2]
  },
  {
    "type": "CALL",
    "from": "0x74fe4729c31002c817a2c57cbe67fa37e62cf2f0",
    "to": "0x5eb0a4366d4ae285e96af8ea22a853f1ef91f1eb",
    "gas": 148596,
    "gasUsed": 20045,
    "value": "0x0",
    "input": "0x0496ce2a7d97161202010100000000000000000000000000000000000000000000000004e4198d0cde725ee488d800af27c0ad6adfe6849d916a26ca8eee1de0b74a0a14000000000000000000000000000000000000000000000000000000000000008000000000000000000000000000000000000000000000000000000000000001c0000000000000000000000000a0b86991c6218b36c1d19d4a2e9eb0ce3606eb48c5d2460186f7233c927e7db2dcc703c0e500b653ca82273b7bfad8045d85a470000000000000000000000000000000000000000000000000000000000000000018352300020101000000000000006572405f00656859bb00000006fc23ac000c000000000000000000000000000000000000000000000000050005000244740400000000000000000000000000000000000000000000000000000000000000c00000000000000000000000000000000000000000000000000000000000000044095ea7b30000000000000000000000007a250d5630b4cf539739df2c5dacb4c659f2488d00000000000000000000000000000000000000000000065a4da25d3016c00000000000000000000000000000000000000000000000000000000000000000000000000000000000000000000000000000000000000000000000000002000000000000000000000000991e5e72d9acc110b1d8d2aa06c26931ee8cf33000000000000000000000000014f0a3d41af8a5a0f65a68b159d343dd4ff2d661",
    "output": "0x0000000000000000000000000000000000000000000000000000000000000001000000000000000000000000000000000000000000000000000000000000004000000000000000000000000000000000000000000000000000000000000000200000000000000000000000000000000000000000000000000000000000000001",
    "subtraces": 1,
    "traceAddress": [0, 0, 6]
  },
  {
    "type": "CALL",
    "from": "0x5eb0a4366d4ae285e96af8ea22a853f1ef91f1eb",
    "to": "0xa0b86991c6218b36c1d19d4a2e9eb0ce3606eb48",
    "gas": 131169,
    "gasUsed": 10767,
    "value": "0x0",
    "input": "0x095ea7b30000000000000000000000007a250d5630b4cf539739df2c5dacb4c659f2488d00000000000000000000000000000000000000000000065a4da25d3016c00000",
    "decodedInput": [
      {
        "value": "0x7a250d5630b4cf539739df2c5dacb4c659f2488d",
        "type": "address",
        "name": "spender"
      },
      {
        "value": "30000000000000000000000",
        "type": "uint256",
        "name": "value"
      }
    ],
    "output": "0x0000000000000000000000000000000000000000000000000000000000000001",
    "decodedOutput": [
      {
        "value": true,
        "type": "bool",
        "name": ""
      }
    ],
    "subtraces": 1,
    "traceAddress": [0, 0, 6, 0, 0, 2, 2]
  },
  {
    "type": "CALL",
    "from": "0x74fe4729c31002c817a2c57cbe67fa37e62cf2f0",
    "to": "0x5eb0a4366d4ae285e96af8ea22a853f1ef91f1eb",
    "gas": 550763,
    "gasUsed": 127714,
    "value": "0x0",
    "input": "0x0496ce2a7d97161202010100000000000000000000000000000000000000000000000004e4198d0cde725ee488d800af27c0ad6adfe6849d916a26ca8eee1de0b74a0a14000000000000000000000000000000000000000000000000000000000000008000000000000000000000000000000000000000000000000000000000000002400000000000000000000000007501ac7b420ef83e856dcd432aa5b81f5e65b2927ca009b601db9e76f36541b80a69739c7ec25e0965b26d7682509a2fcb7dcccb000000000000000000000000000000000000000000000000000000000000000018352300020101000000000000006572405f00656859bb00000006fc23ac000c000000000000000000000000000000000000000000000000060006000000002200000000000000000000000000000000000000000000000000000000000000c000000000000000000000000000000000000000000000000000000000000000c4ba61961000000000000000000000000000000000000000000000000000000000004c4b4087553fac71f49f68d60c206941e24a4072378db84d66aacd8c8b551375320e0400000000000000000000000000000000000000000000000000000000000000600000000000000000000000000000000000000000000000000000000000000002000000000000000000000000a0b86991c6218b36c1d19d4a2e9eb0ce3606eb48000000000000000000000000dac17f958d2ee523a2206206994597c13d831ec7000000000000000000000000000000000000000000000000000000000000000000000000000000000000000000000000000000000000000000000002000000000000000000000000991e5e72d9acc110b1d8d2aa06c26931ee8cf33000000000000000000000000014f0a3d41af8a5a0f65a68b159d343dd4ff2d661",
    "output": "0x0000000000000000000000000000000000000000000000000000000000000001000000000000000000000000000000000000000000000000000000000000004000000000000000000000000000000000000000000000000000000000000000a000000000000000000000000000000000000000000000000000000000004c4b4000000000000000000000000000000000000000000000000000000000004bf775000000000000000000000000a0b86991c6218b36c1d19d4a2e9eb0ce3606eb48000000000000000000000000dac17f958d2ee523a2206206994597c13d831ec78572bdba86a20264869c9ba9a80466276690132a91547b719314a1ebea354863",
    "subtraces": 1,
    "traceAddress": [0, 0, 7]
  },
  {
    "type": "DELEGATECALL",
    "from": "0x5eb0a4366d4ae285e96af8ea22a853f1ef91f1eb",
    "to": "0x7501ac7b420ef83e856dcd432aa5b81f5e65b292",
    "gas": 500504,
    "gasUsed": 109707,
    "input": "0xba61961000000000000000000000000000000000000000000000000000000000004c4b4087553fac71f49f68d60c206941e24a4072378db84d66aacd8c8b551375320e0400000000000000000000000000000000000000000000000000000000000000600000000000000000000000000000000000000000000000000000000000000002000000000000000000000000a0b86991c6218b36c1d19d4a2e9eb0ce3606eb48000000000000000000000000dac17f958d2ee523a2206206994597c13d831ec7",
    "output": "0x00000000000000000000000000000000000000000000000000000000004c4b4000000000000000000000000000000000000000000000000000000000004bf775000000000000000000000000a0b86991c6218b36c1d19d4a2e9eb0ce3606eb48000000000000000000000000dac17f958d2ee523a2206206994597c13d831ec78572bdba86a20264869c9ba9a80466276690132a91547b719314a1ebea354863",
    "subtraces": 1,
    "traceAddress": [0, 0, 7, 0, 0, 2, 2]
  },
  {
    "type": "STATICCALL",
    "from": "0x74fe4729c31002c817a2c57cbe67fa37e62cf2f0",
    "to": "0x5eb0a4366d4ae285e96af8ea22a853f1ef91f1eb",
    "gas": 96358,
    "gasUsed": 10612,
    "input": "0x0496ce2a7d97161202010100000000000000000000000000000000000000000000000004e4198d0cde725ee488d800af27c0ad6adfe6849d916a26ca8eee1de0b74a0a14000000000000000000000000000000000000000000000000000000000000008000000000000000000000000000000000000000000000000000000000000002200000000000000000000000009b2343df3d4b30b0fed3c2105c094a76288defcbc5d2460186f7233c927e7db2dcc703c0e500b653ca82273b7bfad8045d85a470000000000000000000000000000000000000000000000000000000000000000018352300020101000000000000006572405f00656859bb00000006fc23ac000c000000000000000000000000000000000000000000000000070007000178661100000000000000000000000000000000000000000000000000000000000000c000000000000000000000000000000000000000000000000000000000000000a43e5cfb710000000000000000000000000000000000000000000000056bc75e2d63100000000000000000000000000000000000000000000000000000000000000000001200000000000000000000000000000000000000000000000053444835ec58000000000000000000000000000000000000000000000000000000000000000000120000000000000000000000000000000000000000000000000000000000000012000000000000000000000000000000000000000000000000000000000000000000000000000000000000000000000000000000000000000000000002000000000000000000000000991e5e72d9acc110b1d8d2aa06c26931ee8cf33000000000000000000000000014f0a3d41af8a5a0f65a68b159d343dd4ff2d661",
    "output": "0x000000000000000000000000000000000000000000000000000000000000000100000000000000000000000000000000000000000000000000000000000000400000000000000000000000000000000000000000000000000000000000000020000000000000000000000000000000000000000000000005188315f776b80000",
    "subtraces": 1,
    "traceAddress": [0, 0, 8]
  },
  {
    "type": "STATICCALL",
    "from": "0x5eb0a4366d4ae285e96af8ea22a853f1ef91f1eb",
    "to": "0x9b2343df3d4b30b0fed3c2105c094a76288defcb",
    "gas": 82028,
    "gasUsed": 1247,
    "input": "0x3e5cfb710000000000000000000000000000000000000000000000056bc75e2d63100000000000000000000000000000000000000000000000000000000000000000001200000000000000000000000000000000000000000000000053444835ec58000000000000000000000000000000000000000000000000000000000000000000120000000000000000000000000000000000000000000000000000000000000012",
    "output": "0x000000000000000000000000000000000000000000000005188315f776b80000",
    "subtraces": 0,
    "traceAddress": [0, 0, 8, 0, 0, 2, 2]
  },
  {
    "type": "STATICCALL",
    "from": "0x74fe4729c31002c817a2c57cbe67fa37e62cf2f0",
    "to": "0x5eb0a4366d4ae285e96af8ea22a853f1ef91f1eb",
    "gas": 99628,
    "gasUsed": 12410,
    "input": "0x0496ce2a7d97161202010100000000000000000000000000000000000000000000000004e4198d0cde725ee488d800af27c0ad6adfe6849d916a26ca8eee1de0b74a0a14000000000000000000000000000000000000000000000000000000000000008000000000000000000000000000000000000000000000000000000000000002600000000000000000000000009b2343df3d4b30b0fed3c2105c094a76288defcbc5d2460186f7233c927e7db2dcc703c0e500b653ca82273b7bfad8045d85a470000000000000000000000000000000000000000000000000000000000000000018352300020101000000000000006572405f00656859bb00000006fc23ac000c0000000000000000000000000000000000000000000000000800080001852c1100000000000000000000000000000000000000000000000000000000000000c000000000000000000000000000000000000000000000000000000000000000e44b2a6b8500000000000000000000000000000000000000000000000000000000004c4b400000000000000000000000000000000000000000000000000000000000000006000000000000000000000000000000000000000000000005188315f776b8000000000000000000000000000000000000000000000000000000000000000000120000000000000000000000000000000000000000000000056bc75e2d6310000000000000000000000000000000000000000000000000000000000000000000120000000000000000000000000000000000000000000000000000000000000012000000000000000000000000000000000000000000000000000000000000000000000000000000000000000000000000000000000000000000000002000000000000000000000000991e5e72d9acc110b1d8d2aa06c26931ee8cf33000000000000000000000000014f0a3d41af8a5a0f65a68b159d343dd4ff2d661",
    "output": "0x0000000000000000000000000000000000000000000000000000000000000001000000000000000000000000000000000000000000000000000000000000004000000000000000000000000000000000000000000000000000000000000000200000000000000000000000000000000000000000000000004139c1192c560000",
    "subtraces": 1,
    "traceAddress": [0, 0, 9]
  },
  {
    "type": "STATICCALL",
    "from": "0x5eb0a4366d4ae285e96af8ea22a853f1ef91f1eb",
    "to": "0x9b2343df3d4b30b0fed3c2105c094a76288defcb",
    "gas": 85050,
    "gasUsed": 2994,
    "input": "0x4b2a6b8500000000000000000000000000000000000000000000000000000000004c4b400000000000000000000000000000000000000000000000000000000000000006000000000000000000000000000000000000000000000005188315f776b8000000000000000000000000000000000000000000000000000000000000000000120000000000000000000000000000000000000000000000056bc75e2d6310000000000000000000000000000000000000000000000000000000000000000000120000000000000000000000000000000000000000000000000000000000000012",
    "output": "0x0000000000000000000000000000000000000000000000004139c1192c560000",
    "subtraces": 0,
    "traceAddress": [0, 0, 9, 0, 0, 2, 2]
  },
  {
    "type": "STATICCALL",
    "from": "0x74fe4729c31002c817a2c57cbe67fa37e62cf2f0",
    "to": "0x5eb0a4366d4ae285e96af8ea22a853f1ef91f1eb",
    "gas": 343197,
    "gasUsed": 22192,
    "input": "0x0496ce2a7d97161202010100000000000000000000000000000000000000000000000004e4198d0cde725ee488d800af27c0ad6adfe6849d916a26ca8eee1de0b74a0a14000000000000000000000000000000000000000000000000000000000000008000000000000000000000000000000000000000000000000000000000000002400000000000000000000000007501ac7b420ef83e856dcd432aa5b81f5e65b292c5d2460186f7233c927e7db2dcc703c0e500b653ca82273b7bfad8045d85a470000000000000000000000000000000000000000000000000000000000000000018352300020101000000000000006572405f00656859bb00000006fc23ac000c000000000000000000000000000000000000000000000000090009000000001100000000000000000000000000000000000000000000000000000000000000c000000000000000000000000000000000000000000000000000000000000000c4deb0b49600000000000000000000000000000000000000000000000000000000004bf77587553fac71f49f68d60c206941e24a4072378db84d66aacd8c8b551375320e0400000000000000000000000000000000000000000000000000000000000000600000000000000000000000000000000000000000000000000000000000000002000000000000000000000000dac17f958d2ee523a2206206994597c13d831ec70000000000000000000000006b175474e89094c44da98b954eedeac495271d0f000000000000000000000000000000000000000000000000000000000000000000000000000000000000000000000000000000000000000000000002000000000000000000000000991e5e72d9acc110b1d8d2aa06c26931ee8cf33000000000000000000000000014f0a3d41af8a5a0f65a68b159d343dd4ff2d661",
    "output": "0x0000000000000000000000000000000000000000000000000000000000000001000000000000000000000000000000000000000000000000000000000000004000000000000000000000000000000000000000000000000000000000000000a000000000000000000000000000000000000000000000000000000000004bf77500000000000000000000000000000000000000000000000044a9e55fd6828197000000000000000000000000dac17f958d2ee523a2206206994597c13d831ec70000000000000000000000006b175474e89094c44da98b954eedeac495271d0f6ea10d35598f4c8e0b7db09d056b8b63b38f5ecedd5cd57b327a79cad70a2e51",
    "subtraces": 1,
    "traceAddress": [0, 0, 10]
  },
  {
    "type": "STATICCALL",
    "from": "0x5eb0a4366d4ae285e96af8ea22a853f1ef91f1eb",
    "to": "0x7501ac7b420ef83e856dcd432aa5b81f5e65b292",
    "gas": 313774,
    "gasUsed": 12469,
    "input": "0xdeb0b49600000000000000000000000000000000000000000000000000000000004bf77587553fac71f49f68d60c206941e24a4072378db84d66aacd8c8b551375320e0400000000000000000000000000000000000000000000000000000000000000600000000000000000000000000000000000000000000000000000000000000002000000000000000000000000dac17f958d2ee523a2206206994597c13d831ec70000000000000000000000006b175474e89094c44da98b954eedeac495271d0f",
    "output": "0x00000000000000000000000000000000000000000000000000000000004bf77500000000000000000000000000000000000000000000000044a9e55fd6828197000000000000000000000000dac17f958d2ee523a2206206994597c13d831ec70000000000000000000000006b175474e89094c44da98b954eedeac495271d0f6ea10d35598f4c8e0b7db09d056b8b63b38f5ecedd5cd57b327a79cad70a2e51",
    "subtraces": 1,
    "traceAddress": [0, 0, 10, 0, 0, 2, 2]
  },
  {
    "type": "STATICCALL",
    "from": "0x74fe4729c31002c817a2c57cbe67fa37e62cf2f0",
    "to": "0x5eb0a4366d4ae285e96af8ea22a853f1ef91f1eb",
    "gas": 96236,
    "gasUsed": 10611,
    "input": "0x0496ce2a7d97161202010100000000000000000000000000000000000000000000000004e4198d0cde725ee488d800af27c0ad6adfe6849d916a26ca8eee1de0b74a0a1400000000000000000000000000000000000000000000000000000000000000800000000000000000000000000000000000000000000000000000000000000220000000000000000000000000421ac2a90550942abb532e06d1d4d5220c095777c5d2460186f7233c927e7db2dcc703c0e500b653ca82273b7bfad8045d85a470000000000000000000000000000000000000000000000000000000000000000018352300020101000000000000006572405f00656859bb00000006fc23ac000c0000000000000000000000000000000000000000000000000a000a000177ec1100000000000000000000000000000000000000000000000000000000000000c000000000000000000000000000000000000000000000000000000000000000a4d4528dbd00000000000000000000000000000000000000000000000044a9e55fd682819700000000000000000000000000000000000000000000000000000000000000120000000000000000000000000000000000000000000000004139c1192c56000000000000000000000000000000000000000000000000000000000000000000120000000000000000000000000000000000000000000000000000000000000012000000000000000000000000000000000000000000000000000000000000000000000000000000000000000000000000000000000000000000000002000000000000000000000000991e5e72d9acc110b1d8d2aa06c26931ee8cf33000000000000000000000000014f0a3d41af8a5a0f65a68b159d343dd4ff2d661",
    "output": "0x00000000000000000000000000000000000000000000000000000000000000010000000000000000000000000000000000000000000000000000000000000040000000000000000000000000000000000000000000000000000000000000002000000000000000000000000000000000000000000000000003702446aa2c8197",
    "subtraces": 1,
    "traceAddress": [0, 0, 11]
  },
  {
    "type": "STATICCALL",
    "from": "0x5eb0a4366d4ae285e96af8ea22a853f1ef91f1eb",
    "to": "0x421ac2a90550942abb532e06d1d4d5220c095777",
    "gas": 81914,
    "gasUsed": 1246,
    "input": "0xd4528dbd00000000000000000000000000000000000000000000000044a9e55fd682819700000000000000000000000000000000000000000000000000000000000000120000000000000000000000000000000000000000000000004139c1192c56000000000000000000000000000000000000000000000000000000000000000000120000000000000000000000000000000000000000000000000000000000000012",
    "output": "0x00000000000000000000000000000000000000000000000003702446aa2c8197",
    "subtraces": 0,
    "traceAddress": [0, 0, 11, 0, 0, 2, 2]
  },
  {
    "type": "CALL",
    "from": "0x74fe4729c31002c817a2c57cbe67fa37e62cf2f0",
    "to": "0x5eb0a4366d4ae285e96af8ea22a853f1ef91f1eb",
    "gas": 92452,
    "gasUsed": 20827,
    "value": "0x0",
    "input": "0x0496ce2a7d97161202010100000000000000000000000000000000000000000000000004e4198d0cde725ee488d800af27c0ad6adfe6849d916a26ca8eee1de0b74a0a14000000000000000000000000000000000000000000000000000000000000008000000000000000000000000000000000000000000000000000000000000001c0000000000000000000000000dac17f958d2ee523a2206206994597c13d831ec7c5d2460186f7233c927e7db2dcc703c0e500b653ca82273b7bfad8045d85a470000000000000000000000000000000000000000000000000000000000000000018352300020101000000000000006572405f00656859bb00000006fc23ac000c0000000000000000000000000000000000000600000000000b000b000169240400000000000000000000000000000000000000000000000000000000000000c00000000000000000000000000000000000000000000000000000000000000044a9059cbb00000000000000000000000014f0a3d41af8a5a0f65a68b159d343dd4ff2d66100000000000000000000000000000000000000000000000000000000004bf775000000000000000000000000000000000000000000000000000000000000000000000000000000000000000000000000000000000000000000000002000000000000000000000000991e5e72d9acc110b1d8d2aa06c26931ee8cf33000000000000000000000000014f0a3d41af8a5a0f65a68b159d343dd4ff2d661",
    "output": "0x000000000000000000000000000000000000000000000000000000000000000100000000000000000000000000000000000000000000000000000000000000400000000000000000000000000000000000000000000000000000000000000000",
    "subtraces": 1,
    "traceAddress": [0, 0, 12]
  },
  {
    "type": "CALL",
    "from": "0x5eb0a4366d4ae285e96af8ea22a853f1ef91f1eb",
    "to": "0xdac17f958d2ee523a2206206994597c13d831ec7",
    "gas": 78453,
    "gasUsed": 11701,
    "value": "0x0",
    "input": "0xa9059cbb00000000000000000000000014f0a3d41af8a5a0f65a68b159d343dd4ff2d66100000000000000000000000000000000000000000000000000000000004bf775",
    "decodedInput": [
      {
        "value": "0x14f0a3d41af8a5a0f65a68b159d343dd4ff2d661",
        "type": "address",
        "name": "_to"
      },
      {
        "value": "4978549",
        "type": "uint256",
        "name": "_value"
      }
    ],
    "method": "transfer",
    "output": "0x",
    "subtraces": 0,
    "traceAddress": [0, 0, 12, 0, 0, 2, 2]
  }
]
