{
  "status": true,
  "gasUsed": "0x4fd1b",
  "cumulativeGasUsed": "0x0",
  "blockNumber": "0x9a70a1",
  "type": "0x0",
  "logsBloom": "0x000020000000000440200000000000040010000000040000000100000000000000000010000000000000480800000000000000000000000c000000000000000000000010000000000000c018000000000000000000000000000000000000000000200000020000000010000000000880000000000000000240000010000000000000000000000040000002000000000000000000000000000000000000000001000000000000004000000802020001020004000000000200000000000000000000001002208000000000000000000000000000000000000100000000000020000000000000010010400000000000000000000000000000000004000000000000",
  "logs": [
    {
      "name": "",
      "anonymous": false,
      "inputs": null,
      "raw": {
        "address": "0x38b5249ec6529f19aee7ce2c650cadd407a78ed7",
        "topics": [
          "0x88c6460cd7091ad3c8bd1623f14728cacc7a57cb16ee4b7887126b1db3435a0c",
          "0x7d971612020101000000000000000000000000000000000000000000000000a9",
          "0x8be4e19fe137cf9aa1187d2128a72c122a736c85340f2d826d86ca379bbe50ba"
        ],
        "data": "0x000000000000000000000000000000000000000000000000000000000000000900000000000000000000000000000000000000000000000000000000656f9d5f000000000000000000000000000000000000000000000000000000006565ca4c000000000000000000000000000000000000000000000000000000006565ca4c000000000000000000000000000000000000000000000000000000006565ca4c000000000000000000000000000000000000000000000000000000000000000100000000000000000000000000000000000000000000000000000000000000017d971612020101000000000000000000000000000000000000000000000000000000000000000000000000000000000000000000000000000000000000000000000000000000000000000000000000000000000000000000000000000000000000000000000000000000000000000000000000000000000000000000000000000000000000000000000000000000000000000000000000000000000000000000000000000000000000000000000000000000000000000000000000006565ca4c"
      }
    },
    {
      "name": "",
      "anonymous": false,
      "inputs": null,
      "raw": {
        "address": "0x9f8cc08fc5293d76a0d8b3b0924742fc36a1301c",
        "topics": [
          "0x4270bc8453a68d7cab756e480b343ddc1330eed51f2b0de785f5957efc1e4b2f",
          "0x7d971612020101000000000000000000000000000000000000000000000000a9",
          "0x000000000000000000000000d8246f9c6cc0f006de446ab90a787942ceaead74"
        ],
        "data": "0x0000000000000000000000000000000000000000000000000000000000000001"
      }
    },
    {
      "name": "Transfer",
      "anonymous": false,
      "inputs": [
        {
          "value": "0xd8246f9c6cc0f006de446ab90a787942ceaead74",
          "type": "address",
          "name": "from"
        },
        {
          "value": "0x37f8cf234e6f629a681def0692d25c6857d8ecbf",
          "type": "address",
          "name": "to"
        },
        {
          "value": "6000000000000000000",
          "type": "uint256",
          "name": "value"
        }
      ],
      "raw": {
        "address": "0xdc31ee1784292379fbb2964b3b9c4124d8f89c60",
        "topics": [
          "0xddf252ad1be2c89b69c2b068fc378daa952ba7f163c4a11628f55a4df523b3ef",
          "0x000000000000000000000000d8246f9c6cc0f006de446ab90a787942ceaead74",
          "0x00000000000000000000000037f8cf234e6f629a681def0692d25c6857d8ecbf"
        ],
        "data": "0x00000000000000000000000000000000000000000000000053444835ec580000"
      }
    },
    {
      "name": "",
      "anonymous": false,
      "inputs": null,
      "raw": {
        "address": "0x9f8cc08fc5293d76a0d8b3b0924742fc36a1301c",
        "topics": [
          "0x3a48c1ec2337406c590a8fa1aefe827430d6c1623e3715936e47fc8fa5299412",
          "0x7d971612020101000000000000000000000000000000000000000000000000a9",
          "0x000000000000000000000000d8246f9c6cc0f006de446ab90a787942ceaead74"
        ],
        "data": "0x0000000000000000000000000000000000000000000000000000000000000003"
      }
    },
    {
      "name": "",
      "anonymous": false,
      "inputs": null,
      "raw": {
        "address": "0x862a8fb429195d735106c06c4e352e305d8c7b31",
        "topics": [
          "0x57a285d11c52114e1c932af91ce610073cb95f99c6126bf75c6a59b3846e0d6a",
          "0x7d971612020101000000000000000000000000000000000000000000000000a9",
          "0x000000000000000000000000d8246f9c6cc0f006de446ab90a787942ceaead74",
          "0x0000000000000000000000000000000000000000000000000000000000000000"
        ],
        "data": "0x000000000000000000000000000000000000000000000000000000000000000100000000000000000000000000000000000000000000000002eaae014cd57fd000000000000000000000000000000000000000000000000000000000000000000000000000000000000000000000000000000000000000000000bf2666bb9b02000000000000000000000000000000000000000000000000005be62754de8ec0000000000000000000000000000000000000000000000000011f2f3ca47cb610"
      }
    },
    {
      "name": "",
      "anonymous": false,
      "inputs": null,
      "raw": {
        "address": "0x862a8fb429195d735106c06c4e352e305d8c7b31",
        "topics": [
          "0xdd236dbbae4d9b3e1c5bb780751a96188a7a4b7fce23dabc0c752dd73543b07d",
          "0x000000000000000000000000c434b739d2dac17279f8fa1b66c0c7381df4909b",
          "0x000000000000000000000000c434b739d2dac17279f8fa1b66c0c7381df4909b",
          "0x7d971612020101000000000000000000000000000000000000000000000000a9"
        ],
        "data": "0x00000000000000000000000074bedf05d528f6f2409b326eddc86793acbcc6cb000000000000000000000000000000000000000000000000000000000000000000000000000000000000000000000000000000000000000000000000000000000000000000000000000000000000000000000000000000000000000000000000000000000000000000000000000000000000000000000000011f2f3ca47cb61000000000000000000000000000000000000000000000000001cb7ec4a858c9c00000000000000000000000000000000000000000000000000000000000035c1500000000000000000000000000000000000000000000000000000000000192f700000000000000000000000000000000000000000000000002eaae014cd57fd00000000000000000000000000000000000000000000000000000bf2666bb9b02000000000000000000000000000000000000000000000000000000000000000000000000000000000000000000000000000000000000000000001786b2013f1e00000000000000000000000000000000000000000000000000004984ecb55f6a000000000000000000000000000000000000000000000000000000000ee6b292000000000000000000000000000000000000000000000000000000006565ca4c"
      }
    }
  ],
  "trace": [
    {
      "type": "CALL",
      "from": "0xc434b739d2dac17279f8fa1b66c0c7381df4909b",
      "to": "0x862a8fb429195d735106c06c4e352e305d8c7b31",
      "gas": "0x5ba8b",
      "gasUsed": "0x4a97b",
      "value": "0x0",
      "input": "0x58cdbf8e0000000000000000000000000000000000000000000000000000000000000040000000000000000000000000c434b739d2dac17279f8fa1b66c0c7381df4909b0000000000000000000000000000000000000000000000000000000000000a447d971612020101000000000000000000000000000000000000000000000000000000000000000000000000000000000000000000000000000000000000000000000000a000000000000000000000000000000000000000000000000000000000000000000000000000000000000000000000000000000000000000000000000000000000000000000000000000000000c434b739d2dac17279f8fa1b66c0c7381df4909b2bfb85b86730f63d6ab23409ec73d19c1b5347d68b3ef6aacb1b5f43939a780e2b6ed40002010100000000000000656f9d5f006565c09c000000003b9aca000ca3ea09287a9cf576f7f12c88181b92bb1f689ded6295926b4c3ba97e139c44e49a9661f35444be43c97445d6a5402bafe26eefbabded6a15389dcae7dd06f78a831db8657ab7ff15c62e55404c7cff05a6121dc231070ffe5977eb8f59f547e2c5d2460186f7233c927e7db2dcc703c0e500b653ca82273b7bfad8045d85a470d97628755011d53450aa83b28b0109b1867f0ba90c9e0df9f9414acf3c51b2fbc5d2460186f7233c927e7db2dcc703c0e500b653ca82273b7bfad8045d85a470000000000000000000000000000000000000000000000000000000000000000000000000000000000000000000000000000000000000000000000000000001e000000000000000000000000000000000000000000000000000000000000007e000000000000000000000000000000000000000000000000000000000000008c000000000000000000000000000000000000000000000000000000000000008e00000000000000000000000000000000000000000000000000000000000000900000000000000000000000000000000000000000000000000000000000000092000000000000000000000000000000000000000000000000000000000000000030000000000000000000000000000000000000000000000000000000000000060000000000000000000000000000000000000000000000000000000000000022000000000000000000000000000000000000000000000000000000000000004009722c023492649330dbc4ed96770d518f033d91c2fbbead858766ccd8a8bc308c5d2460186f7233c927e7db2dcc703c0e500b653ca82273b7bfad8045d85a47070a08231b98ef4ca268c9cc3f6b4590e4bfec28280db06bb5d45e689f2a360be000000000000000000000000000000000000000000000000000000000000000000000000000000000000000000000001000002000100000001000100017e5c11000000000000000000000000d8246f9c6cc0f006de446ab90a787942ceaead7400000000000000000000000075ab5ab1eef154c0352fc31d2428cef80c7f8b330000000000000000000000000000000000000000000000000000000000000140000000000000000000000000000000000000000000000000000000000000018000000000000000000000000000000000000000000000000000000000000001a00000000000000000000000000000000000000000000000000000000000000020000000000000000000000000d8246f9c6cc0f006de446ab90a787942ceaead7400000000000000000000000000000000000000000000000000000000000000000000000000000000000000000000000000000000000000000000000000000000cc5799e596bc7be39f477fc9e1878f55d6b38cca25844740c83ef720bf7c7d3dc5d2460186f7233c927e7db2dcc703c0e500b653ca82273b7bfad8045d85a470a9059cbb2ab09eb219583f4a59a5d0623ade346d962bcd4e46b11da047c9049b00000000000000000000000000000000000000000000000000000000000000000000000000000000000000000000000000000600000000000200020001c08804000000000000000000000000d8246f9c6cc0f006de446ab90a787942ceaead740000000000000000000000009fd21be27a2b059a288229361e2fa632d8d2d074000000000000000000000000000000000000000000000000000000000000014000000000000000000000000000000000000000000000000000000000000001a000000000000000000000000000000000000000000000000000000000000001c0000000000000000000000000000000000000000000000000000000000000004000000000000000000000000037f8cf234e6f629a681def0692d25c6857d8ecbf00000000000000000000000000000000000000000000000000000000001e848000000000000000000000000000000000000000000000000000000000000000000000000000000000000000000000000000000000000000000000000000000000bbacb3a7d2bd1b95c8ffa3c5020948f7ffe64c14d7f10c6c1be52465fd195d59c5d2460186f7233c927e7db2dcc703c0e500b653ca82273b7bfad8045d85a470a9059cbb2ab09eb219583f4a59a5d0623ade346d962bcd4e46b11da047c9049b00000000000000000000000000000000000000000000000000000000000000000000000000000000000000000000000000000600000000000300030001c08804000000000000000000000000d8246f9c6cc0f006de446ab90a787942ceaead74000000000000000000000000dc31ee1784292379fbb2964b3b9c4124d8f89c60000000000000000000000000000000000000000000000000000000000000014000000000000000000000000000000000000000000000000000000000000001a000000000000000000000000000000000000000000000000000000000000001c0000000000000000000000000000000000000000000000000000000000000004000000000000000000000000037f8cf234e6f629a681def0692d25c6857d8ecbf00000000000000000000000000000000000000000000000053444835ec580000000000000000000000000000000000000000000000000000000000000000000000000000000000000000000000000000000000000000000000000000000000000000000000000000000000000000000000000000000000000000000000000002ad28f699cdbbf7610f5f2f2d8c274a3a8e5400c6a70917b3d7d1e26f246fe640713940164ca0366f31ef376b7930144f8721df4f1f71e1d3550d616ab82db398000000000000000000000000000000000000000000000000000000000000001b6fa7083fd168152d253722e9bfe6f97db58f45c7b3a706dddc09d9103006f3ee6efd2aa0acc4f7fa9e24f074f05f92519721fa9763c422a3cbd5a7025bb7040f000000000000000000000000000000000000000000000000000000000000001c0000000000000000000000000000000000000000000000000000000000000000000000000000000000000000000000000000000000000000000000000000000000000000000000000000000000000000000000000000000000000000000000000000000000000000000000000000000000000000000000000000000000000001000000000000000000000000fd000000000000000000000000000000000000012602ee1ebf372b25bffbd066c8358edb7f611f67d29a83d531f51d21a4ab2e890000000000000000000000000000000000ed20ae863a65cbfdccf3d4f5cc000000000000000000000000000000000000000000000000000000000000",
      "output": "0x0000000000000000000000000000000000000000000000000000000000000000",
      "subtraces": 5,
      "traceAddress": []
    },
    {
      "type": "CALL",
      "from": "0x862a8fb429195d735106c06c4e352e305d8c7b31",
      "to": "0x38b5249ec6529f19aee7ce2c650cadd407a78ed7",
      "gas": "0x583f8",
      "gasUsed": "0x35065",
      "value": "0x0",
      "input": "0x7d971612020101000000000000000000000000000000000000000000000000000000000000000000000000000000000000000000000000000000000000000000000000a000000000000000000000000000000000000000000000000000000000000000000000000000000000000000000000000000000000000000000000000000000000000000000000000000000000c434b739d2dac17279f8fa1b66c0c7381df4909b2bfb85b86730f63d6ab23409ec73d19c1b5347d68b3ef6aacb1b5f43939a780e2b6ed40002010100000000000000656f9d5f006565c09c000000003b9aca000ca3ea09287a9cf576f7f12c88181b92bb1f689ded6295926b4c3ba97e139c44e49a9661f35444be43c97445d6a5402bafe26eefbabded6a15389dcae7dd06f78a831db8657ab7ff15c62e55404c7cff05a6121dc231070ffe5977eb8f59f547e2c5d2460186f7233c927e7db2dcc703c0e500b653ca82273b7bfad8045d85a470d97628755011d53450aa83b28b0109b1867f0ba90c9e0df9f9414acf3c51b2fbc5d2460186f7233c927e7db2dcc703c0e500b653ca82273b7bfad8045d85a470000000000000000000000000000000000000000000000000000000000000000000000000000000000000000000000000000000000000000000000000000001e000000000000000000000000000000000000000000000000000000000000007e000000000000000000000000000000000000000000000000000000000000008c000000000000000000000000000000000000000000000000000000000000008e00000000000000000000000000000000000000000000000000000000000000900000000000000000000000000000000000000000000000000000000000000092000000000000000000000000000000000000000000000000000000000000000030000000000000000000000000000000000000000000000000000000000000060000000000000000000000000000000000000000000000000000000000000022000000000000000000000000000000000000000000000000000000000000004009722c023492649330dbc4ed96770d518f033d91c2fbbead858766ccd8a8bc308c5d2460186f7233c927e7db2dcc703c0e500b653ca82273b7bfad8045d85a47070a08231b98ef4ca268c9cc3f6b4590e4bfec28280db06bb5d45e689f2a360be000000000000000000000000000000000000000000000000000000000000000000000000000000000000000000000001000002000100000001000100017e5c11000000000000000000000000d8246f9c6cc0f006de446ab90a787942ceaead7400000000000000000000000075ab5ab1eef154c0352fc31d2428cef80c7f8b330000000000000000000000000000000000000000000000000000000000000140000000000000000000000000000000000000000000000000000000000000018000000000000000000000000000000000000000000000000000000000000001a00000000000000000000000000000000000000000000000000000000000000020000000000000000000000000d8246f9c6cc0f006de446ab90a787942ceaead7400000000000000000000000000000000000000000000000000000000000000000000000000000000000000000000000000000000000000000000000000000000cc5799e596bc7be39f477fc9e1878f55d6b38cca25844740c83ef720bf7c7d3dc5d2460186f7233c927e7db2dcc703c0e500b653ca82273b7bfad8045d85a470a9059cbb2ab09eb219583f4a59a5d0623ade346d962bcd4e46b11da047c9049b00000000000000000000000000000000000000000000000000000000000000000000000000000000000000000000000000000600000000000200020001c08804000000000000000000000000d8246f9c6cc0f006de446ab90a787942ceaead740000000000000000000000009fd21be27a2b059a288229361e2fa632d8d2d074000000000000000000000000000000000000000000000000000000000000014000000000000000000000000000000000000000000000000000000000000001a000000000000000000000000000000000000000000000000000000000000001c0000000000000000000000000000000000000000000000000000000000000004000000000000000000000000037f8cf234e6f629a681def0692d25c6857d8ecbf00000000000000000000000000000000000000000000000000000000001e848000000000000000000000000000000000000000000000000000000000000000000000000000000000000000000000000000000000000000000000000000000000bbacb3a7d2bd1b95c8ffa3c5020948f7ffe64c14d7f10c6c1be52465fd195d59c5d2460186f7233c927e7db2dcc703c0e500b653ca82273b7bfad8045d85a470a9059cbb2ab09eb219583f4a59a5d0623ade346d962bcd4e46b11da047c9049b00000000000000000000000000000000000000000000000000000000000000000000000000000000000000000000000000000600000000000300030001c08804000000000000000000000000d8246f9c6cc0f006de446ab90a787942ceaead74000000000000000000000000dc31ee1784292379fbb2964b3b9c4124d8f89c60000000000000000000000000000000000000000000000000000000000000014000000000000000000000000000000000000000000000000000000000000001a000000000000000000000000000000000000000000000000000000000000001c0000000000000000000000000000000000000000000000000000000000000004000000000000000000000000037f8cf234e6f629a681def0692d25c6857d8ecbf00000000000000000000000000000000000000000000000053444835ec580000000000000000000000000000000000000000000000000000000000000000000000000000000000000000000000000000000000000000000000000000000000000000000000000000000000000000000000000000000000000000000000000002ad28f699cdbbf7610f5f2f2d8c274a3a8e5400c6a70917b3d7d1e26f246fe640713940164ca0366f31ef376b7930144f8721df4f1f71e1d3550d616ab82db398000000000000000000000000000000000000000000000000000000000000001b6fa7083fd168152d253722e9bfe6f97db58f45c7b3a706dddc09d9103006f3ee6efd2aa0acc4f7fa9e24f074f05f92519721fa9763c422a3cbd5a7025bb7040f000000000000000000000000000000000000000000000000000000000000001c0000000000000000000000000000000000000000000000000000000000000000000000000000000000000000000000000000000000000000000000000000000000000000000000000000000000000000000000000000000000000000000000000000000000000000000000000000000000000000000000000000000000000001000000000000000000000000fd000000000000000000000000000000000000012602ee1ebf372b25bffbd066c8358edb7f611f67d29a83d531f51d21a4ab2e890000000000000000000000000000000000ed20ae863a65cbfdccf3d4f5cc0000",
      "output": "0xc5d2460186f7233c927e7db2dcc703c0e500b653ca82273b7bfad8045d85a4700000000000000000000000000000000000000000000000000000000000000000000000000000000000000000000000000000000000000000000000003b9aca0000000000000000000000000000000000000000000000000000000000000000800000000000000000000000000000000000000000000000000000000000000003000000000000000000000000d8246f9c6cc0f006de446ab90a787942ceaead74000000000000000000000000000000000000000000000000000000000000de9200000000000000000000000000000000000000000000000000000000000000000000000000000000000000000000000000000000000000000000000000000000000000000000000000000000d8246f9c6cc0f006de446ab90a787942ceaead740000000000000000000000000000000000000000000000000000000000008f88",
      "subtraces": 1,
      "traceAddress": [0]
    },
    {
      "type": "CALL",
      "from": "0x38b5249ec6529f19aee7ce2c650cadd407a78ed7",
      "to": "0x9f8cc08fc5293d76a0d8b3b0924742fc36a1301c",
      "gas": "0x4e49e",
      "gasUsed": "0x2c36a",
      "value": "0x0",
      "input": "0x7d971612020101000000000000000000000000000000000000000000000000000000000000000000000000000000000000000000000000000000000000000000000000a000000000000000000000000000000000000000000000000000000000000000000000000000000000000000000000000000000000000000000000000000000000000000000000000000000000c434b739d2dac17279f8fa1b66c0c7381df4909b2bfb85b86730f63d6ab23409ec73d19c1b5347d68b3ef6aacb1b5f43939a780e2b6ed40002010100000000000000656f9d5f006565c09c000000003b9aca000ca3ea09287a9cf576f7f12c88181b92bb1f689ded6295926b4c3ba97e139c44e49a9661f35444be43c97445d6a5402bafe26eefbabded6a15389dcae7dd06f78a831db8657ab7ff15c62e55404c7cff05a6121dc231070ffe5977eb8f59f547e2c5d2460186f7233c927e7db2dcc703c0e500b653ca82273b7bfad8045d85a470d97628755011d53450aa83b28b0109b1867f0ba90c9e0df9f9414acf3c51b2fbc5d2460186f7233c927e7db2dcc703c0e500b653ca82273b7bfad8045d85a470000000000000000000000000000000000000000000000000000000000000000000000000000000000000000000000000000000000000000000000000000001e000000000000000000000000000000000000000000000000000000000000007e000000000000000000000000000000000000000000000000000000000000008c000000000000000000000000000000000000000000000000000000000000008e00000000000000000000000000000000000000000000000000000000000000900000000000000000000000000000000000000000000000000000000000000092000000000000000000000000000000000000000000000000000000000000000030000000000000000000000000000000000000000000000000000000000000060000000000000000000000000000000000000000000000000000000000000022000000000000000000000000000000000000000000000000000000000000004009722c023492649330dbc4ed96770d518f033d91c2fbbead858766ccd8a8bc308c5d2460186f7233c927e7db2dcc703c0e500b653ca82273b7bfad8045d85a47070a08231b98ef4ca268c9cc3f6b4590e4bfec28280db06bb5d45e689f2a360be000000000000000000000000000000000000000000000000000000000000000000000000000000000000000000000001000002000100000001000100017e5c11000000000000000000000000d8246f9c6cc0f006de446ab90a787942ceaead7400000000000000000000000075ab5ab1eef154c0352fc31d2428cef80c7f8b330000000000000000000000000000000000000000000000000000000000000140000000000000000000000000000000000000000000000000000000000000018000000000000000000000000000000000000000000000000000000000000001a00000000000000000000000000000000000000000000000000000000000000020000000000000000000000000d8246f9c6cc0f006de446ab90a787942ceaead7400000000000000000000000000000000000000000000000000000000000000000000000000000000000000000000000000000000000000000000000000000000cc5799e596bc7be39f477fc9e1878f55d6b38cca25844740c83ef720bf7c7d3dc5d2460186f7233c927e7db2dcc703c0e500b653ca82273b7bfad8045d85a470a9059cbb2ab09eb219583f4a59a5d0623ade346d962bcd4e46b11da047c9049b00000000000000000000000000000000000000000000000000000000000000000000000000000000000000000000000000000600000000000200020001c08804000000000000000000000000d8246f9c6cc0f006de446ab90a787942ceaead740000000000000000000000009fd21be27a2b059a288229361e2fa632d8d2d074000000000000000000000000000000000000000000000000000000000000014000000000000000000000000000000000000000000000000000000000000001a000000000000000000000000000000000000000000000000000000000000001c0000000000000000000000000000000000000000000000000000000000000004000000000000000000000000037f8cf234e6f629a681def0692d25c6857d8ecbf00000000000000000000000000000000000000000000000000000000001e848000000000000000000000000000000000000000000000000000000000000000000000000000000000000000000000000000000000000000000000000000000000bbacb3a7d2bd1b95c8ffa3c5020948f7ffe64c14d7f10c6c1be52465fd195d59c5d2460186f7233c927e7db2dcc703c0e500b653ca82273b7bfad8045d85a470a9059cbb2ab09eb219583f4a59a5d0623ade346d962bcd4e46b11da047c9049b00000000000000000000000000000000000000000000000000000000000000000000000000000000000000000000000000000600000000000300030001c08804000000000000000000000000d8246f9c6cc0f006de446ab90a787942ceaead74000000000000000000000000dc31ee1784292379fbb2964b3b9c4124d8f89c60000000000000000000000000000000000000000000000000000000000000014000000000000000000000000000000000000000000000000000000000000001a000000000000000000000000000000000000000000000000000000000000001c0000000000000000000000000000000000000000000000000000000000000004000000000000000000000000037f8cf234e6f629a681def0692d25c6857d8ecbf00000000000000000000000000000000000000000000000053444835ec580000000000000000000000000000000000000000000000000000000000000000000000000000000000000000000000000000000000000000000000000000000000000000000000000000000000000000000000000000000000000000000000000002ad28f699cdbbf7610f5f2f2d8c274a3a8e5400c6a70917b3d7d1e26f246fe640713940164ca0366f31ef376b7930144f8721df4f1f71e1d3550d616ab82db398000000000000000000000000000000000000000000000000000000000000001b6fa7083fd168152d253722e9bfe6f97db58f45c7b3a706dddc09d9103006f3ee6efd2aa0acc4f7fa9e24f074f05f92519721fa9763c422a3cbd5a7025bb7040f000000000000000000000000000000000000000000000000000000000000001c0000000000000000000000000000000000000000000000000000000000000000000000000000000000000000000000000000000000000000000000000000000000000000000000000000000000000000000000000000000000000000000000000000000000000000000000000000000000000000000000000000000000000001000000000000000000000000fd000000000000000000000000000000000000012602ee1ebf372b25bffbd066c8358edb7f611f67d29a83d531f51d21a4ab2e890000000000000000000000000000000000ed20ae863a65cbfdccf3d4f5cc0000",
      "output": "0xc5d2460186f7233c927e7db2dcc703c0e500b653ca82273b7bfad8045d85a4700000000000000000000000000000000000000000000000000000000000000000000000000000000000000000000000000000000000000000000000003b9aca0000000000000000000000000000000000000000000000000000000000000000800000000000000000000000000000000000000000000000000000000000000003000000000000000000000000d8246f9c6cc0f006de446ab90a787942ceaead74000000000000000000000000000000000000000000000000000000000000de9200000000000000000000000000000000000000000000000000000000000000000000000000000000000000000000000000000000000000000000000000000000000000000000000000000000d8246f9c6cc0f006de446ab90a787942ceaead740000000000000000000000000000000000000000000000000000000000008f88",
      "subtraces": 4,
      "traceAddress": [0, 0]
    },
    {
      "type": "CALL",
      "from": "0x9f8cc08fc5293d76a0d8b3b0924742fc36a1301c",
      "to": "0x38b5249ec6529f19aee7ce2c650cadd407a78ed7",
      "gas": "0x459b5",
      "gasUsed": "0x9792",
      "value": "0x0",
      "input": "0x99b1dd477d97161202010100000000000000000000000000000000000000000000000000525c2018c861e22e8e1147358acb4da129dcfddeab7f63627540392dc80abe7e00000000000000000000000000000000000000000000000000000000656f9d5f0000000000000000000000000000000000000000000000000000000000000000000000000000000000000000000000000000000000000000000000000000000000000000000000000000000000000000000000000000000000000000000000000000000000000000000000000000000000000000000000000000000000000001000000000000000000000000000000000000000000000000000000000000000000000000000000000000000000000000000000000000000000000000000000010000000000000000000000000000000000000000000000000000000000000000000000000000000000000000000000000000000000000000000000000000000000000000000000000000000000000000000000000000000000000000000000000000000000000000000000000000000000000000000000000000000000000000",
      "output": "0x8be4e19fe137cf9aa1187d2128a72c122a736c85340f2d826d86ca379bbe50ba00000000000000000000000000000000000000000000000000000000000000007d971612020101000000000000000000000000000000000000000000000000a9",
      "subtraces": 0,
      "traceAddress": [0, 0, 0]
    },
    {
      "type": "STATICCALL",
      "from": "0x9f8cc08fc5293d76a0d8b3b0924742fc36a1301c",
      "to": "0x542234c8183508108840a0430afe2f665ab87eaa",
      "gas": "0x39284",
      "gasUsed": "0x280",
      "input": "0xa4f8f9ddc5d2460186f7233c927e7db2dcc703c0e500b653ca82273b7bfad8045d85a470000000000000000000000000000000000000000000000000000000000000000000000000000000000000000000000000000000000000000000000000000000600000000000000000000000000000000000000000000000000000000000000002000000000000000000000000991e5e72d9acc110b1d8d2aa06c26931ee8cf33000000000000000000000000037f8cf234e6f629a681def0692d25c6857d8ecbf",
      "output": "0x",
      "subtraces": 0,
      "traceAddress": [0, 0, 1]
    },
    {
      "type": "STATICCALL",
      "from": "0x9f8cc08fc5293d76a0d8b3b0924742fc36a1301c",
      "to": "0xd8246f9c6cc0f006de446ab90a787942ceaead74",
      "gas": "0x17e5c",
      "gasUsed": "0x91da",
      "input": "0x0496ce2a7d971612020101000000000000000000000000000000000000000000000000a98be4e19fe137cf9aa1187d2128a72c122a736c85340f2d826d86ca379bbe50ba000000000000000000000000000000000000000000000000000000000000008000000000000000000000000000000000000000000000000000000000000001a000000000000000000000000075ab5ab1eef154c0352fc31d2428cef80c7f8b33c5d2460186f7233c927e7db2dcc703c0e500b653ca82273b7bfad8045d85a47000000000000000000000000000000000000000000000000000000000000000002b6ed40002010100000000000000656f9d5f006565c09c000000003b9aca000c00000000000000000000000000000001000002000100000001000100017e5c1100000000000000000000000000000000000000000000000000000000000000c0000000000000000000000000000000000000000000000000000000000000002470a08231000000000000000000000000d8246f9c6cc0f006de446ab90a787942ceaead74000000000000000000000000000000000000000000000000000000000000000000000000000000000000000000000000000000000000000000000002000000000000000000000000991e5e72d9acc110b1d8d2aa06c26931ee8cf33000000000000000000000000037f8cf234e6f629a681def0692d25c6857d8ecbf",
      "output": "0x00000000000000000000000000000000000000000000000000000000000000010000000000000000000000000000000000000000000000000000000000000040000000000000000000000000000000000000000000000000000000000000002000000000000000000000000000000000000000000050fff7945072357feb18b1",
      "subtraces": 1,
      "traceAddress": [0, 0, 2]
    },
    {
      "type": "DELEGATECALL",
      "from": "0xd8246f9c6cc0f006de446ab90a787942ceaead74",
      "to": "0xb09da8d74d593e946ab1a2eaaeac6dad44992c25",
      "gas": "0x16da1",
      "gasUsed": "0x86ad",
      "input": "0x0496ce2a7d971612020101000000000000000000000000000000000000000000000000a98be4e19fe137cf9aa1187d2128a72c122a736c85340f2d826d86ca379bbe50ba000000000000000000000000000000000000000000000000000000000000008000000000000000000000000000000000000000000000000000000000000001a000000000000000000000000075ab5ab1eef154c0352fc31d2428cef80c7f8b33c5d2460186f7233c927e7db2dcc703c0e500b653ca82273b7bfad8045d85a47000000000000000000000000000000000000000000000000000000000000000002b6ed40002010100000000000000656f9d5f006565c09c000000003b9aca000c00000000000000000000000000000001000002000100000001000100017e5c1100000000000000000000000000000000000000000000000000000000000000c0000000000000000000000000000000000000000000000000000000000000002470a08231000000000000000000000000d8246f9c6cc0f006de446ab90a787942ceaead74000000000000000000000000000000000000000000000000000000000000000000000000000000000000000000000000000000000000000000000002000000000000000000000000991e5e72d9acc110b1d8d2aa06c26931ee8cf33000000000000000000000000037f8cf234e6f629a681def0692d25c6857d8ecbf",
      "output": "0x00000000000000000000000000000000000000000000000000000000000000010000000000000000000000000000000000000000000000000000000000000040000000000000000000000000000000000000000000000000000000000000002000000000000000000000000000000000000000000050fff7945072357feb18b1",
      "subtraces": 1,
      "traceAddress": [0, 0, 2, 0]
    },
    {
      "type": "DELEGATECALL",
      "from": "0xd8246f9c6cc0f006de446ab90a787942ceaead74",
      "to": "0x72ee41f7faf00d234db1b4dde361e944bef87ead",
      "gas": "0x154ce",
      "gasUsed": "0x7313",
      "input": "0x0496ce2a7d971612020101000000000000000000000000000000000000000000000000a98be4e19fe137cf9aa1187d2128a72c122a736c85340f2d826d86ca379bbe50ba000000000000000000000000000000000000000000000000000000000000008000000000000000000000000000000000000000000000000000000000000001a000000000000000000000000075ab5ab1eef154c0352fc31d2428cef80c7f8b33c5d2460186f7233c927e7db2dcc703c0e500b653ca82273b7bfad8045d85a47000000000000000000000000000000000000000000000000000000000000000002b6ed40002010100000000000000656f9d5f006565c09c000000003b9aca000c00000000000000000000000000000001000002000100000001000100017e5c1100000000000000000000000000000000000000000000000000000000000000c0000000000000000000000000000000000000000000000000000000000000002470a08231000000000000000000000000d8246f9c6cc0f006de446ab90a787942ceaead74000000000000000000000000000000000000000000000000000000000000000000000000000000000000000000000000000000000000000000000002000000000000000000000000991e5e72d9acc110b1d8d2aa06c26931ee8cf33000000000000000000000000037f8cf234e6f629a681def0692d25c6857d8ecbf",
      "output": "0x00000000000000000000000000000000000000000000000000000000000000010000000000000000000000000000000000000000000000000000000000000040000000000000000000000000000000000000000000000000000000000000002000000000000000000000000000000000000000000050fff7945072357feb18b1",
      "subtraces": 3,
      "traceAddress": [0, 0, 2, 0, 0]
    },
    {
      "type": "STATICCALL",
      "from": "0xd8246f9c6cc0f006de446ab90a787942ceaead74",
      "to": "0xd8246f9c6cc0f006de446ab90a787942ceaead74",
      "gas": "0x14e36",
      "gasUsed": "0x59",
      "input": "0x02d05d3f",
      "output": "0x0000000000000000000000003628be9e0befe4406cdfca72e51d40d3902b9a22",
      "subtraces": 0,
      "traceAddress": [0, 0, 2, 0, 0, 0]
    },
    {
      "type": "STATICCALL",
      "from": "0xd8246f9c6cc0f006de446ab90a787942ceaead74",
      "to": "0x3628be9e0befe4406cdfca72e51d40d3902b9a22",
      "gas": "0x1433d",
      "gasUsed": "0x1cd0",
      "input": "0x0e6d1de9",
      "output": "0x00000000000000000000000001ba3b382efdc10e9acc8a08f3bb26334f553239",
      "subtraces": 1,
      "traceAddress": [0, 0, 2, 0, 0, 1]
    },
    {
      "type": "DELEGATECALL",
      "from": "0x3628be9e0befe4406cdfca72e51d40d3902b9a22",
      "to": "0xe8572102fa6ae172df00634d5262e56ee283c134",
      "gas": "0x12b32",
      "gasUsed": "0x95e",
      "input": "0x0e6d1de9",
      "output": "0x00000000000000000000000001ba3b382efdc10e9acc8a08f3bb26334f553239",
      "subtraces": 0,
      "traceAddress": [0, 0, 2, 0, 0, 1, 0]
    },
    {
      "type": "DELEGATECALL",
      "from": "0xd8246f9c6cc0f006de446ab90a787942ceaead74",
      "to": "0x01ba3b382efdc10e9acc8a08f3bb26334f553239",
      "gas": "0x11c27",
      "gasUsed": "0x3ebf",
      "input": "0x0496ce2a7d971612020101000000000000000000000000000000000000000000000000a98be4e19fe137cf9aa1187d2128a72c122a736c85340f2d826d86ca379bbe50ba000000000000000000000000000000000000000000000000000000000000008000000000000000000000000000000000000000000000000000000000000001a000000000000000000000000075ab5ab1eef154c0352fc31d2428cef80c7f8b33c5d2460186f7233c927e7db2dcc703c0e500b653ca82273b7bfad8045d85a47000000000000000000000000000000000000000000000000000000000000000002b6ed40002010100000000000000656f9d5f006565c09c000000003b9aca000c00000000000000000000000000000001000002000100000001000100017e5c1100000000000000000000000000000000000000000000000000000000000000c0000000000000000000000000000000000000000000000000000000000000002470a08231000000000000000000000000d8246f9c6cc0f006de446ab90a787942ceaead74000000000000000000000000000000000000000000000000000000000000000000000000000000000000000000000000000000000000000000000002000000000000000000000000991e5e72d9acc110b1d8d2aa06c26931ee8cf33000000000000000000000000037f8cf234e6f629a681def0692d25c6857d8ecbf",
      "output": "0x00000000000000000000000000000000000000000000000000000000000000010000000000000000000000000000000000000000000000000000000000000040000000000000000000000000000000000000000000000000000000000000002000000000000000000000000000000000000000000050fff7945072357feb18b1",
      "subtraces": 3,
      "traceAddress": [0, 0, 2, 0, 0, 2]
    },
    {
      "type": "STATICCALL",
      "from": "0xd8246f9c6cc0f006de446ab90a787942ceaead74",
      "to": "0x38b5249ec6529f19aee7ce2c650cadd407a78ed7",
      "gas": "0x1135e",
      "gasUsed": "0x385",
      "input": "0x9a0e776b7d971612020101000000000000000000000000000000000000000000000000a90000000000000000000000009f8cc08fc5293d76a0d8b3b0924742fc36a1301cc5d2460186f7233c927e7db2dcc703c0e500b653ca82273b7bfad8045d85a47000000000000000000000000075ab5ab1eef154c0352fc31d2428cef80c7f8b33",
      "output": "0x00000000000000000000000075ab5ab1eef154c0352fc31d2428cef80c7f8b330000000000000000000000000000000000000000000000000000000000000000",
      "subtraces": 0,
      "traceAddress": [0, 0, 2, 0, 0, 2, 0]
    },
    {
      "type": "STATICCALL",
      "from": "0xd8246f9c6cc0f006de446ab90a787942ceaead74",
      "to": "0xd8246f9c6cc0f006de446ab90a787942ceaead74",
      "gas": "0x10dd8",
      "gasUsed": "0x59",
      "input": "0x02d05d3f",
      "output": "0x0000000000000000000000003628be9e0befe4406cdfca72e51d40d3902b9a22",
      "subtraces": 0,
      "traceAddress": [0, 0, 2, 0, 0, 2, 1]
    },
    {
      "type": "STATICCALL",
      "from": "0xd8246f9c6cc0f006de446ab90a787942ceaead74",
      "to": "0x75ab5ab1eef154c0352fc31d2428cef80c7f8b33",
      "gas": "0xe581",
      "gasUsed": "0x98d",
      "input": "0x70a08231000000000000000000000000d8246f9c6cc0f006de446ab90a787942ceaead74",
      "decodedInput": [
        {
          "value": "0xd8246f9c6cc0f006de446ab90a787942ceaead74",
          "type": "address",
          "name": "account"
        }
      ],
      "method": "balanceOf",
      "output": "0x00000000000000000000000000000000000000000050fff7945072357feb18b1",
      "decodedOutput": [
        {
          "value": "97922836055255789620369585",
          "type": "uint256",
          "name": ""
        }
      ],
      "subtraces": 0,
      "traceAddress": [0, 0, 2, 0, 0, 2, 2]
    },
    {
      "type": "CALL",
      "from": "0x9f8cc08fc5293d76a0d8b3b0924742fc36a1301c",
      "to": "0xd8246f9c6cc0f006de446ab90a787942ceaead74",
      "gas": "0x1c088",
      "gasUsed": "0x532b",
      "value": "0x0",
      "input": "0x0496ce2a7d971612020101000000000000000000000000000000000000000000000000a98be4e19fe137cf9aa1187d2128a72c122a736c85340f2d826d86ca379bbe50ba000000000000000000000000000000000000000000000000000000000000008000000000000000000000000000000000000000000000000000000000000001c0000000000000000000000000dc31ee1784292379fbb2964b3b9c4124d8f89c60c5d2460186f7233c927e7db2dcc703c0e500b653ca82273b7bfad8045d85a47000000000000000000000000000000000000000000000000000000000000000002b6ed40002010100000000000000656f9d5f006565c09c000000003b9aca000c0000000000000000000000000000000000000600000000000300030001c0880400000000000000000000000000000000000000000000000000000000000000c00000000000000000000000000000000000000000000000000000000000000044a9059cbb00000000000000000000000037f8cf234e6f629a681def0692d25c6857d8ecbf00000000000000000000000000000000000000000000000053444835ec580000000000000000000000000000000000000000000000000000000000000000000000000000000000000000000000000000000000000000000000000002000000000000000000000000991e5e72d9acc110b1d8d2aa06c26931ee8cf33000000000000000000000000037f8cf234e6f629a681def0692d25c6857d8ecbf",
      "output": "0x0000000000000000000000000000000000000000000000000000000000000001000000000000000000000000000000000000000000000000000000000000004000000000000000000000000000000000000000000000000000000000000000200000000000000000000000000000000000000000000000000000000000000001",
      "subtraces": 1,
      "traceAddress": [0, 0, 3]
    },
    {
      "type": "DELEGATECALL",
      "from": "0xd8246f9c6cc0f006de446ab90a787942ceaead74",
      "to": "0xb09da8d74d593e946ab1a2eaaeac6dad44992c25",
      "gas": "0x1b85b",
      "gasUsed": "0x51bc",
      "input": "0x0496ce2a7d971612020101000000000000000000000000000000000000000000000000a98be4e19fe137cf9aa1187d2128a72c122a736c85340f2d826d86ca379bbe50ba000000000000000000000000000000000000000000000000000000000000008000000000000000000000000000000000000000000000000000000000000001c0000000000000000000000000dc31ee1784292379fbb2964b3b9c4124d8f89c60c5d2460186f7233c927e7db2dcc703c0e500b653ca82273b7bfad8045d85a47000000000000000000000000000000000000000000000000000000000000000002b6ed40002010100000000000000656f9d5f006565c09c000000003b9aca000c0000000000000000000000000000000000000600000000000300030001c0880400000000000000000000000000000000000000000000000000000000000000c00000000000000000000000000000000000000000000000000000000000000044a9059cbb00000000000000000000000037f8cf234e6f629a681def0692d25c6857d8ecbf00000000000000000000000000000000000000000000000053444835ec580000000000000000000000000000000000000000000000000000000000000000000000000000000000000000000000000000000000000000000000000002000000000000000000000000991e5e72d9acc110b1d8d2aa06c26931ee8cf33000000000000000000000000037f8cf234e6f629a681def0692d25c6857d8ecbf",
      "output": "0x0000000000000000000000000000000000000000000000000000000000000001000000000000000000000000000000000000000000000000000000000000004000000000000000000000000000000000000000000000000000000000000000200000000000000000000000000000000000000000000000000000000000000001",
      "subtraces": 1,
      "traceAddress": [0, 0, 3, 0]
    },
    {
      "type": "DELEGATECALL",
      "from": "0xd8246f9c6cc0f006de446ab90a787942ceaead74",
      "to": "0x72ee41f7faf00d234db1b4dde361e944bef87ead",
      "gas": "0x1afa5",
      "gasUsed": "0x4fb0",
      "input": "0x0496ce2a7d971612020101000000000000000000000000000000000000000000000000a98be4e19fe137cf9aa1187d2128a72c122a736c85340f2d826d86ca379bbe50ba000000000000000000000000000000000000000000000000000000000000008000000000000000000000000000000000000000000000000000000000000001c0000000000000000000000000dc31ee1784292379fbb2964b3b9c4124d8f89c60c5d2460186f7233c927e7db2dcc703c0e500b653ca82273b7bfad8045d85a47000000000000000000000000000000000000000000000000000000000000000002b6ed40002010100000000000000656f9d5f006565c09c000000003b9aca000c0000000000000000000000000000000000000600000000000300030001c0880400000000000000000000000000000000000000000000000000000000000000c00000000000000000000000000000000000000000000000000000000000000044a9059cbb00000000000000000000000037f8cf234e6f629a681def0692d25c6857d8ecbf00000000000000000000000000000000000000000000000053444835ec580000000000000000000000000000000000000000000000000000000000000000000000000000000000000000000000000000000000000000000000000002000000000000000000000000991e5e72d9acc110b1d8d2aa06c26931ee8cf33000000000000000000000000037f8cf234e6f629a681def0692d25c6857d8ecbf",
      "output": "0x0000000000000000000000000000000000000000000000000000000000000001000000000000000000000000000000000000000000000000000000000000004000000000000000000000000000000000000000000000000000000000000000200000000000000000000000000000000000000000000000000000000000000001",
      "subtraces": 3,
      "traceAddress": [0, 0, 3, 0, 0]
    },
    {
      "type": "STATICCALL",
      "from": "0xd8246f9c6cc0f006de446ab90a787942ceaead74",
      "to": "0xd8246f9c6cc0f006de446ab90a787942ceaead74",
      "gas": "0x1a7a2",
      "gasUsed": "0x59",
      "input": "0x02d05d3f",
      "output": "0x0000000000000000000000003628be9e0befe4406cdfca72e51d40d3902b9a22",
      "subtraces": 0,
      "traceAddress": [0, 0, 3, 0, 0, 0]
    },
    {
      "type": "STATICCALL",
      "from": "0xd8246f9c6cc0f006de446ab90a787942ceaead74",
      "to": "0x3628be9e0befe4406cdfca72e51d40d3902b9a22",
      "gas": "0x1a646",
      "gasUsed": "0x36c",
      "input": "0x0e6d1de9",
      "output": "0x00000000000000000000000001ba3b382efdc10e9acc8a08f3bb26334f553239",
      "subtraces": 1,
      "traceAddress": [0, 0, 3, 0, 0, 1]
    },
    {
      "type": "DELEGATECALL",
      "from": "0x3628be9e0befe4406cdfca72e51d40d3902b9a22",
      "to": "0xe8572102fa6ae172df00634d5262e56ee283c134",
      "gas": "0x19dfc",
      "gasUsed": "0x18e",
      "input": "0x0e6d1de9",
      "output": "0x00000000000000000000000001ba3b382efdc10e9acc8a08f3bb26334f553239",
      "subtraces": 0,
      "traceAddress": [0, 0, 3, 0, 0, 1, 0]
    },
    {
      "type": "DELEGATECALL",
      "from": "0xd8246f9c6cc0f006de446ab90a787942ceaead74",
      "to": "0x01ba3b382efdc10e9acc8a08f3bb26334f553239",
      "gas": "0x1a1c5",
      "gasUsed": "0x4842",
      "input": "0x0496ce2a7d971612020101000000000000000000000000000000000000000000000000a98be4e19fe137cf9aa1187d2128a72c122a736c85340f2d826d86ca379bbe50ba000000000000000000000000000000000000000000000000000000000000008000000000000000000000000000000000000000000000000000000000000001c0000000000000000000000000dc31ee1784292379fbb2964b3b9c4124d8f89c60c5d2460186f7233c927e7db2dcc703c0e500b653ca82273b7bfad8045d85a47000000000000000000000000000000000000000000000000000000000000000002b6ed40002010100000000000000656f9d5f006565c09c000000003b9aca000c0000000000000000000000000000000000000600000000000300030001c0880400000000000000000000000000000000000000000000000000000000000000c00000000000000000000000000000000000000000000000000000000000000044a9059cbb00000000000000000000000037f8cf234e6f629a681def0692d25c6857d8ecbf00000000000000000000000000000000000000000000000053444835ec580000000000000000000000000000000000000000000000000000000000000000000000000000000000000000000000000000000000000000000000000002000000000000000000000000991e5e72d9acc110b1d8d2aa06c26931ee8cf33000000000000000000000000037f8cf234e6f629a681def0692d25c6857d8ecbf",
      "output": "0x0000000000000000000000000000000000000000000000000000000000000001000000000000000000000000000000000000000000000000000000000000004000000000000000000000000000000000000000000000000000000000000000200000000000000000000000000000000000000000000000000000000000000001",
      "subtraces": 3,
      "traceAddress": [0, 0, 3, 0, 0, 2]
    },
    {
      "type": "STATICCALL",
      "from": "0xd8246f9c6cc0f006de446ab90a787942ceaead74",
      "to": "0x38b5249ec6529f19aee7ce2c650cadd407a78ed7",
      "gas": "0x196e5",
      "gasUsed": "0x385",
      "input": "0x9a0e776b7d971612020101000000000000000000000000000000000000000000000000a90000000000000000000000009f8cc08fc5293d76a0d8b3b0924742fc36a1301cc5d2460186f7233c927e7db2dcc703c0e500b653ca82273b7bfad8045d85a470000000000000000000000000dc31ee1784292379fbb2964b3b9c4124d8f89c60",
      "output": "0x000000000000000000000000dc31ee1784292379fbb2964b3b9c4124d8f89c600000000000000000000000000000000000000000000000000000000000000000",
      "subtraces": 0,
      "traceAddress": [0, 0, 3, 0, 0, 2, 0]
    },
    {
      "type": "STATICCALL",
      "from": "0xd8246f9c6cc0f006de446ab90a787942ceaead74",
      "to": "0xd8246f9c6cc0f006de446ab90a787942ceaead74",
      "gas": "0x19160",
      "gasUsed": "0x59",
      "input": "0x02d05d3f",
      "output": "0x0000000000000000000000003628be9e0befe4406cdfca72e51d40d3902b9a22",
      "subtraces": 0,
      "traceAddress": [0, 0, 3, 0, 0, 2, 1]
    },
    {
      "type": "CALL",
      "from": "0xd8246f9c6cc0f006de446ab90a787942ceaead74",
      "to": "0xdc31ee1784292379fbb2964b3b9c4124d8f89c60",
      "gas": "0x187dc",
      "gasUsed": "0x3262",
      "value": "0x0",
      "input": "0xa9059cbb00000000000000000000000037f8cf234e6f629a681def0692d25c6857d8ecbf00000000000000000000000000000000000000000000000053444835ec580000",
      "decodedInput": [
        {
          "value": "0x37f8cf234e6f629a681def0692d25c6857d8ecbf",
          "type": "address",
          "name": "recipient"
        },
        {
          "value": "6000000000000000000",
          "type": "uint256",
          "name": "amount"
        }
      ],
      "output": "0x0000000000000000000000000000000000000000000000000000000000000001",
      "decodedOutput": [
        {
          "value": true,
          "type": "bool",
          "name": ""
        }
      ],
      "subtraces": 0,
      "traceAddress": [0, 0, 3, 0, 0, 2, 2]
    },
    {
      "type": "STATICCALL",
      "from": "0x862a8fb429195d735106c06c4e352e305d8c7b31",
      "to": "0x38b5249ec6529f19aee7ce2c650cadd407a78ed7",
      "gas": "0x23f04",
      "gasUsed": "0x268",
      "input": "0x416a9ef57d97161202010100000000000000000000000000000000000000000000000000",
      "output": "0x7d971612020101000000000000000000000000000000000000000000000000a9",
      "subtraces": 0,
      "traceAddress": [1]
    },
    {
      "type": "STATICCALL",
      "from": "0x862a8fb429195d735106c06c4e352e305d8c7b31",
      "to": "0x47fca35c6fab9e90a1ccf2630941ff64866fd3d2",
      "gas": "0x21c01",
      "gasUsed": "0x300c",
      "input": "0xd0d3bdb2000000000000000000000000000000000000000000000000000000000000000000000000000000000000000000000000000000000000000000000000009a587a0000000000000000000000000000000000000000000000000000000000000000000000000000000000000000000000000000000000000000000000000005b84a7d971612020101000000000000000000000000000000000000000000000000a900000000000000000000000000000000000000000000000000000000000000c00000000000000000000000000000000000000000000000000000000000000160c5d2460186f7233c927e7db2dcc703c0e500b653ca82273b7bfad8045d85a4700000000000000000000000000000000000000000000000000000000000000000000000000000000000000000000000000000000000000000000000003b9aca0000000000000000000000000000000000000000000000000000000000000000800000000000000000000000000000000000000000000000000000000000000003000000000000000000000000d8246f9c6cc0f006de446ab90a787942ceaead74000000000000000000000000000000000000000000000000000000000000de9200000000000000000000000000000000000000000000000000000000000000000000000000000000000000000000000000000000000000000000000000000000000000000000000000000000d8246f9c6cc0f006de446ab90a787942ceaead740000000000000000000000000000000000000000000000000000000000008f88",
      "output": "0x00000000000000000000000000000000000000000000000000000000000000600000000000000000000000000000000000000000000000000000000000000000c5d2460186f7233c927e7db2dcc703c0e500b653ca82273b7bfad8045d85a4700000000000000000000000000000000000000000000000000000000000000001000000000000000000000000d8246f9c6cc0f006de446ab90a787942ceaead740000000000000000000000000000000000000000000000000000000000016e1a0000000000000000000000000000000000000000000000000000000026be368a00000000000000000000000000000000000000000000000000000000000007d000000000000000000000000000000000000000000000000000000000000000000000000000000000000000000000000000000000000000000000000000000000",
      "subtraces": 1,
      "traceAddress": [2]
    },
    {
      "type": "STATICCALL",
      "from": "0x47fca35c6fab9e90a1ccf2630941ff64866fd3d2",
      "to": "0x862a8fb429195d735106c06c4e352e305d8c7b31",
      "gas": "0x202d2",
      "gasUsed": "0xa08",
      "input": "0x24e12cd4c5d2460186f7233c927e7db2dcc703c0e500b653ca82273b7bfad8045d85a470",
      "output": "0x0000000000000000000000000000000000000000000000000000000000000000",
      "subtraces": 0,
      "traceAddress": [2, 0]
    },
    {
      "type": "STATICCALL",
      "from": "0x862a8fb429195d735106c06c4e352e305d8c7b31",
      "to": "0xd8246f9c6cc0f006de446ab90a787942ceaead74",
      "gas": "0x1e4d2",
      "gasUsed": "0xdf9",
      "input": "0x86db93f07d971612020101000000000000000000000000000000000000000000000000a900000000000000000000000047fca35c6fab9e90a1ccf2630941ff64866fd3d2",
      "output": "0x",
      "subtraces": 1,
      "traceAddress": [3]
    },
    {
      "type": "DELEGATECALL",
      "from": "0xd8246f9c6cc0f006de446ab90a787942ceaead74",
      "to": "0xb09da8d74d593e946ab1a2eaaeac6dad44992c25",
      "gas": "0x1dc6d",
      "gasUsed": "0xcf0",
      "input": "0x86db93f07d971612020101000000000000000000000000000000000000000000000000a900000000000000000000000047fca35c6fab9e90a1ccf2630941ff64866fd3d2",
      "output": "0x",
      "subtraces": 1,
      "traceAddress": [3, 0]
    },
    {
      "type": "DELEGATECALL",
      "from": "0xd8246f9c6cc0f006de446ab90a787942ceaead74",
      "to": "0x72ee41f7faf00d234db1b4dde361e944bef87ead",
      "gas": "0x1d37f",
      "gasUsed": "0xb4a",
      "input": "0x86db93f07d971612020101000000000000000000000000000000000000000000000000a900000000000000000000000047fca35c6fab9e90a1ccf2630941ff64866fd3d2",
      "output": "0x",
      "subtraces": 3,
      "traceAddress": [3, 0, 0]
    },
    {
      "type": "STATICCALL",
      "from": "0xd8246f9c6cc0f006de446ab90a787942ceaead74",
      "to": "0xd8246f9c6cc0f006de446ab90a787942ceaead74",
      "gas": "0x1caed",
      "gasUsed": "0x59",
      "input": "0x02d05d3f",
      "output": "0x0000000000000000000000003628be9e0befe4406cdfca72e51d40d3902b9a22",
      "subtraces": 0,
      "traceAddress": [3, 0, 0, 0]
    },
    {
      "type": "STATICCALL",
      "from": "0xd8246f9c6cc0f006de446ab90a787942ceaead74",
      "to": "0x3628be9e0befe4406cdfca72e51d40d3902b9a22",
      "gas": "0x1c990",
      "gasUsed": "0x36c",
      "input": "0x0e6d1de9",
      "output": "0x00000000000000000000000001ba3b382efdc10e9acc8a08f3bb26334f553239",
      "subtraces": 1,
      "traceAddress": [3, 0, 0, 1]
    },
    {
      "type": "DELEGATECALL",
      "from": "0x3628be9e0befe4406cdfca72e51d40d3902b9a22",
      "to": "0xe8572102fa6ae172df00634d5262e56ee283c134",
      "gas": "0x1c0b9",
      "gasUsed": "0x18e",
      "input": "0x0e6d1de9",
      "output": "0x00000000000000000000000001ba3b382efdc10e9acc8a08f3bb26334f553239",
      "subtraces": 0,
      "traceAddress": [3, 0, 0, 1, 0]
    },
    {
      "type": "DELEGATECALL",
      "from": "0xd8246f9c6cc0f006de446ab90a787942ceaead74",
      "to": "0x01ba3b382efdc10e9acc8a08f3bb26334f553239",
      "gas": "0x1c562",
      "gasUsed": "0x43c",
      "input": "0x86db93f07d971612020101000000000000000000000000000000000000000000000000a900000000000000000000000047fca35c6fab9e90a1ccf2630941ff64866fd3d2",
      "output": "0x",
      "subtraces": 0,
      "traceAddress": [3, 0, 0, 2]
    },
    {
      "type": "STATICCALL",
      "from": "0x862a8fb429195d735106c06c4e352e305d8c7b31",
      "to": "0x47fca35c6fab9e90a1ccf2630941ff64866fd3d2",
      "gas": "0x18e92",
      "gasUsed": "0x416",
      "input": "0xa985970400000000000000000000000000000000000000000000000000000000000000010000000000000000000000000000000000000000000000000000000000000ac40000000000000000000000000000000000000000000000000000000000000000",
      "output": "0x000000000000000000000000000000000000000000000000000000000000d4d6",
      "subtraces": 0,
      "traceAddress": [4]
    }
  ],
  "assetChanges": [
    {
      "assetInfo": {
        "standard": "ERC20",
        "contractAddress": "0xdc31ee1784292379fbb2964b3b9c4124d8f89c60"
      },
      "type": "Transfer",
      "from": "0xd8246f9c6cc0f006de446ab90a787942ceaead74",
      "to": "0x37f8cf234e6f629a681def0692d25c6857d8ecbf",
      "rawAmount": "0x53444835ec580000"
    }
  ],
  "balanceChanges": [
    {
      "address": "0x37f8cf234e6f629a681def0692d25c6857d8ecbf",
      "dollarValue": "0",
      "transfers": [0]
    },
    {
      "address": "0xd8246f9c6cc0f006de446ab90a787942ceaead74",
      "dollarValue": "0",
      "transfers": [0]
    }
  ]
}
