{
  "status": true,
  "gasUsed": "0x82878",
  "cumulativeGasUsed": "0x0",
  "blockNumber": "0x9c0c70",
  "type": "0x0",
  "logsBloom": "0x400020000000000040200000000000000000000000040000000100000000000000000010000000000000080000000000000000000000000c0000020000000000000000100400000000004018000000000000000000000000000000008000000000000000020100000010000000000880000000000000000248000010000000000000000000002000000002000000000000000001000000000020000000000001000000000000000000000002000000420000000000000200000000000000000020004002208000000000000000000008800000000800002000000000000020000000000000000010000000008000000000000000000400400000000000000000",
  "logs": [
    {
      "name": "",
      "anonymous": false,
      "inputs": null,
      "raw": {
        "address": "0x38b5249ec6529f19aee7ce2c650cadd407a78ed7",
        "topics": [
          "0x88c6460cd7091ad3c8bd1623f14728cacc7a57cb16ee4b7887126b1db3435a0c",
          "0x7d971612020101000000000000000000000000000000000000000000000001ed",
          "0x57c2f750cd208906d8df9d3639c3cde53d5d523206a6a181f63b193f9c60242c"
        ],
        "data": "0x000000000000000000000000000000000000000000000000000000000000000900000000000000000000000000000000000000000000000000000000657ee7bb00000000000000000000000000000000000000000000000000000000657ee5cc00000000000000000000000000000000000000000000000000000000657ee5cc00000000000000000000000000000000000000000000000000000000657ee5cc000000000000000000000000000000000000000000000000000000000000000100000000000000000000000000000000000000000000000000000000000000017d97161202010100000000000000000000000000000000000000000000000000000000000000000000000000000000000000000000000000000000000000000000000000000000000000000000000000000000000000000000000000000000000000000000000000000000000000000000000000000000000000000000000000000000000000000000000000000000000000000000000000000000000000000000000000000000000000000000000000000000000000000000000000657ee5cc"
      }
    },
    {
      "name": "",
      "anonymous": false,
      "inputs": null,
      "raw": {
        "address": "0x9f8cc08fc5293d76a0d8b3b0924742fc36a1301c",
        "topics": [
          "0x3a48c1ec2337406c590a8fa1aefe827430d6c1623e3715936e47fc8fa5299412",
          "0x7d971612020101000000000000000000000000000000000000000000000001ed",
          "0x000000000000000000000000235ab23038540e6aa289f3f6d775f76600c5f9c9"
        ],
        "data": "0x0000000000000000000000000000000000000000000000000000000000000001"
      }
    },
    {
      "name": "",
      "anonymous": false,
      "inputs": null,
      "raw": {
        "address": "0x9f8cc08fc5293d76a0d8b3b0924742fc36a1301c",
        "topics": [
          "0x3a48c1ec2337406c590a8fa1aefe827430d6c1623e3715936e47fc8fa5299412",
          "0x7d971612020101000000000000000000000000000000000000000000000001ed",
          "0x000000000000000000000000235ab23038540e6aa289f3f6d775f76600c5f9c9"
        ],
        "data": "0x0000000000000000000000000000000000000000000000000000000000000002"
      }
    },
    {
      "name": "",
      "anonymous": false,
      "inputs": null,
      "raw": {
        "address": "0x9f8cc08fc5293d76a0d8b3b0924742fc36a1301c",
        "topics": [
          "0x4270bc8453a68d7cab756e480b343ddc1330eed51f2b0de785f5957efc1e4b2f",
          "0x7d971612020101000000000000000000000000000000000000000000000001ed",
          "0x000000000000000000000000235ab23038540e6aa289f3f6d775f76600c5f9c9"
        ],
        "data": "0x0000000000000000000000000000000000000000000000000000000000000003"
      }
    },
    {
      "name": "",
      "anonymous": false,
      "inputs": null,
      "raw": {
        "address": "0x9f8cc08fc5293d76a0d8b3b0924742fc36a1301c",
        "topics": [
          "0x3a48c1ec2337406c590a8fa1aefe827430d6c1623e3715936e47fc8fa5299412",
          "0x7d971612020101000000000000000000000000000000000000000000000001ed",
          "0x000000000000000000000000235ab23038540e6aa289f3f6d775f76600c5f9c9"
        ],
        "data": "0x0000000000000000000000000000000000000000000000000000000000000004"
      }
    },
    {
      "name": "Deposit",
      "anonymous": false,
      "inputs": [
        {
          "value": "0x235ab23038540e6aa289f3f6d775f76600c5f9c9",
          "type": "address",
          "name": "dst"
        },
        {
          "value": "48392333333333333",
          "type": "uint256",
          "name": "wad"
        }
      ],
      "raw": {
        "address": "0xb4fbf271143f4fbf7b91a5ded31805e42b2208d6",
        "topics": [
          "0xe1fffcc4923d04b559f4d29a8bfc6cda04eb5b0d3c460751c2402c5c5cc9109c",
          "0x000000000000000000000000235ab23038540e6aa289f3f6d775f76600c5f9c9"
        ],
        "data": "0x00000000000000000000000000000000000000000000000000abec921e2f8555"
      }
    },
    {
      "name": "",
      "anonymous": false,
      "inputs": null,
      "raw": {
        "address": "0x9f8cc08fc5293d76a0d8b3b0924742fc36a1301c",
        "topics": [
          "0x3a48c1ec2337406c590a8fa1aefe827430d6c1623e3715936e47fc8fa5299412",
          "0x7d971612020101000000000000000000000000000000000000000000000001ed",
          "0x000000000000000000000000235ab23038540e6aa289f3f6d775f76600c5f9c9"
        ],
        "data": "0x0000000000000000000000000000000000000000000000000000000000000005"
      }
    },
    {
      "name": "Transfer",
      "anonymous": false,
      "inputs": [
        {
          "value": "0x235ab23038540e6aa289f3f6d775f76600c5f9c9",
          "type": "address",
          "name": "src"
        },
        {
          "value": "0xf88c0381d3a276e90725f46cb9cb3a6ceaaea500",
          "type": "address",
          "name": "dst"
        },
        {
          "value": "48392333333333333",
          "type": "uint256",
          "name": "wad"
        }
      ],
      "raw": {
        "address": "0xb4fbf271143f4fbf7b91a5ded31805e42b2208d6",
        "topics": [
          "0xddf252ad1be2c89b69c2b068fc378daa952ba7f163c4a11628f55a4df523b3ef",
          "0x000000000000000000000000235ab23038540e6aa289f3f6d775f76600c5f9c9",
          "0x000000000000000000000000f88c0381d3a276e90725f46cb9cb3a6ceaaea500"
        ],
        "data": "0x00000000000000000000000000000000000000000000000000abec921e2f8555"
      }
    },
    {
      "name": "",
      "anonymous": false,
      "inputs": null,
      "raw": {
        "address": "0x9f8cc08fc5293d76a0d8b3b0924742fc36a1301c",
        "topics": [
          "0x3a48c1ec2337406c590a8fa1aefe827430d6c1623e3715936e47fc8fa5299412",
          "0x7d971612020101000000000000000000000000000000000000000000000001ed",
          "0x000000000000000000000000235ab23038540e6aa289f3f6d775f76600c5f9c9"
        ],
        "data": "0x0000000000000000000000000000000000000000000000000000000000000006"
      }
    },
    {
      "name": "",
      "anonymous": false,
      "inputs": null,
      "raw": {
        "address": "0x862a8fb429195d735106c06c4e352e305d8c7b31",
        "topics": [
          "0x57a285d11c52114e1c932af91ce610073cb95f99c6126bf75c6a59b3846e0d6a",
          "0x7d971612020101000000000000000000000000000000000000000000000001ed",
          "0x000000000000000000000000235ab23038540e6aa289f3f6d775f76600c5f9c9",
          "0x0000000000000000000000000000000000000000000000000000000000000000"
        ],
        "data": "0x00000000000000000000000000000000000000000000000000000000000000010000000000000000000000000000000000000000000000000f97ac9c12b88ba000000000000000000000000000000000000000000000000000000000000000000000000000000000000000000000000000000000000000000003fdde5d33e58400000000000000000000000000000000000000000000000002c34347ea357ba000000000000000000000000000000000000000000000000001c75c347fad2180"
      }
    },
    {
      "name": "",
      "anonymous": false,
      "inputs": null,
      "raw": {
        "address": "0x862a8fb429195d735106c06c4e352e305d8c7b31",
        "topics": [
          "0xdd236dbbae4d9b3e1c5bb780751a96188a7a4b7fce23dabc0c752dd73543b07d",
          "0x0000000000000000000000004c508dc4a3aacbecbf13c1d543b4936274033110",
          "0x0000000000000000000000004c508dc4a3aacbecbf13c1d543b4936274033110",
          "0x7d971612020101000000000000000000000000000000000000000000000001ed"
        ],
        "data": "0x00000000000000000000000074bedf05d528f6f2409b326eddc86793acbcc6cb00000000000000000000000000000000000000000000000000000000000000000000000000000000000000000000000000000000000000000000000000000000000000000000000000000000000000000000000000000000000000000000000000000000000000000000000000000000000000000000000001c75c347fad21800000000000000000000000000000000000000000000000000dd05067930b6a20000000000000000000000000000000000000000000000000000000000004c8e50000000000000000000000000000000000000000000000000000000000035d3e0000000000000000000000000000000000000000000000000f97ac9c12b88ba00000000000000000000000000000000000000000000000000003fdde5d33e58400000000000000000000000000000000000000000000000000000000000000000000000000000000000000000000000000000000000000000000b50f2d08c1ea000000000000000000000000000000000000000000000000000074927c081bf0000000000000000000000000000000000000000000000000000000000e4e1c1c00000000000000000000000000000000000000000000000000000000657ee5cc"
      }
    }
  ],
  "trace": [
    {
      "type": "CALL",
      "from": "0x4c508dc4a3aacbecbf13c1d543b4936274033110",
      "to": "0x862a8fb429195d735106c06c4e352e305d8c7b31",
      "gas": "0x92f5e",
      "gasUsed": "0x779c0",
      "value": "0x0",
      "input": "0x58cdbf8e00000000000000000000000000000000000000000000000000000000000000400000000000000000000000004c508dc4a3aacbecbf13c1d543b493627403311000000000000000000000000000000000000000000000000000000000000017847d971612020101000000000000000000000000000000000000000000000000000000000000000000000000000000000000000000000000000000000000000000000000a0000000000000000000000000000000000000000000000000000000000000000000000000000000000000000000000000000000000000000000000000000000000000000000000000000000004c508dc4a3aacbecbf13c1d543b49362740331101cdb00180097a9cc15e6416d2f85d29256f980dbe16180fba79889c214149343bd063e0002010100000000000000657ee7bb00657ee56300000000e9a15e120ced871acab563f90dfb624bd82d16e0f1101f65775c400f5d8a99343494aaf7789a9661f35444be43c97445d6a5402bafe26eefbabded6a15389dcae7dd06f78a831db8657ab7ff15c62e55404c7cff05a6121dc231070ffe5977eb8f59f547e2c5d2460186f7233c927e7db2dcc703c0e500b653ca82273b7bfad8045d85a470d97628755011d53450aa83b28b0109b1867f0ba90c9e0df9f9414acf3c51b2fbc5d2460186f7233c927e7db2dcc703c0e500b653ca82273b7bfad8045d85a470000000000000000000000000000000000000000000000000000000000000000000000000000000000000000000000000000000000000000000000000000001e000000000000000000000000000000000000000000000000000000000000013c000000000000000000000000000000000000000000000000000000000000014a000000000000000000000000000000000000000000000000000000000000014c000000000000000000000000000000000000000000000000000000000000014e000000000000000000000000000000000000000000000000000000000000016000000000000000000000000000000000000000000000000000000000000000009000000000000000000000000000000000000000000000000000000000000012000000000000000000000000000000000000000000000000000000000000002e0000000000000000000000000000000000000000000000000000000000000052000000000000000000000000000000000000000000000000000000000000006c000000000000000000000000000000000000000000000000000000000000009000000000000000000000000000000000000000000000000000000000000000aa00000000000000000000000000000000000000000000000000000000000000c800000000000000000000000000000000000000000000000000000000000000e400000000000000000000000000000000000000000000000000000000000001020563353152b72caec87ea576e7931f997600aafd210ea9556c5f6cb281be262c8c5d2460186f7233c927e7db2dcc703c0e500b653ca82273b7bfad8045d85a4704d2301cc40c7231177e1e2453baa0b7164ef57fe9c76f9d8da0c40f4376dc22e00000000000000000000000000000000000000000000000000000000000000000000000000000000000000000000000000000000000000000100010001675011000000000000000000000000235ab23038540e6aa289f3f6d775f76600c5f9c90000000000000000000000005ba1e12693dc8f9c48aad8770482f4739beed6960000000000000000000000000000000000000000000000000000000000000140000000000000000000000000000000000000000000000000000000000000018000000000000000000000000000000000000000000000000000000000000001a00000000000000000000000000000000000000000000000000000000000000020000000000000000000000000235ab23038540e6aa289f3f6d775f76600c5f9c9000000000000000000000000000000000000000000000000000000000000000000000000000000000000000000000000000000000000000000000000000000005236bf897f22146dca59ce9e6f6961f34a7820121b9fc9c03c7a4f17f2748de4c5d2460186f7233c927e7db2dcc703c0e500b653ca82273b7bfad8045d85a470e3933c96814c8392c88757dc5d591df8109c71bade64aaf6a54757cbee15cb6100000000000000000000000000000000000000000000000000000000000000000000000000000000000000000000000000000000000000000200020001085011000000000000000000000000235ab23038540e6aa289f3f6d775f76600c5f9c9000000000000000000000000254fb98e8943faf0f732477c4de6af7a1dd7fd2d00000000000000000000000000000000000000000000000000000000000001400000000000000000000000000000000000000000000000000000000000000200000000000000000000000000000000000000000000000000000000000000022000000000000000000000000000000000000000000000000000000000000000a0000000000000000000000000fd00000000000000000000000000000000000001000000000000000000000000000000000000000000000000000000000000001200000000000000000000000000000000000000000000000029a2241af62c00000000000000000000000000000000000000000000000000000000000000000012000000000000000000000000000000000000000000000000000000000000001200000000000000000000000000000000000000000000000000000000000000000000000000000000000000000000000000000000000000000000000000000000aec57a5a5d19bd1e4b5bf609987a118fa1d1e00fbc4de6c6ae9fca2d26268745c5d2460186f7233c927e7db2dcc703c0e500b653ca82273b7bfad8045d85a470c5d2460186f7233c927e7db2dcc703c0e500b653ca82273b7bfad8045d85a470000000000000000000000000fd00000000000000000000000000000000000002000000000000000000000000000000000000020000000300030003000074fe00000000000000000000000000235ab23038540e6aa289f3f6d775f76600c5f9c9000000000000000000000000f88c0381d3a276e90725f46cb9cb3a6ceaaea500000000000000000000000000000000000000000000000000000000000000014000000000000000000000000000000000000000000000000000000000000001600000000000000000000000000000000000000000000000000000000000000180000000000000000000000000000000000000000000000000000000000000000000000000000000000000000000000000000000000000000000000000000000000000000000000000000000000000000000000000000000000000000000000000dde1434121afe346093f9ae47ebaaabdd9fc7dd59a2bba149b89ec4e4d74558cc5d2460186f7233c927e7db2dcc703c0e500b653ca82273b7bfad8045d85a470fed05b8a820264c9791ca90101855273c095e62f92494d6a9a52e4552adf21c500000000000000000000000000000000000000000000000000000000000000000000000000000000000000000000000100000000000000000400040001077111000000000000000000000000235ab23038540e6aa289f3f6d775f76600c5f9c9000000000000000000000000254fb98e8943faf0f732477c4de6af7a1dd7fd2d00000000000000000000000000000000000000000000000000000000000001400000000000000000000000000000000000000000000000000000000000000200000000000000000000000000000000000000000000000000000000000000022000000000000000000000000000000000000000000000000000000000000000a0000000000000000000000000fd00000000000000000000000000000000000001000000000000000000000000000000000000000000000000000000000000001200000000000000000000000000000000000000000000000029a2241af62c0000000000000000000000000000000000000000000000000000000000000000001200000000000000000000000000000000000000000000000000000000000000120000000000000000000000000000000000000000000000000000000000000000000000000000000000000000000000000000000000000000000000000000000071a7da2409d11c69db412d6b93d66b2fd13fb5f8b6c9dc47ce206fd7beb47182c5d2460186f7233c927e7db2dcc703c0e500b653ca82273b7bfad8045d85a470d0e30db03f2e24c6531d8ae2f6c09d8e7a6ad7f7e87a81cb75dfda61c9d83286000000000000000000000000fd000000000000000000000000000000000000040000000000000000000000000000000000000000000000000500050001338f00000000000000000000000000235ab23038540e6aa289f3f6d775f76600c5f9c9000000000000000000000000b4fbf271143f4fbf7b91a5ded31805e42b2208d6000000000000000000000000000000000000000000000000000000000000014000000000000000000000000000000000000000000000000000000000000001600000000000000000000000000000000000000000000000000000000000000180000000000000000000000000000000000000000000000000000000000000000000000000000000000000000000000000000000000000000000000000000000000000000000000000000000000000000000000000000000000000000000000000b7846b694f59ffe4d245b15ad5509805c70823546ff6e7a14b2235b8fda6ec21c5d2460186f7233c927e7db2dcc703c0e500b653ca82273b7bfad8045d85a470a9059cbb2ab09eb219583f4a59a5d0623ade346d962bcd4e46b11da047c9049b00000000000000000000000000000000000000000000000000000000000000000000000000000000000000000000000000000600000000000600060001389e04000000000000000000000000235ab23038540e6aa289f3f6d775f76600c5f9c9000000000000000000000000b4fbf271143f4fbf7b91a5ded31805e42b2208d6000000000000000000000000000000000000000000000000000000000000014000000000000000000000000000000000000000000000000000000000000001a000000000000000000000000000000000000000000000000000000000000001c00000000000000000000000000000000000000000000000000000000000000040000000000000000000000000f88c0381d3a276e90725f46cb9cb3a6ceaaea500000000000000000000000000fd000000000000000000000000000000000000040000000000000000000000000000000000000000000000000000000000000000000000000000000000000000000000000000000000000000000000000000000042f82b06e30df2cf75f547f5b39e4654574186c83495244f5c4b235638d48dadc5d2460186f7233c927e7db2dcc703c0e500b653ca82273b7bfad8045d85a47070a08231b98ef4ca268c9cc3f6b4590e4bfec28280db06bb5d45e689f2a360be00000000000000000000000000000000000000000000000000000000000000000000000000000000000000000000000200000200010000000700070000960011000000000000000000000000235ab23038540e6aa289f3f6d775f76600c5f9c9000000000000000000000000b4fbf271143f4fbf7b91a5ded31805e42b2208d60000000000000000000000000000000000000000000000000000000000000140000000000000000000000000000000000000000000000000000000000000018000000000000000000000000000000000000000000000000000000000000001a00000000000000000000000000000000000000000000000000000000000000020000000000000000000000000235ab23038540e6aa289f3f6d775f76600c5f9c900000000000000000000000000000000000000000000000000000000000000000000000000000000000000000000000000000000000000000000000000000000c8eaf3de2c2d2d24a72be94ed5f7b4788115f9c0ed81770c7e6cc6437400135ac5d2460186f7233c927e7db2dcc703c0e500b653ca82273b7bfad8045d85a470a9059cbb2ab09eb219583f4a59a5d0623ade346d962bcd4e46b11da047c9049b00000000000000000000000000000000000000000000000000000000000000000000000000000000000000000000000000000600000000000800080000bd1004000000000000000000000000235ab23038540e6aa289f3f6d775f76600c5f9c9000000000000000000000000b4fbf271143f4fbf7b91a5ded31805e42b2208d6000000000000000000000000000000000000000000000000000000000000014000000000000000000000000000000000000000000000000000000000000001a000000000000000000000000000000000000000000000000000000000000001c00000000000000000000000000000000000000000000000000000000000000040000000000000000000000000f88c0381d3a276e90725f46cb9cb3a6ceaaea500000000000000000000000000fd0000000000000000000000000000000000000700000000000000000000000000000000000000000000000000000000000000000000000000000000000000000000000000000000000000000000000000000000632335077c69be66bff708adc00798eab51ef8deeef59eba7dad1bcd15e06980c5d2460186f7233c927e7db2dcc703c0e500b653ca82273b7bfad8045d85a470c5d2460186f7233c927e7db2dcc703c0e500b653ca82273b7bfad8045d85a470000000000000000000000000fe00000000000000000000000000000000000001000000000000000000000000000000000000060000000000090009000074fe00000000000000000000000000235ab23038540e6aa289f3f6d775f76600c5f9c9000000000000000000000000f88c0381d3a276e90725f46cb9cb3a6ceaaea500000000000000000000000000000000000000000000000000000000000000014000000000000000000000000000000000000000000000000000000000000001600000000000000000000000000000000000000000000000000000000000000180000000000000000000000000000000000000000000000000000000000000000000000000000000000000000000000000000000000000000000000000000000000000000000000000000000000000000000000000000000000000000000000000000000000000000000000000000000000000000000000000000000000000000202af3e8394b10ae0d088691860108d377c509053c402a68a47d264cfa8a34a8b67e96cb80ed245231368a83b464103dc634a7d095827c03a18c8e00fe867e77d000000000000000000000000000000000000000000000000000000000000001cf6429d2959997c1bfb255e21d9b0187e504a3fd8bacfceee05956d9414695c5f68f3771b859d6fcf4dbb651c4e2b1e9952d07aa19787fa477f9d7fa5e7512a2d000000000000000000000000000000000000000000000000000000000000001c0000000000000000000000000000000000000000000000000000000000000000000000000000000000000000000000000000000000000000000000000000000000000000000000000000000000000000000000000000000000000000000000010000000000000000000000000000000000000000000000000000000000000001000000000000000000000000fd00000000000000000000000000000000000007000000000000000000000000000000000000000000000000000000000000000400000000000000000000000000000000000000000000000000000000000000000000000000000000000000000000000000000000000000000000000000000000fba9715e477e68952d3f1df7a185b3708aadad50ec10cc793973864023868527728b8dbbe730d9acd55e30e768e6a28a04bea0c61b88108287c2c87d79c98bb8728b8dbbe730d9acd55e30e768e6a28a04bea0c61b88108287c2c87d79c98bb800000000000000000000000000000000000000000000000000000000000000020000000000000000000000000000000000000000000000000853a0d2313c0000027985bb9adcd63812b3261472d0e29605c6c369d278c8a43093a573d698c5eb000000000000000000000000fd00000000000000000000000000000000000004000000000000000000000000fd00000000000000000000000000000000000007027985bb9adcd63812b3261472d0e29605c6c369d278c8a43093a573d698c5eb000000000000000000000000000000000000000000000000000000000000000200000000000000000000000000000000000000000000000000000000",
      "output": "0x0000000000000000000000000000000000000000000000000000000000000000",
      "subtraces": 5,
      "traceAddress": []
    },
    {
      "type": "CALL",
      "from": "0x862a8fb429195d735106c06c4e352e305d8c7b31",
      "to": "0x38b5249ec6529f19aee7ce2c650cadd407a78ed7",
      "gas": "0x8e84d",
      "gasUsed": "0x60238",
      "value": "0x0",
      "input": "0x7d971612020101000000000000000000000000000000000000000000000000000000000000000000000000000000000000000000000000000000000000000000000000a0000000000000000000000000000000000000000000000000000000000000000000000000000000000000000000000000000000000000000000000000000000000000000000000000000000004c508dc4a3aacbecbf13c1d543b49362740331101cdb00180097a9cc15e6416d2f85d29256f980dbe16180fba79889c214149343bd063e0002010100000000000000657ee7bb00657ee56300000000e9a15e120ced871acab563f90dfb624bd82d16e0f1101f65775c400f5d8a99343494aaf7789a9661f35444be43c97445d6a5402bafe26eefbabded6a15389dcae7dd06f78a831db8657ab7ff15c62e55404c7cff05a6121dc231070ffe5977eb8f59f547e2c5d2460186f7233c927e7db2dcc703c0e500b653ca82273b7bfad8045d85a470d97628755011d53450aa83b28b0109b1867f0ba90c9e0df9f9414acf3c51b2fbc5d2460186f7233c927e7db2dcc703c0e500b653ca82273b7bfad8045d85a470000000000000000000000000000000000000000000000000000000000000000000000000000000000000000000000000000000000000000000000000000001e000000000000000000000000000000000000000000000000000000000000013c000000000000000000000000000000000000000000000000000000000000014a000000000000000000000000000000000000000000000000000000000000014c000000000000000000000000000000000000000000000000000000000000014e000000000000000000000000000000000000000000000000000000000000016000000000000000000000000000000000000000000000000000000000000000009000000000000000000000000000000000000000000000000000000000000012000000000000000000000000000000000000000000000000000000000000002e0000000000000000000000000000000000000000000000000000000000000052000000000000000000000000000000000000000000000000000000000000006c000000000000000000000000000000000000000000000000000000000000009000000000000000000000000000000000000000000000000000000000000000aa00000000000000000000000000000000000000000000000000000000000000c800000000000000000000000000000000000000000000000000000000000000e400000000000000000000000000000000000000000000000000000000000001020563353152b72caec87ea576e7931f997600aafd210ea9556c5f6cb281be262c8c5d2460186f7233c927e7db2dcc703c0e500b653ca82273b7bfad8045d85a4704d2301cc40c7231177e1e2453baa0b7164ef57fe9c76f9d8da0c40f4376dc22e00000000000000000000000000000000000000000000000000000000000000000000000000000000000000000000000000000000000000000100010001675011000000000000000000000000235ab23038540e6aa289f3f6d775f76600c5f9c90000000000000000000000005ba1e12693dc8f9c48aad8770482f4739beed6960000000000000000000000000000000000000000000000000000000000000140000000000000000000000000000000000000000000000000000000000000018000000000000000000000000000000000000000000000000000000000000001a00000000000000000000000000000000000000000000000000000000000000020000000000000000000000000235ab23038540e6aa289f3f6d775f76600c5f9c9000000000000000000000000000000000000000000000000000000000000000000000000000000000000000000000000000000000000000000000000000000005236bf897f22146dca59ce9e6f6961f34a7820121b9fc9c03c7a4f17f2748de4c5d2460186f7233c927e7db2dcc703c0e500b653ca82273b7bfad8045d85a470e3933c96814c8392c88757dc5d591df8109c71bade64aaf6a54757cbee15cb6100000000000000000000000000000000000000000000000000000000000000000000000000000000000000000000000000000000000000000200020001085011000000000000000000000000235ab23038540e6aa289f3f6d775f76600c5f9c9000000000000000000000000254fb98e8943faf0f732477c4de6af7a1dd7fd2d00000000000000000000000000000000000000000000000000000000000001400000000000000000000000000000000000000000000000000000000000000200000000000000000000000000000000000000000000000000000000000000022000000000000000000000000000000000000000000000000000000000000000a0000000000000000000000000fd00000000000000000000000000000000000001000000000000000000000000000000000000000000000000000000000000001200000000000000000000000000000000000000000000000029a2241af62c00000000000000000000000000000000000000000000000000000000000000000012000000000000000000000000000000000000000000000000000000000000001200000000000000000000000000000000000000000000000000000000000000000000000000000000000000000000000000000000000000000000000000000000aec57a5a5d19bd1e4b5bf609987a118fa1d1e00fbc4de6c6ae9fca2d26268745c5d2460186f7233c927e7db2dcc703c0e500b653ca82273b7bfad8045d85a470c5d2460186f7233c927e7db2dcc703c0e500b653ca82273b7bfad8045d85a470000000000000000000000000fd00000000000000000000000000000000000002000000000000000000000000000000000000020000000300030003000074fe00000000000000000000000000235ab23038540e6aa289f3f6d775f76600c5f9c9000000000000000000000000f88c0381d3a276e90725f46cb9cb3a6ceaaea500000000000000000000000000000000000000000000000000000000000000014000000000000000000000000000000000000000000000000000000000000001600000000000000000000000000000000000000000000000000000000000000180000000000000000000000000000000000000000000000000000000000000000000000000000000000000000000000000000000000000000000000000000000000000000000000000000000000000000000000000000000000000000000000000dde1434121afe346093f9ae47ebaaabdd9fc7dd59a2bba149b89ec4e4d74558cc5d2460186f7233c927e7db2dcc703c0e500b653ca82273b7bfad8045d85a470fed05b8a820264c9791ca90101855273c095e62f92494d6a9a52e4552adf21c500000000000000000000000000000000000000000000000000000000000000000000000000000000000000000000000100000000000000000400040001077111000000000000000000000000235ab23038540e6aa289f3f6d775f76600c5f9c9000000000000000000000000254fb98e8943faf0f732477c4de6af7a1dd7fd2d00000000000000000000000000000000000000000000000000000000000001400000000000000000000000000000000000000000000000000000000000000200000000000000000000000000000000000000000000000000000000000000022000000000000000000000000000000000000000000000000000000000000000a0000000000000000000000000fd00000000000000000000000000000000000001000000000000000000000000000000000000000000000000000000000000001200000000000000000000000000000000000000000000000029a2241af62c0000000000000000000000000000000000000000000000000000000000000000001200000000000000000000000000000000000000000000000000000000000000120000000000000000000000000000000000000000000000000000000000000000000000000000000000000000000000000000000000000000000000000000000071a7da2409d11c69db412d6b93d66b2fd13fb5f8b6c9dc47ce206fd7beb47182c5d2460186f7233c927e7db2dcc703c0e500b653ca82273b7bfad8045d85a470d0e30db03f2e24c6531d8ae2f6c09d8e7a6ad7f7e87a81cb75dfda61c9d83286000000000000000000000000fd000000000000000000000000000000000000040000000000000000000000000000000000000000000000000500050001338f00000000000000000000000000235ab23038540e6aa289f3f6d775f76600c5f9c9000000000000000000000000b4fbf271143f4fbf7b91a5ded31805e42b2208d6000000000000000000000000000000000000000000000000000000000000014000000000000000000000000000000000000000000000000000000000000001600000000000000000000000000000000000000000000000000000000000000180000000000000000000000000000000000000000000000000000000000000000000000000000000000000000000000000000000000000000000000000000000000000000000000000000000000000000000000000000000000000000000000000b7846b694f59ffe4d245b15ad5509805c70823546ff6e7a14b2235b8fda6ec21c5d2460186f7233c927e7db2dcc703c0e500b653ca82273b7bfad8045d85a470a9059cbb2ab09eb219583f4a59a5d0623ade346d962bcd4e46b11da047c9049b00000000000000000000000000000000000000000000000000000000000000000000000000000000000000000000000000000600000000000600060001389e04000000000000000000000000235ab23038540e6aa289f3f6d775f76600c5f9c9000000000000000000000000b4fbf271143f4fbf7b91a5ded31805e42b2208d6000000000000000000000000000000000000000000000000000000000000014000000000000000000000000000000000000000000000000000000000000001a000000000000000000000000000000000000000000000000000000000000001c00000000000000000000000000000000000000000000000000000000000000040000000000000000000000000f88c0381d3a276e90725f46cb9cb3a6ceaaea500000000000000000000000000fd000000000000000000000000000000000000040000000000000000000000000000000000000000000000000000000000000000000000000000000000000000000000000000000000000000000000000000000042f82b06e30df2cf75f547f5b39e4654574186c83495244f5c4b235638d48dadc5d2460186f7233c927e7db2dcc703c0e500b653ca82273b7bfad8045d85a47070a08231b98ef4ca268c9cc3f6b4590e4bfec28280db06bb5d45e689f2a360be00000000000000000000000000000000000000000000000000000000000000000000000000000000000000000000000200000200010000000700070000960011000000000000000000000000235ab23038540e6aa289f3f6d775f76600c5f9c9000000000000000000000000b4fbf271143f4fbf7b91a5ded31805e42b2208d60000000000000000000000000000000000000000000000000000000000000140000000000000000000000000000000000000000000000000000000000000018000000000000000000000000000000000000000000000000000000000000001a00000000000000000000000000000000000000000000000000000000000000020000000000000000000000000235ab23038540e6aa289f3f6d775f76600c5f9c900000000000000000000000000000000000000000000000000000000000000000000000000000000000000000000000000000000000000000000000000000000c8eaf3de2c2d2d24a72be94ed5f7b4788115f9c0ed81770c7e6cc6437400135ac5d2460186f7233c927e7db2dcc703c0e500b653ca82273b7bfad8045d85a470a9059cbb2ab09eb219583f4a59a5d0623ade346d962bcd4e46b11da047c9049b00000000000000000000000000000000000000000000000000000000000000000000000000000000000000000000000000000600000000000800080000bd1004000000000000000000000000235ab23038540e6aa289f3f6d775f76600c5f9c9000000000000000000000000b4fbf271143f4fbf7b91a5ded31805e42b2208d6000000000000000000000000000000000000000000000000000000000000014000000000000000000000000000000000000000000000000000000000000001a000000000000000000000000000000000000000000000000000000000000001c00000000000000000000000000000000000000000000000000000000000000040000000000000000000000000f88c0381d3a276e90725f46cb9cb3a6ceaaea500000000000000000000000000fd0000000000000000000000000000000000000700000000000000000000000000000000000000000000000000000000000000000000000000000000000000000000000000000000000000000000000000000000632335077c69be66bff708adc00798eab51ef8deeef59eba7dad1bcd15e06980c5d2460186f7233c927e7db2dcc703c0e500b653ca82273b7bfad8045d85a470c5d2460186f7233c927e7db2dcc703c0e500b653ca82273b7bfad8045d85a470000000000000000000000000fe00000000000000000000000000000000000001000000000000000000000000000000000000060000000000090009000074fe00000000000000000000000000235ab23038540e6aa289f3f6d775f76600c5f9c9000000000000000000000000f88c0381d3a276e90725f46cb9cb3a6ceaaea500000000000000000000000000000000000000000000000000000000000000014000000000000000000000000000000000000000000000000000000000000001600000000000000000000000000000000000000000000000000000000000000180000000000000000000000000000000000000000000000000000000000000000000000000000000000000000000000000000000000000000000000000000000000000000000000000000000000000000000000000000000000000000000000000000000000000000000000000000000000000000000000000000000000000000202af3e8394b10ae0d088691860108d377c509053c402a68a47d264cfa8a34a8b67e96cb80ed245231368a83b464103dc634a7d095827c03a18c8e00fe867e77d000000000000000000000000000000000000000000000000000000000000001cf6429d2959997c1bfb255e21d9b0187e504a3fd8bacfceee05956d9414695c5f68f3771b859d6fcf4dbb651c4e2b1e9952d07aa19787fa477f9d7fa5e7512a2d000000000000000000000000000000000000000000000000000000000000001c0000000000000000000000000000000000000000000000000000000000000000000000000000000000000000000000000000000000000000000000000000000000000000000000000000000000000000000000000000000000000000000000010000000000000000000000000000000000000000000000000000000000000001000000000000000000000000fd00000000000000000000000000000000000007000000000000000000000000000000000000000000000000000000000000000400000000000000000000000000000000000000000000000000000000000000000000000000000000000000000000000000000000000000000000000000000000fba9715e477e68952d3f1df7a185b3708aadad50ec10cc793973864023868527728b8dbbe730d9acd55e30e768e6a28a04bea0c61b88108287c2c87d79c98bb8728b8dbbe730d9acd55e30e768e6a28a04bea0c61b88108287c2c87d79c98bb800000000000000000000000000000000000000000000000000000000000000020000000000000000000000000000000000000000000000000853a0d2313c0000027985bb9adcd63812b3261472d0e29605c6c369d278c8a43093a573d698c5eb000000000000000000000000fd00000000000000000000000000000000000004000000000000000000000000fd00000000000000000000000000000000000007027985bb9adcd63812b3261472d0e29605c6c369d278c8a43093a573d698c5eb0000000000000000000000000000000000000000000000000000000000000002",
      "output": "0xc5d2460186f7233c927e7db2dcc703c0e500b653ca82273b7bfad8045d85a470000000000000000000000000000000000000000000000000000000000000000000000000000000000000000000000000000000000000000000000000e9a15e1200000000000000000000000000000000000000000000000000000000000000800000000000000000000000000000000000000000000000000000000000000009000000000000000000000000235ab23038540e6aa289f3f6d775f76600c5f9c9000000000000000000000000000000000000000000000000000000000000cbde000000000000000000000000235ab23038540e6aa289f3f6d775f76600c5f9c900000000000000000000000000000000000000000000000000000000000075ab000000000000000000000000235ab23038540e6aa289f3f6d775f76600c5f9c900000000000000000000000000000000000000000000000000000000000072d8000000000000000000000000235ab23038540e6aa289f3f6d775f76600c5f9c90000000000000000000000000000000000000000000000000000000000007680000000000000000000000000235ab23038540e6aa289f3f6d775f76600c5f9c90000000000000000000000000000000000000000000000000000000000008c76000000000000000000000000235ab23038540e6aa289f3f6d775f76600c5f9c9000000000000000000000000000000000000000000000000000000000000810a000000000000000000000000000000000000000000000000000000000000000000000000000000000000000000000000000000000000000000000000000000000000000000000000000000000000000000000000000000000000000000000000000000000000000000000000000000000000000000000000000000000000000000000000000000000000000000000000000000000000000000000000000000000000000000000000000000000000000000000000000000000000000000000000",
      "subtraces": 1,
      "traceAddress": [
        0
      ]
    },
    {
      "type": "CALL",
      "from": "0x38b5249ec6529f19aee7ce2c650cadd407a78ed7",
      "to": "0x9f8cc08fc5293d76a0d8b3b0924742fc36a1301c",
      "gas": "0x838b8",
      "gasUsed": "0x57265",
      "value": "0x0",
      "input": "0x7d971612020101000000000000000000000000000000000000000000000000000000000000000000000000000000000000000000000000000000000000000000000000a0000000000000000000000000000000000000000000000000000000000000000000000000000000000000000000000000000000000000000000000000000000000000000000000000000000004c508dc4a3aacbecbf13c1d543b49362740331101cdb00180097a9cc15e6416d2f85d29256f980dbe16180fba79889c214149343bd063e0002010100000000000000657ee7bb00657ee56300000000e9a15e120ced871acab563f90dfb624bd82d16e0f1101f65775c400f5d8a99343494aaf7789a9661f35444be43c97445d6a5402bafe26eefbabded6a15389dcae7dd06f78a831db8657ab7ff15c62e55404c7cff05a6121dc231070ffe5977eb8f59f547e2c5d2460186f7233c927e7db2dcc703c0e500b653ca82273b7bfad8045d85a470d97628755011d53450aa83b28b0109b1867f0ba90c9e0df9f9414acf3c51b2fbc5d2460186f7233c927e7db2dcc703c0e500b653ca82273b7bfad8045d85a470000000000000000000000000000000000000000000000000000000000000000000000000000000000000000000000000000000000000000000000000000001e000000000000000000000000000000000000000000000000000000000000013c000000000000000000000000000000000000000000000000000000000000014a000000000000000000000000000000000000000000000000000000000000014c000000000000000000000000000000000000000000000000000000000000014e000000000000000000000000000000000000000000000000000000000000016000000000000000000000000000000000000000000000000000000000000000009000000000000000000000000000000000000000000000000000000000000012000000000000000000000000000000000000000000000000000000000000002e0000000000000000000000000000000000000000000000000000000000000052000000000000000000000000000000000000000000000000000000000000006c000000000000000000000000000000000000000000000000000000000000009000000000000000000000000000000000000000000000000000000000000000aa00000000000000000000000000000000000000000000000000000000000000c800000000000000000000000000000000000000000000000000000000000000e400000000000000000000000000000000000000000000000000000000000001020563353152b72caec87ea576e7931f997600aafd210ea9556c5f6cb281be262c8c5d2460186f7233c927e7db2dcc703c0e500b653ca82273b7bfad8045d85a4704d2301cc40c7231177e1e2453baa0b7164ef57fe9c76f9d8da0c40f4376dc22e00000000000000000000000000000000000000000000000000000000000000000000000000000000000000000000000000000000000000000100010001675011000000000000000000000000235ab23038540e6aa289f3f6d775f76600c5f9c90000000000000000000000005ba1e12693dc8f9c48aad8770482f4739beed6960000000000000000000000000000000000000000000000000000000000000140000000000000000000000000000000000000000000000000000000000000018000000000000000000000000000000000000000000000000000000000000001a00000000000000000000000000000000000000000000000000000000000000020000000000000000000000000235ab23038540e6aa289f3f6d775f76600c5f9c9000000000000000000000000000000000000000000000000000000000000000000000000000000000000000000000000000000000000000000000000000000005236bf897f22146dca59ce9e6f6961f34a7820121b9fc9c03c7a4f17f2748de4c5d2460186f7233c927e7db2dcc703c0e500b653ca82273b7bfad8045d85a470e3933c96814c8392c88757dc5d591df8109c71bade64aaf6a54757cbee15cb6100000000000000000000000000000000000000000000000000000000000000000000000000000000000000000000000000000000000000000200020001085011000000000000000000000000235ab23038540e6aa289f3f6d775f76600c5f9c9000000000000000000000000254fb98e8943faf0f732477c4de6af7a1dd7fd2d00000000000000000000000000000000000000000000000000000000000001400000000000000000000000000000000000000000000000000000000000000200000000000000000000000000000000000000000000000000000000000000022000000000000000000000000000000000000000000000000000000000000000a0000000000000000000000000fd00000000000000000000000000000000000001000000000000000000000000000000000000000000000000000000000000001200000000000000000000000000000000000000000000000029a2241af62c00000000000000000000000000000000000000000000000000000000000000000012000000000000000000000000000000000000000000000000000000000000001200000000000000000000000000000000000000000000000000000000000000000000000000000000000000000000000000000000000000000000000000000000aec57a5a5d19bd1e4b5bf609987a118fa1d1e00fbc4de6c6ae9fca2d26268745c5d2460186f7233c927e7db2dcc703c0e500b653ca82273b7bfad8045d85a470c5d2460186f7233c927e7db2dcc703c0e500b653ca82273b7bfad8045d85a470000000000000000000000000fd00000000000000000000000000000000000002000000000000000000000000000000000000020000000300030003000074fe00000000000000000000000000235ab23038540e6aa289f3f6d775f76600c5f9c9000000000000000000000000f88c0381d3a276e90725f46cb9cb3a6ceaaea500000000000000000000000000000000000000000000000000000000000000014000000000000000000000000000000000000000000000000000000000000001600000000000000000000000000000000000000000000000000000000000000180000000000000000000000000000000000000000000000000000000000000000000000000000000000000000000000000000000000000000000000000000000000000000000000000000000000000000000000000000000000000000000000000dde1434121afe346093f9ae47ebaaabdd9fc7dd59a2bba149b89ec4e4d74558cc5d2460186f7233c927e7db2dcc703c0e500b653ca82273b7bfad8045d85a470fed05b8a820264c9791ca90101855273c095e62f92494d6a9a52e4552adf21c500000000000000000000000000000000000000000000000000000000000000000000000000000000000000000000000100000000000000000400040001077111000000000000000000000000235ab23038540e6aa289f3f6d775f76600c5f9c9000000000000000000000000254fb98e8943faf0f732477c4de6af7a1dd7fd2d00000000000000000000000000000000000000000000000000000000000001400000000000000000000000000000000000000000000000000000000000000200000000000000000000000000000000000000000000000000000000000000022000000000000000000000000000000000000000000000000000000000000000a0000000000000000000000000fd00000000000000000000000000000000000001000000000000000000000000000000000000000000000000000000000000001200000000000000000000000000000000000000000000000029a2241af62c0000000000000000000000000000000000000000000000000000000000000000001200000000000000000000000000000000000000000000000000000000000000120000000000000000000000000000000000000000000000000000000000000000000000000000000000000000000000000000000000000000000000000000000071a7da2409d11c69db412d6b93d66b2fd13fb5f8b6c9dc47ce206fd7beb47182c5d2460186f7233c927e7db2dcc703c0e500b653ca82273b7bfad8045d85a470d0e30db03f2e24c6531d8ae2f6c09d8e7a6ad7f7e87a81cb75dfda61c9d83286000000000000000000000000fd000000000000000000000000000000000000040000000000000000000000000000000000000000000000000500050001338f00000000000000000000000000235ab23038540e6aa289f3f6d775f76600c5f9c9000000000000000000000000b4fbf271143f4fbf7b91a5ded31805e42b2208d6000000000000000000000000000000000000000000000000000000000000014000000000000000000000000000000000000000000000000000000000000001600000000000000000000000000000000000000000000000000000000000000180000000000000000000000000000000000000000000000000000000000000000000000000000000000000000000000000000000000000000000000000000000000000000000000000000000000000000000000000000000000000000000000000b7846b694f59ffe4d245b15ad5509805c70823546ff6e7a14b2235b8fda6ec21c5d2460186f7233c927e7db2dcc703c0e500b653ca82273b7bfad8045d85a470a9059cbb2ab09eb219583f4a59a5d0623ade346d962bcd4e46b11da047c9049b00000000000000000000000000000000000000000000000000000000000000000000000000000000000000000000000000000600000000000600060001389e04000000000000000000000000235ab23038540e6aa289f3f6d775f76600c5f9c9000000000000000000000000b4fbf271143f4fbf7b91a5ded31805e42b2208d6000000000000000000000000000000000000000000000000000000000000014000000000000000000000000000000000000000000000000000000000000001a000000000000000000000000000000000000000000000000000000000000001c00000000000000000000000000000000000000000000000000000000000000040000000000000000000000000f88c0381d3a276e90725f46cb9cb3a6ceaaea500000000000000000000000000fd000000000000000000000000000000000000040000000000000000000000000000000000000000000000000000000000000000000000000000000000000000000000000000000000000000000000000000000042f82b06e30df2cf75f547f5b39e4654574186c83495244f5c4b235638d48dadc5d2460186f7233c927e7db2dcc703c0e500b653ca82273b7bfad8045d85a47070a08231b98ef4ca268c9cc3f6b4590e4bfec28280db06bb5d45e689f2a360be00000000000000000000000000000000000000000000000000000000000000000000000000000000000000000000000200000200010000000700070000960011000000000000000000000000235ab23038540e6aa289f3f6d775f76600c5f9c9000000000000000000000000b4fbf271143f4fbf7b91a5ded31805e42b2208d60000000000000000000000000000000000000000000000000000000000000140000000000000000000000000000000000000000000000000000000000000018000000000000000000000000000000000000000000000000000000000000001a00000000000000000000000000000000000000000000000000000000000000020000000000000000000000000235ab23038540e6aa289f3f6d775f76600c5f9c900000000000000000000000000000000000000000000000000000000000000000000000000000000000000000000000000000000000000000000000000000000c8eaf3de2c2d2d24a72be94ed5f7b4788115f9c0ed81770c7e6cc6437400135ac5d2460186f7233c927e7db2dcc703c0e500b653ca82273b7bfad8045d85a470a9059cbb2ab09eb219583f4a59a5d0623ade346d962bcd4e46b11da047c9049b00000000000000000000000000000000000000000000000000000000000000000000000000000000000000000000000000000600000000000800080000bd1004000000000000000000000000235ab23038540e6aa289f3f6d775f76600c5f9c9000000000000000000000000b4fbf271143f4fbf7b91a5ded31805e42b2208d6000000000000000000000000000000000000000000000000000000000000014000000000000000000000000000000000000000000000000000000000000001a000000000000000000000000000000000000000000000000000000000000001c00000000000000000000000000000000000000000000000000000000000000040000000000000000000000000f88c0381d3a276e90725f46cb9cb3a6ceaaea500000000000000000000000000fd0000000000000000000000000000000000000700000000000000000000000000000000000000000000000000000000000000000000000000000000000000000000000000000000000000000000000000000000632335077c69be66bff708adc00798eab51ef8deeef59eba7dad1bcd15e06980c5d2460186f7233c927e7db2dcc703c0e500b653ca82273b7bfad8045d85a470c5d2460186f7233c927e7db2dcc703c0e500b653ca82273b7bfad8045d85a470000000000000000000000000fe00000000000000000000000000000000000001000000000000000000000000000000000000060000000000090009000074fe00000000000000000000000000235ab23038540e6aa289f3f6d775f76600c5f9c9000000000000000000000000f88c0381d3a276e90725f46cb9cb3a6ceaaea500000000000000000000000000000000000000000000000000000000000000014000000000000000000000000000000000000000000000000000000000000001600000000000000000000000000000000000000000000000000000000000000180000000000000000000000000000000000000000000000000000000000000000000000000000000000000000000000000000000000000000000000000000000000000000000000000000000000000000000000000000000000000000000000000000000000000000000000000000000000000000000000000000000000000000202af3e8394b10ae0d088691860108d377c509053c402a68a47d264cfa8a34a8b67e96cb80ed245231368a83b464103dc634a7d095827c03a18c8e00fe867e77d000000000000000000000000000000000000000000000000000000000000001cf6429d2959997c1bfb255e21d9b0187e504a3fd8bacfceee05956d9414695c5f68f3771b859d6fcf4dbb651c4e2b1e9952d07aa19787fa477f9d7fa5e7512a2d000000000000000000000000000000000000000000000000000000000000001c0000000000000000000000000000000000000000000000000000000000000000000000000000000000000000000000000000000000000000000000000000000000000000000000000000000000000000000000000000000000000000000000010000000000000000000000000000000000000000000000000000000000000001000000000000000000000000fd00000000000000000000000000000000000007000000000000000000000000000000000000000000000000000000000000000400000000000000000000000000000000000000000000000000000000000000000000000000000000000000000000000000000000000000000000000000000000fba9715e477e68952d3f1df7a185b3708aadad50ec10cc793973864023868527728b8dbbe730d9acd55e30e768e6a28a04bea0c61b88108287c2c87d79c98bb8728b8dbbe730d9acd55e30e768e6a28a04bea0c61b88108287c2c87d79c98bb800000000000000000000000000000000000000000000000000000000000000020000000000000000000000000000000000000000000000000853a0d2313c0000027985bb9adcd63812b3261472d0e29605c6c369d278c8a43093a573d698c5eb000000000000000000000000fd00000000000000000000000000000000000004000000000000000000000000fd00000000000000000000000000000000000007027985bb9adcd63812b3261472d0e29605c6c369d278c8a43093a573d698c5eb0000000000000000000000000000000000000000000000000000000000000002",
      "output": "0xc5d2460186f7233c927e7db2dcc703c0e500b653ca82273b7bfad8045d85a470000000000000000000000000000000000000000000000000000000000000000000000000000000000000000000000000000000000000000000000000e9a15e1200000000000000000000000000000000000000000000000000000000000000800000000000000000000000000000000000000000000000000000000000000009000000000000000000000000235ab23038540e6aa289f3f6d775f76600c5f9c9000000000000000000000000000000000000000000000000000000000000cbde000000000000000000000000235ab23038540e6aa289f3f6d775f76600c5f9c900000000000000000000000000000000000000000000000000000000000075ab000000000000000000000000235ab23038540e6aa289f3f6d775f76600c5f9c900000000000000000000000000000000000000000000000000000000000072d8000000000000000000000000235ab23038540e6aa289f3f6d775f76600c5f9c90000000000000000000000000000000000000000000000000000000000007680000000000000000000000000235ab23038540e6aa289f3f6d775f76600c5f9c90000000000000000000000000000000000000000000000000000000000008c76000000000000000000000000235ab23038540e6aa289f3f6d775f76600c5f9c9000000000000000000000000000000000000000000000000000000000000810a000000000000000000000000000000000000000000000000000000000000000000000000000000000000000000000000000000000000000000000000000000000000000000000000000000000000000000000000000000000000000000000000000000000000000000000000000000000000000000000000000000000000000000000000000000000000000000000000000000000000000000000000000000000000000000000000000000000000000000000000000000000000000000000000",
      "subtraces": 8,
      "traceAddress": [
        0,
        0
      ]
    },
    {
      "type": "CALL",
      "from": "0x9f8cc08fc5293d76a0d8b3b0924742fc36a1301c",
      "to": "0x38b5249ec6529f19aee7ce2c650cadd407a78ed7",
      "gas": "0x6d6ef",
      "gasUsed": "0x9792",
      "value": "0x0",
      "input": "0x99b1dd477d97161202010100000000000000000000000000000000000000000000000000a3af47e32de5aa3b36ae30637cbd3f7a90addb16bddbb95915f68ccc3e4129e800000000000000000000000000000000000000000000000000000000657ee7bb0000000000000000000000000000000000000000000000000000000000000000000000000000000000000000000000000000000000000000000000000000000000000000000000000000000000000000000000000000000000000000000000000000000000000000000000000000000000000000000000000000000000000001000000000000000000000000000000000000000000000000000000000000000000000000000000000000000000000000000000000000000000000000000000010000000000000000000000000000000000000000000000000000000000000000000000000000000000000000000000000000000000000000000000000000000000000000000000000000000000000000000000000000000000000000000000000000000000000000000000000000000000000000000000000000000000000000",
      "output": "0x57c2f750cd208906d8df9d3639c3cde53d5d523206a6a181f63b193f9c60242c00000000000000000000000000000000000000000000000000000000000000007d971612020101000000000000000000000000000000000000000000000001ed",
      "subtraces": 0,
      "traceAddress": [
        0,
        0,
        0
      ]
    },
    {
      "type": "STATICCALL",
      "from": "0x9f8cc08fc5293d76a0d8b3b0924742fc36a1301c",
      "to": "0x542234c8183508108840a0430afe2f665ab87eaa",
      "gas": "0x60fbc",
      "gasUsed": "0x280",
      "input": "0xa4f8f9ddc5d2460186f7233c927e7db2dcc703c0e500b653ca82273b7bfad8045d85a470000000000000000000000000000000000000000000000000000000000000000000000000000000000000000000000000000000000000000000000000000000600000000000000000000000000000000000000000000000000000000000000002000000000000000000000000991e5e72d9acc110b1d8d2aa06c26931ee8cf330000000000000000000000000f88c0381d3a276e90725f46cb9cb3a6ceaaea500",
      "output": "0x",
      "subtraces": 0,
      "traceAddress": [
        0,
        0,
        1
      ]
    },
    {
      "type": "STATICCALL",
      "from": "0x9f8cc08fc5293d76a0d8b3b0924742fc36a1301c",
      "to": "0x235ab23038540e6aa289f3f6d775f76600c5f9c9",
      "gas": "0x16750",
      "gasUsed": "0x8a85",
      "input": "0x0496ce2a7d971612020101000000000000000000000000000000000000000000000001ed57c2f750cd208906d8df9d3639c3cde53d5d523206a6a181f63b193f9c60242c000000000000000000000000000000000000000000000000000000000000008000000000000000000000000000000000000000000000000000000000000001a00000000000000000000000005ba1e12693dc8f9c48aad8770482f4739beed696c5d2460186f7233c927e7db2dcc703c0e500b653ca82273b7bfad8045d85a4700000000000000000000000000000000000000000000000000000000000000000bd063e0002010100000000000000657ee7bb00657ee56300000000e9a15e120c000000000000000000000000000000000000000000000000010001000167501100000000000000000000000000000000000000000000000000000000000000c000000000000000000000000000000000000000000000000000000000000000244d2301cc000000000000000000000000235ab23038540e6aa289f3f6d775f76600c5f9c9000000000000000000000000000000000000000000000000000000000000000000000000000000000000000000000000000000000000000000000002000000000000000000000000991e5e72d9acc110b1d8d2aa06c26931ee8cf330000000000000000000000000f88c0381d3a276e90725f46cb9cb3a6ceaaea500",
      "output": "0x0000000000000000000000000000000000000000000000000000000000000001000000000000000000000000000000000000000000000000000000000000004000000000000000000000000000000000000000000000000000000000000000200000000000000000000000000000000000000000000000000203c5b65a8e9000",
      "subtraces": 1,
      "traceAddress": [
        0,
        0,
        2
      ]
    },
    {
      "type": "DELEGATECALL",
      "from": "0x235ab23038540e6aa289f3f6d775f76600c5f9c9",
      "to": "0xb09da8d74d593e946ab1a2eaaeac6dad44992c25",
      "gas": "0x156f1",
      "gasUsed": "0x7f58",
      "input": "0x0496ce2a7d971612020101000000000000000000000000000000000000000000000001ed57c2f750cd208906d8df9d3639c3cde53d5d523206a6a181f63b193f9c60242c000000000000000000000000000000000000000000000000000000000000008000000000000000000000000000000000000000000000000000000000000001a00000000000000000000000005ba1e12693dc8f9c48aad8770482f4739beed696c5d2460186f7233c927e7db2dcc703c0e500b653ca82273b7bfad8045d85a4700000000000000000000000000000000000000000000000000000000000000000bd063e0002010100000000000000657ee7bb00657ee56300000000e9a15e120c000000000000000000000000000000000000000000000000010001000167501100000000000000000000000000000000000000000000000000000000000000c000000000000000000000000000000000000000000000000000000000000000244d2301cc000000000000000000000000235ab23038540e6aa289f3f6d775f76600c5f9c9000000000000000000000000000000000000000000000000000000000000000000000000000000000000000000000000000000000000000000000002000000000000000000000000991e5e72d9acc110b1d8d2aa06c26931ee8cf330000000000000000000000000f88c0381d3a276e90725f46cb9cb3a6ceaaea500",
      "output": "0x0000000000000000000000000000000000000000000000000000000000000001000000000000000000000000000000000000000000000000000000000000004000000000000000000000000000000000000000000000000000000000000000200000000000000000000000000000000000000000000000000203c5b65a8e9000",
      "subtraces": 1,
      "traceAddress": [
        0,
        0,
        2,
        0
      ]
    },
    {
      "type": "DELEGATECALL",
      "from": "0x235ab23038540e6aa289f3f6d775f76600c5f9c9",
      "to": "0x72ee41f7faf00d234db1b4dde361e944bef87ead",
      "gas": "0x13e78",
      "gasUsed": "0x6bbe",
      "input": "0x0496ce2a7d971612020101000000000000000000000000000000000000000000000001ed57c2f750cd208906d8df9d3639c3cde53d5d523206a6a181f63b193f9c60242c000000000000000000000000000000000000000000000000000000000000008000000000000000000000000000000000000000000000000000000000000001a00000000000000000000000005ba1e12693dc8f9c48aad8770482f4739beed696c5d2460186f7233c927e7db2dcc703c0e500b653ca82273b7bfad8045d85a4700000000000000000000000000000000000000000000000000000000000000000bd063e0002010100000000000000657ee7bb00657ee56300000000e9a15e120c000000000000000000000000000000000000000000000000010001000167501100000000000000000000000000000000000000000000000000000000000000c000000000000000000000000000000000000000000000000000000000000000244d2301cc000000000000000000000000235ab23038540e6aa289f3f6d775f76600c5f9c9000000000000000000000000000000000000000000000000000000000000000000000000000000000000000000000000000000000000000000000002000000000000000000000000991e5e72d9acc110b1d8d2aa06c26931ee8cf330000000000000000000000000f88c0381d3a276e90725f46cb9cb3a6ceaaea500",
      "output": "0x0000000000000000000000000000000000000000000000000000000000000001000000000000000000000000000000000000000000000000000000000000004000000000000000000000000000000000000000000000000000000000000000200000000000000000000000000000000000000000000000000203c5b65a8e9000",
      "subtraces": 3,
      "traceAddress": [
        0,
        0,
        2,
        0,
        0
      ]
    },
    {
      "type": "STATICCALL",
      "from": "0x235ab23038540e6aa289f3f6d775f76600c5f9c9",
      "to": "0x235ab23038540e6aa289f3f6d775f76600c5f9c9",
      "gas": "0x1383a",
      "gasUsed": "0x59",
      "input": "0x02d05d3f",
      "output": "0x0000000000000000000000003628be9e0befe4406cdfca72e51d40d3902b9a22",
      "subtraces": 0,
      "traceAddress": [
        0,
        0,
        2,
        0,
        0,
        0
      ]
    },
    {
      "type": "STATICCALL",
      "from": "0x235ab23038540e6aa289f3f6d775f76600c5f9c9",
      "to": "0x3628be9e0befe4406cdfca72e51d40d3902b9a22",
      "gas": "0x12d40",
      "gasUsed": "0x1cd0",
      "input": "0x0e6d1de9",
      "output": "0x00000000000000000000000001ba3b382efdc10e9acc8a08f3bb26334f553239",
      "subtraces": 1,
      "traceAddress": [
        0,
        0,
        2,
        0,
        0,
        1
      ]
    },
    {
      "type": "DELEGATECALL",
      "from": "0x3628be9e0befe4406cdfca72e51d40d3902b9a22",
      "to": "0xe8572102fa6ae172df00634d5262e56ee283c134",
      "gas": "0x1158d",
      "gasUsed": "0x95e",
      "input": "0x0e6d1de9",
      "output": "0x00000000000000000000000001ba3b382efdc10e9acc8a08f3bb26334f553239",
      "subtraces": 0,
      "traceAddress": [
        0,
        0,
        2,
        0,
        0,
        1,
        0
      ]
    },
    {
      "type": "DELEGATECALL",
      "from": "0x235ab23038540e6aa289f3f6d775f76600c5f9c9",
      "to": "0x01ba3b382efdc10e9acc8a08f3bb26334f553239",
      "gas": "0x1062a",
      "gasUsed": "0x376a",
      "input": "0x0496ce2a7d971612020101000000000000000000000000000000000000000000000001ed57c2f750cd208906d8df9d3639c3cde53d5d523206a6a181f63b193f9c60242c000000000000000000000000000000000000000000000000000000000000008000000000000000000000000000000000000000000000000000000000000001a00000000000000000000000005ba1e12693dc8f9c48aad8770482f4739beed696c5d2460186f7233c927e7db2dcc703c0e500b653ca82273b7bfad8045d85a4700000000000000000000000000000000000000000000000000000000000000000bd063e0002010100000000000000657ee7bb00657ee56300000000e9a15e120c000000000000000000000000000000000000000000000000010001000167501100000000000000000000000000000000000000000000000000000000000000c000000000000000000000000000000000000000000000000000000000000000244d2301cc000000000000000000000000235ab23038540e6aa289f3f6d775f76600c5f9c9000000000000000000000000000000000000000000000000000000000000000000000000000000000000000000000000000000000000000000000002000000000000000000000000991e5e72d9acc110b1d8d2aa06c26931ee8cf330000000000000000000000000f88c0381d3a276e90725f46cb9cb3a6ceaaea500",
      "output": "0x0000000000000000000000000000000000000000000000000000000000000001000000000000000000000000000000000000000000000000000000000000004000000000000000000000000000000000000000000000000000000000000000200000000000000000000000000000000000000000000000000203c5b65a8e9000",
      "subtraces": 3,
      "traceAddress": [
        0,
        0,
        2,
        0,
        0,
        2
      ]
    },
    {
      "type": "STATICCALL",
      "from": "0x235ab23038540e6aa289f3f6d775f76600c5f9c9",
      "to": "0x38b5249ec6529f19aee7ce2c650cadd407a78ed7",
      "gas": "0xfdb9",
      "gasUsed": "0x385",
      "input": "0x9a0e776b7d971612020101000000000000000000000000000000000000000000000001ed0000000000000000000000009f8cc08fc5293d76a0d8b3b0924742fc36a1301cc5d2460186f7233c927e7db2dcc703c0e500b653ca82273b7bfad8045d85a4700000000000000000000000005ba1e12693dc8f9c48aad8770482f4739beed696",
      "output": "0x0000000000000000000000005ba1e12693dc8f9c48aad8770482f4739beed6960000000000000000000000000000000000000000000000000000000000000000",
      "subtraces": 0,
      "traceAddress": [
        0,
        0,
        2,
        0,
        0,
        2,
        0
      ]
    },
    {
      "type": "STATICCALL",
      "from": "0x235ab23038540e6aa289f3f6d775f76600c5f9c9",
      "to": "0x235ab23038540e6aa289f3f6d775f76600c5f9c9",
      "gas": "0xf833",
      "gasUsed": "0x59",
      "input": "0x02d05d3f",
      "output": "0x0000000000000000000000003628be9e0befe4406cdfca72e51d40d3902b9a22",
      "subtraces": 0,
      "traceAddress": [
        0,
        0,
        2,
        0,
        0,
        2,
        1
      ]
    },
    {
      "type": "STATICCALL",
      "from": "0x235ab23038540e6aa289f3f6d775f76600c5f9c9",
      "to": "0x5ba1e12693dc8f9c48aad8770482f4739beed696",
      "gas": "0xcfdc",
      "gasUsed": "0x238",
      "input": "0x4d2301cc000000000000000000000000235ab23038540e6aa289f3f6d775f76600c5f9c9",
      "decodedInput": [
        {
          "value": "0x235ab23038540e6aa289f3f6d775f76600c5f9c9",
          "type": "address",
          "name": "addr"
        }
      ],
      "method": "getEthBalance",
      "output": "0x0000000000000000000000000000000000000000000000000203c5b65a8e9000",
      "decodedOutput": [
        {
          "value": "145177000000000000",
          "type": "uint256",
          "name": "balance"
        }
      ],
      "subtraces": 0,
      "traceAddress": [
        0,
        0,
        2,
        0,
        0,
        2,
        2
      ]
    },
    {
      "type": "STATICCALL",
      "from": "0x9f8cc08fc5293d76a0d8b3b0924742fc36a1301c",
      "to": "0x235ab23038540e6aa289f3f6d775f76600c5f9c9",
      "gas": "0x10850",
      "gasUsed": "0x283a",
      "input": "0x0496ce2a7d971612020101000000000000000000000000000000000000000000000001ed57c2f750cd208906d8df9d3639c3cde53d5d523206a6a181f63b193f9c60242c00000000000000000000000000000000000000000000000000000000000000800000000000000000000000000000000000000000000000000000000000000220000000000000000000000000254fb98e8943faf0f732477c4de6af7a1dd7fd2dc5d2460186f7233c927e7db2dcc703c0e500b653ca82273b7bfad8045d85a4700000000000000000000000000000000000000000000000000000000000000000bd063e0002010100000000000000657ee7bb00657ee56300000000e9a15e120c000000000000000000000000000000000000000000000000020002000108501100000000000000000000000000000000000000000000000000000000000000c000000000000000000000000000000000000000000000000000000000000000a4e3933c960000000000000000000000000000000000000000000000000203c5b65a8e9000000000000000000000000000000000000000000000000000000000000000001200000000000000000000000000000000000000000000000029a2241af62c000000000000000000000000000000000000000000000000000000000000000000120000000000000000000000000000000000000000000000000000000000000012000000000000000000000000000000000000000000000000000000000000000000000000000000000000000000000000000000000000000000000002000000000000000000000000991e5e72d9acc110b1d8d2aa06c26931ee8cf330000000000000000000000000f88c0381d3a276e90725f46cb9cb3a6ceaaea500",
      "output": "0x000000000000000000000000000000000000000000000000000000000000000100000000000000000000000000000000000000000000000000000000000000400000000000000000000000000000000000000000000000000000000000000020000000000000000000000000000000000000000000000000060b51230fabb000",
      "subtraces": 1,
      "traceAddress": [
        0,
        0,
        3
      ]
    },
    {
      "type": "DELEGATECALL",
      "from": "0x235ab23038540e6aa289f3f6d775f76600c5f9c9",
      "to": "0xb09da8d74d593e946ab1a2eaaeac6dad44992c25",
      "gas": "0x102f2",
      "gasUsed": "0x26b9",
      "input": "0x0496ce2a7d971612020101000000000000000000000000000000000000000000000001ed57c2f750cd208906d8df9d3639c3cde53d5d523206a6a181f63b193f9c60242c00000000000000000000000000000000000000000000000000000000000000800000000000000000000000000000000000000000000000000000000000000220000000000000000000000000254fb98e8943faf0f732477c4de6af7a1dd7fd2dc5d2460186f7233c927e7db2dcc703c0e500b653ca82273b7bfad8045d85a4700000000000000000000000000000000000000000000000000000000000000000bd063e0002010100000000000000657ee7bb00657ee56300000000e9a15e120c000000000000000000000000000000000000000000000000020002000108501100000000000000000000000000000000000000000000000000000000000000c000000000000000000000000000000000000000000000000000000000000000a4e3933c960000000000000000000000000000000000000000000000000203c5b65a8e9000000000000000000000000000000000000000000000000000000000000000001200000000000000000000000000000000000000000000000029a2241af62c000000000000000000000000000000000000000000000000000000000000000000120000000000000000000000000000000000000000000000000000000000000012000000000000000000000000000000000000000000000000000000000000000000000000000000000000000000000000000000000000000000000002000000000000000000000000991e5e72d9acc110b1d8d2aa06c26931ee8cf330000000000000000000000000f88c0381d3a276e90725f46cb9cb3a6ceaaea500",
      "output": "0x000000000000000000000000000000000000000000000000000000000000000100000000000000000000000000000000000000000000000000000000000000400000000000000000000000000000000000000000000000000000000000000020000000000000000000000000000000000000000000000000060b51230fabb000",
      "subtraces": 1,
      "traceAddress": [
        0,
        0,
        3,
        0
      ]
    },
    {
      "type": "DELEGATECALL",
      "from": "0x235ab23038540e6aa289f3f6d775f76600c5f9c9",
      "to": "0x72ee41f7faf00d234db1b4dde361e944bef87ead",
      "gas": "0xfcff",
      "gasUsed": "0x249b",
      "input": "0x0496ce2a7d971612020101000000000000000000000000000000000000000000000001ed57c2f750cd208906d8df9d3639c3cde53d5d523206a6a181f63b193f9c60242c00000000000000000000000000000000000000000000000000000000000000800000000000000000000000000000000000000000000000000000000000000220000000000000000000000000254fb98e8943faf0f732477c4de6af7a1dd7fd2dc5d2460186f7233c927e7db2dcc703c0e500b653ca82273b7bfad8045d85a4700000000000000000000000000000000000000000000000000000000000000000bd063e0002010100000000000000657ee7bb00657ee56300000000e9a15e120c000000000000000000000000000000000000000000000000020002000108501100000000000000000000000000000000000000000000000000000000000000c000000000000000000000000000000000000000000000000000000000000000a4e3933c960000000000000000000000000000000000000000000000000203c5b65a8e9000000000000000000000000000000000000000000000000000000000000000001200000000000000000000000000000000000000000000000029a2241af62c000000000000000000000000000000000000000000000000000000000000000000120000000000000000000000000000000000000000000000000000000000000012000000000000000000000000000000000000000000000000000000000000000000000000000000000000000000000000000000000000000000000002000000000000000000000000991e5e72d9acc110b1d8d2aa06c26931ee8cf330000000000000000000000000f88c0381d3a276e90725f46cb9cb3a6ceaaea500",
      "output": "0x000000000000000000000000000000000000000000000000000000000000000100000000000000000000000000000000000000000000000000000000000000400000000000000000000000000000000000000000000000000000000000000020000000000000000000000000000000000000000000000000060b51230fabb000",
      "subtraces": 3,
      "traceAddress": [
        0,
        0,
        3,
        0,
        0
      ]
    },
    {
      "type": "STATICCALL",
      "from": "0x235ab23038540e6aa289f3f6d775f76600c5f9c9",
      "to": "0x235ab23038540e6aa289f3f6d775f76600c5f9c9",
      "gas": "0xf7c7",
      "gasUsed": "0x59",
      "input": "0x02d05d3f",
      "output": "0x0000000000000000000000003628be9e0befe4406cdfca72e51d40d3902b9a22",
      "subtraces": 0,
      "traceAddress": [
        0,
        0,
        3,
        0,
        0,
        0
      ]
    },
    {
      "type": "STATICCALL",
      "from": "0x235ab23038540e6aa289f3f6d775f76600c5f9c9",
      "to": "0x3628be9e0befe4406cdfca72e51d40d3902b9a22",
      "gas": "0xf66a",
      "gasUsed": "0x36c",
      "input": "0x0e6d1de9",
      "output": "0x00000000000000000000000001ba3b382efdc10e9acc8a08f3bb26334f553239",
      "subtraces": 1,
      "traceAddress": [
        0,
        0,
        3,
        0,
        0,
        1
      ]
    },
    {
      "type": "DELEGATECALL",
      "from": "0x3628be9e0befe4406cdfca72e51d40d3902b9a22",
      "to": "0xe8572102fa6ae172df00634d5262e56ee283c134",
      "gas": "0xf0e0",
      "gasUsed": "0x18e",
      "input": "0x0e6d1de9",
      "output": "0x00000000000000000000000001ba3b382efdc10e9acc8a08f3bb26334f553239",
      "subtraces": 0,
      "traceAddress": [
        0,
        0,
        3,
        0,
        0,
        1,
        0
      ]
    },
    {
      "type": "DELEGATECALL",
      "from": "0x235ab23038540e6aa289f3f6d775f76600c5f9c9",
      "to": "0x01ba3b382efdc10e9acc8a08f3bb26334f553239",
      "gas": "0xf1d8",
      "gasUsed": "0x1d1b",
      "input": "0x0496ce2a7d971612020101000000000000000000000000000000000000000000000001ed57c2f750cd208906d8df9d3639c3cde53d5d523206a6a181f63b193f9c60242c00000000000000000000000000000000000000000000000000000000000000800000000000000000000000000000000000000000000000000000000000000220000000000000000000000000254fb98e8943faf0f732477c4de6af7a1dd7fd2dc5d2460186f7233c927e7db2dcc703c0e500b653ca82273b7bfad8045d85a4700000000000000000000000000000000000000000000000000000000000000000bd063e0002010100000000000000657ee7bb00657ee56300000000e9a15e120c000000000000000000000000000000000000000000000000020002000108501100000000000000000000000000000000000000000000000000000000000000c000000000000000000000000000000000000000000000000000000000000000a4e3933c960000000000000000000000000000000000000000000000000203c5b65a8e9000000000000000000000000000000000000000000000000000000000000000001200000000000000000000000000000000000000000000000029a2241af62c000000000000000000000000000000000000000000000000000000000000000000120000000000000000000000000000000000000000000000000000000000000012000000000000000000000000000000000000000000000000000000000000000000000000000000000000000000000000000000000000000000000002000000000000000000000000991e5e72d9acc110b1d8d2aa06c26931ee8cf330000000000000000000000000f88c0381d3a276e90725f46cb9cb3a6ceaaea500",
      "output": "0x000000000000000000000000000000000000000000000000000000000000000100000000000000000000000000000000000000000000000000000000000000400000000000000000000000000000000000000000000000000000000000000020000000000000000000000000000000000000000000000000060b51230fabb000",
      "subtraces": 3,
      "traceAddress": [
        0,
        0,
        3,
        0,
        0,
        2
      ]
    },
    {
      "type": "STATICCALL",
      "from": "0x235ab23038540e6aa289f3f6d775f76600c5f9c9",
      "to": "0x38b5249ec6529f19aee7ce2c650cadd407a78ed7",
      "gas": "0xe9b8",
      "gasUsed": "0x385",
      "input": "0x9a0e776b7d971612020101000000000000000000000000000000000000000000000001ed0000000000000000000000009f8cc08fc5293d76a0d8b3b0924742fc36a1301cc5d2460186f7233c927e7db2dcc703c0e500b653ca82273b7bfad8045d85a470000000000000000000000000254fb98e8943faf0f732477c4de6af7a1dd7fd2d",
      "output": "0x000000000000000000000000254fb98e8943faf0f732477c4de6af7a1dd7fd2d0000000000000000000000000000000000000000000000000000000000000000",
      "subtraces": 0,
      "traceAddress": [
        0,
        0,
        3,
        0,
        0,
        2,
        0
      ]
    },
    {
      "type": "STATICCALL",
      "from": "0x235ab23038540e6aa289f3f6d775f76600c5f9c9",
      "to": "0x235ab23038540e6aa289f3f6d775f76600c5f9c9",
      "gas": "0xe432",
      "gasUsed": "0x59",
      "input": "0x02d05d3f",
      "output": "0x0000000000000000000000003628be9e0befe4406cdfca72e51d40d3902b9a22",
      "subtraces": 0,
      "traceAddress": [
        0,
        0,
        3,
        0,
        0,
        2,
        1
      ]
    },
    {
      "type": "STATICCALL",
      "from": "0x235ab23038540e6aa289f3f6d775f76600c5f9c9",
      "to": "0x254fb98e8943faf0f732477c4de6af7a1dd7fd2d",
      "gas": "0xda87",
      "gasUsed": "0x71a",
      "input": "0xe3933c960000000000000000000000000000000000000000000000000203c5b65a8e9000000000000000000000000000000000000000000000000000000000000000001200000000000000000000000000000000000000000000000029a2241af62c000000000000000000000000000000000000000000000000000000000000000000120000000000000000000000000000000000000000000000000000000000000012",
      "output": "0x000000000000000000000000000000000000000000000000060b51230fabb000",
      "subtraces": 0,
      "traceAddress": [
        0,
        0,
        3,
        0,
        0,
        2,
        2
      ]
    },
    {
      "type": "CALL",
      "from": "0x9f8cc08fc5293d76a0d8b3b0924742fc36a1301c",
      "to": "0x235ab23038540e6aa289f3f6d775f76600c5f9c9",
      "gas": "0x74fe",
      "gasUsed": "0x3a1b",
      "value": "0x0",
      "input": "0x0496ce2a7d971612020101000000000000000000000000000000000000000000000001ed57c2f750cd208906d8df9d3639c3cde53d5d523206a6a181f63b193f9c60242c00000000000000000000000000000000000000000000000000000000000000800000000000000000000000000000000000000000000000000000000000000160000000000000000000000000f88c0381d3a276e90725f46cb9cb3a6ceaaea500c5d2460186f7233c927e7db2dcc703c0e500b653ca82273b7bfad8045d85a470000000000000000000000000000000000000000000000000060b51230fabb000bd063e0002010100000000000000657ee7bb00657ee56300000000e9a15e120c000000000000000000000000000000000000020000000300030003000074fe0000000000000000000000000000000000000000000000000000000000000000c000000000000000000000000000000000000000000000000000000000000000000000000000000000000000000000000000000000000000000000000000000002000000000000000000000000991e5e72d9acc110b1d8d2aa06c26931ee8cf330000000000000000000000000f88c0381d3a276e90725f46cb9cb3a6ceaaea500",
      "output": "0x000000000000000000000000000000000000000000000000000000000000000000000000000000000000000000000000000000000000000000000000000000400000000000000000000000000000000000000000000000000000000000000000",
      "subtraces": 1,
      "traceAddress": [
        0,
        0,
        4
      ]
    },
    {
      "type": "DELEGATECALL",
      "from": "0x235ab23038540e6aa289f3f6d775f76600c5f9c9",
      "to": "0xb09da8d74d593e946ab1a2eaaeac6dad44992c25",
      "gas": "0x7211",
      "gasUsed": "0x38c1",
      "input": "0x0496ce2a7d971612020101000000000000000000000000000000000000000000000001ed57c2f750cd208906d8df9d3639c3cde53d5d523206a6a181f63b193f9c60242c00000000000000000000000000000000000000000000000000000000000000800000000000000000000000000000000000000000000000000000000000000160000000000000000000000000f88c0381d3a276e90725f46cb9cb3a6ceaaea500c5d2460186f7233c927e7db2dcc703c0e500b653ca82273b7bfad8045d85a470000000000000000000000000000000000000000000000000060b51230fabb000bd063e0002010100000000000000657ee7bb00657ee56300000000e9a15e120c000000000000000000000000000000000000020000000300030003000074fe0000000000000000000000000000000000000000000000000000000000000000c000000000000000000000000000000000000000000000000000000000000000000000000000000000000000000000000000000000000000000000000000000002000000000000000000000000991e5e72d9acc110b1d8d2aa06c26931ee8cf330000000000000000000000000f88c0381d3a276e90725f46cb9cb3a6ceaaea500",
      "output": "0x000000000000000000000000000000000000000000000000000000000000000000000000000000000000000000000000000000000000000000000000000000400000000000000000000000000000000000000000000000000000000000000000",
      "subtraces": 1,
      "traceAddress": [
        0,
        0,
        4,
        0
      ]
    },
    {
      "type": "DELEGATECALL",
      "from": "0x235ab23038540e6aa289f3f6d775f76600c5f9c9",
      "to": "0x72ee41f7faf00d234db1b4dde361e944bef87ead",
      "gas": "0x6e85",
      "gasUsed": "0x36ca",
      "input": "0x0496ce2a7d971612020101000000000000000000000000000000000000000000000001ed57c2f750cd208906d8df9d3639c3cde53d5d523206a6a181f63b193f9c60242c00000000000000000000000000000000000000000000000000000000000000800000000000000000000000000000000000000000000000000000000000000160000000000000000000000000f88c0381d3a276e90725f46cb9cb3a6ceaaea500c5d2460186f7233c927e7db2dcc703c0e500b653ca82273b7bfad8045d85a470000000000000000000000000000000000000000000000000060b51230fabb000bd063e0002010100000000000000657ee7bb00657ee56300000000e9a15e120c000000000000000000000000000000000000020000000300030003000074fe0000000000000000000000000000000000000000000000000000000000000000c000000000000000000000000000000000000000000000000000000000000000000000000000000000000000000000000000000000000000000000000000000002000000000000000000000000991e5e72d9acc110b1d8d2aa06c26931ee8cf330000000000000000000000000f88c0381d3a276e90725f46cb9cb3a6ceaaea500",
      "output": "0x000000000000000000000000000000000000000000000000000000000000000000000000000000000000000000000000000000000000000000000000000000400000000000000000000000000000000000000000000000000000000000000000",
      "subtraces": 3,
      "traceAddress": [
        0,
        0,
        4,
        0,
        0
      ]
    },
    {
      "type": "STATICCALL",
      "from": "0x235ab23038540e6aa289f3f6d775f76600c5f9c9",
      "to": "0x235ab23038540e6aa289f3f6d775f76600c5f9c9",
      "gas": "0x6b87",
      "gasUsed": "0x59",
      "input": "0x02d05d3f",
      "output": "0x0000000000000000000000003628be9e0befe4406cdfca72e51d40d3902b9a22",
      "subtraces": 0,
      "traceAddress": [
        0,
        0,
        4,
        0,
        0,
        0
      ]
    },
    {
      "type": "STATICCALL",
      "from": "0x235ab23038540e6aa289f3f6d775f76600c5f9c9",
      "to": "0x3628be9e0befe4406cdfca72e51d40d3902b9a22",
      "gas": "0x6a2a",
      "gasUsed": "0x36c",
      "input": "0x0e6d1de9",
      "output": "0x00000000000000000000000001ba3b382efdc10e9acc8a08f3bb26334f553239",
      "subtraces": 1,
      "traceAddress": [
        0,
        0,
        4,
        0,
        0,
        1
      ]
    },
    {
      "type": "DELEGATECALL",
      "from": "0x3628be9e0befe4406cdfca72e51d40d3902b9a22",
      "to": "0xe8572102fa6ae172df00634d5262e56ee283c134",
      "gas": "0x66d1",
      "gasUsed": "0x18e",
      "input": "0x0e6d1de9",
      "output": "0x00000000000000000000000001ba3b382efdc10e9acc8a08f3bb26334f553239",
      "subtraces": 0,
      "traceAddress": [
        0,
        0,
        4,
        0,
        0,
        1,
        0
      ]
    },
    {
      "type": "DELEGATECALL",
      "from": "0x235ab23038540e6aa289f3f6d775f76600c5f9c9",
      "to": "0x01ba3b382efdc10e9acc8a08f3bb26334f553239",
      "gas": "0x65bb",
      "gasUsed": "0x2f71",
      "input": "0x0496ce2a7d971612020101000000000000000000000000000000000000000000000001ed57c2f750cd208906d8df9d3639c3cde53d5d523206a6a181f63b193f9c60242c00000000000000000000000000000000000000000000000000000000000000800000000000000000000000000000000000000000000000000000000000000160000000000000000000000000f88c0381d3a276e90725f46cb9cb3a6ceaaea500c5d2460186f7233c927e7db2dcc703c0e500b653ca82273b7bfad8045d85a470000000000000000000000000000000000000000000000000060b51230fabb000bd063e0002010100000000000000657ee7bb00657ee56300000000e9a15e120c000000000000000000000000000000000000020000000300030003000074fe0000000000000000000000000000000000000000000000000000000000000000c000000000000000000000000000000000000000000000000000000000000000000000000000000000000000000000000000000000000000000000000000000002000000000000000000000000991e5e72d9acc110b1d8d2aa06c26931ee8cf330000000000000000000000000f88c0381d3a276e90725f46cb9cb3a6ceaaea500",
      "output": "0x000000000000000000000000000000000000000000000000000000000000000000000000000000000000000000000000000000000000000000000000000000400000000000000000000000000000000000000000000000000000000000000000",
      "subtraces": 3,
      "traceAddress": [
        0,
        0,
        4,
        0,
        0,
        2
      ]
    },
    {
      "type": "STATICCALL",
      "from": "0x235ab23038540e6aa289f3f6d775f76600c5f9c9",
      "to": "0x38b5249ec6529f19aee7ce2c650cadd407a78ed7",
      "gas": "0x5fcb",
      "gasUsed": "0x385",
      "input": "0x9a0e776b7d971612020101000000000000000000000000000000000000000000000001ed0000000000000000000000009f8cc08fc5293d76a0d8b3b0924742fc36a1301cc5d2460186f7233c927e7db2dcc703c0e500b653ca82273b7bfad8045d85a470000000000000000000000000f88c0381d3a276e90725f46cb9cb3a6ceaaea500",
      "output": "0x000000000000000000000000f88c0381d3a276e90725f46cb9cb3a6ceaaea5000000000000000000000000000000000000000000000000000000000000000000",
      "subtraces": 0,
      "traceAddress": [
        0,
        0,
        4,
        0,
        0,
        2,
        0
      ]
    },
    {
      "type": "STATICCALL",
      "from": "0x235ab23038540e6aa289f3f6d775f76600c5f9c9",
      "to": "0x235ab23038540e6aa289f3f6d775f76600c5f9c9",
      "gas": "0x5a46",
      "gasUsed": "0x59",
      "input": "0x02d05d3f",
      "output": "0x0000000000000000000000003628be9e0befe4406cdfca72e51d40d3902b9a22",
      "subtraces": 0,
      "traceAddress": [
        0,
        0,
        4,
        0,
        0,
        2,
        1
      ]
    },
    {
      "type": "CALL",
      "from": "0x235ab23038540e6aa289f3f6d775f76600c5f9c9",
      "to": "0xf88c0381d3a276e90725f46cb9cb3a6ceaaea500",
      "gas": "0x5280",
      "gasUsed": "0x0",
      "value": "0x60b51230fabb000",
      "input": "0x",
      "output": "0x",
      "subtraces": 0,
      "traceAddress": [
        0,
        0,
        4,
        0,
        0,
        2,
        2
      ]
    },
    {
      "type": "STATICCALL",
      "from": "0x9f8cc08fc5293d76a0d8b3b0924742fc36a1301c",
      "to": "0x235ab23038540e6aa289f3f6d775f76600c5f9c9",
      "gas": "0x10771",
      "gasUsed": "0x2778",
      "input": "0x0496ce2a7d971612020101000000000000000000000000000000000000000000000001ed57c2f750cd208906d8df9d3639c3cde53d5d523206a6a181f63b193f9c60242c00000000000000000000000000000000000000000000000000000000000000800000000000000000000000000000000000000000000000000000000000000220000000000000000000000000254fb98e8943faf0f732477c4de6af7a1dd7fd2dc5d2460186f7233c927e7db2dcc703c0e500b653ca82273b7bfad8045d85a4700000000000000000000000000000000000000000000000000000000000000000bd063e0002010100000000000000657ee7bb00657ee56300000000e9a15e120c000000000000000000000000000000010000000000000000040004000107711100000000000000000000000000000000000000000000000000000000000000c000000000000000000000000000000000000000000000000000000000000000a4fed05b8a0000000000000000000000000000000000000000000000000203c5b65a8e9000000000000000000000000000000000000000000000000000000000000000001200000000000000000000000000000000000000000000000029a2241af62c000000000000000000000000000000000000000000000000000000000000000000120000000000000000000000000000000000000000000000000000000000000012000000000000000000000000000000000000000000000000000000000000000000000000000000000000000000000000000000000000000000000002000000000000000000000000991e5e72d9acc110b1d8d2aa06c26931ee8cf330000000000000000000000000f88c0381d3a276e90725f46cb9cb3a6ceaaea500",
      "output": "0x00000000000000000000000000000000000000000000000000000000000000010000000000000000000000000000000000000000000000000000000000000040000000000000000000000000000000000000000000000000000000000000002000000000000000000000000000000000000000000000000000abec921e2f8555",
      "subtraces": 1,
      "traceAddress": [
        0,
        0,
        5
      ]
    },
    {
      "type": "DELEGATECALL",
      "from": "0x235ab23038540e6aa289f3f6d775f76600c5f9c9",
      "to": "0xb09da8d74d593e946ab1a2eaaeac6dad44992c25",
      "gas": "0x10217",
      "gasUsed": "0x25f7",
      "input": "0x0496ce2a7d971612020101000000000000000000000000000000000000000000000001ed57c2f750cd208906d8df9d3639c3cde53d5d523206a6a181f63b193f9c60242c00000000000000000000000000000000000000000000000000000000000000800000000000000000000000000000000000000000000000000000000000000220000000000000000000000000254fb98e8943faf0f732477c4de6af7a1dd7fd2dc5d2460186f7233c927e7db2dcc703c0e500b653ca82273b7bfad8045d85a4700000000000000000000000000000000000000000000000000000000000000000bd063e0002010100000000000000657ee7bb00657ee56300000000e9a15e120c000000000000000000000000000000010000000000000000040004000107711100000000000000000000000000000000000000000000000000000000000000c000000000000000000000000000000000000000000000000000000000000000a4fed05b8a0000000000000000000000000000000000000000000000000203c5b65a8e9000000000000000000000000000000000000000000000000000000000000000001200000000000000000000000000000000000000000000000029a2241af62c000000000000000000000000000000000000000000000000000000000000000000120000000000000000000000000000000000000000000000000000000000000012000000000000000000000000000000000000000000000000000000000000000000000000000000000000000000000000000000000000000000000002000000000000000000000000991e5e72d9acc110b1d8d2aa06c26931ee8cf330000000000000000000000000f88c0381d3a276e90725f46cb9cb3a6ceaaea500",
      "output": "0x00000000000000000000000000000000000000000000000000000000000000010000000000000000000000000000000000000000000000000000000000000040000000000000000000000000000000000000000000000000000000000000002000000000000000000000000000000000000000000000000000abec921e2f8555",
      "subtraces": 1,
      "traceAddress": [
        0,
        0,
        5,
        0
      ]
    },
    {
      "type": "DELEGATECALL",
      "from": "0x235ab23038540e6aa289f3f6d775f76600c5f9c9",
      "to": "0x72ee41f7faf00d234db1b4dde361e944bef87ead",
      "gas": "0xfc28",
      "gasUsed": "0x23d9",
      "input": "0x0496ce2a7d971612020101000000000000000000000000000000000000000000000001ed57c2f750cd208906d8df9d3639c3cde53d5d523206a6a181f63b193f9c60242c00000000000000000000000000000000000000000000000000000000000000800000000000000000000000000000000000000000000000000000000000000220000000000000000000000000254fb98e8943faf0f732477c4de6af7a1dd7fd2dc5d2460186f7233c927e7db2dcc703c0e500b653ca82273b7bfad8045d85a4700000000000000000000000000000000000000000000000000000000000000000bd063e0002010100000000000000657ee7bb00657ee56300000000e9a15e120c000000000000000000000000000000010000000000000000040004000107711100000000000000000000000000000000000000000000000000000000000000c000000000000000000000000000000000000000000000000000000000000000a4fed05b8a0000000000000000000000000000000000000000000000000203c5b65a8e9000000000000000000000000000000000000000000000000000000000000000001200000000000000000000000000000000000000000000000029a2241af62c000000000000000000000000000000000000000000000000000000000000000000120000000000000000000000000000000000000000000000000000000000000012000000000000000000000000000000000000000000000000000000000000000000000000000000000000000000000000000000000000000000000002000000000000000000000000991e5e72d9acc110b1d8d2aa06c26931ee8cf330000000000000000000000000f88c0381d3a276e90725f46cb9cb3a6ceaaea500",
      "output": "0x00000000000000000000000000000000000000000000000000000000000000010000000000000000000000000000000000000000000000000000000000000040000000000000000000000000000000000000000000000000000000000000002000000000000000000000000000000000000000000000000000abec921e2f8555",
      "subtraces": 3,
      "traceAddress": [
        0,
        0,
        5,
        0,
        0
      ]
    },
    {
      "type": "STATICCALL",
      "from": "0x235ab23038540e6aa289f3f6d775f76600c5f9c9",
      "to": "0x235ab23038540e6aa289f3f6d775f76600c5f9c9",
      "gas": "0xf6f3",
      "gasUsed": "0x59",
      "input": "0x02d05d3f",
      "output": "0x0000000000000000000000003628be9e0befe4406cdfca72e51d40d3902b9a22",
      "subtraces": 0,
      "traceAddress": [
        0,
        0,
        5,
        0,
        0,
        0
      ]
    },
    {
      "type": "STATICCALL",
      "from": "0x235ab23038540e6aa289f3f6d775f76600c5f9c9",
      "to": "0x3628be9e0befe4406cdfca72e51d40d3902b9a22",
      "gas": "0xf597",
      "gasUsed": "0x36c",
      "input": "0x0e6d1de9",
      "output": "0x00000000000000000000000001ba3b382efdc10e9acc8a08f3bb26334f553239",
      "subtraces": 1,
      "traceAddress": [
        0,
        0,
        5,
        0,
        0,
        1
      ]
    },
    {
      "type": "DELEGATECALL",
      "from": "0x3628be9e0befe4406cdfca72e51d40d3902b9a22",
      "to": "0xe8572102fa6ae172df00634d5262e56ee283c134",
      "gas": "0xf010",
      "gasUsed": "0x18e",
      "input": "0x0e6d1de9",
      "output": "0x00000000000000000000000001ba3b382efdc10e9acc8a08f3bb26334f553239",
      "subtraces": 0,
      "traceAddress": [
        0,
        0,
        5,
        0,
        0,
        1,
        0
      ]
    },
    {
      "type": "DELEGATECALL",
      "from": "0x235ab23038540e6aa289f3f6d775f76600c5f9c9",
      "to": "0x01ba3b382efdc10e9acc8a08f3bb26334f553239",
      "gas": "0xf104",
      "gasUsed": "0x1c59",
      "input": "0x0496ce2a7d971612020101000000000000000000000000000000000000000000000001ed57c2f750cd208906d8df9d3639c3cde53d5d523206a6a181f63b193f9c60242c00000000000000000000000000000000000000000000000000000000000000800000000000000000000000000000000000000000000000000000000000000220000000000000000000000000254fb98e8943faf0f732477c4de6af7a1dd7fd2dc5d2460186f7233c927e7db2dcc703c0e500b653ca82273b7bfad8045d85a4700000000000000000000000000000000000000000000000000000000000000000bd063e0002010100000000000000657ee7bb00657ee56300000000e9a15e120c000000000000000000000000000000010000000000000000040004000107711100000000000000000000000000000000000000000000000000000000000000c000000000000000000000000000000000000000000000000000000000000000a4fed05b8a0000000000000000000000000000000000000000000000000203c5b65a8e9000000000000000000000000000000000000000000000000000000000000000001200000000000000000000000000000000000000000000000029a2241af62c000000000000000000000000000000000000000000000000000000000000000000120000000000000000000000000000000000000000000000000000000000000012000000000000000000000000000000000000000000000000000000000000000000000000000000000000000000000000000000000000000000000002000000000000000000000000991e5e72d9acc110b1d8d2aa06c26931ee8cf330000000000000000000000000f88c0381d3a276e90725f46cb9cb3a6ceaaea500",
      "output": "0x00000000000000000000000000000000000000000000000000000000000000010000000000000000000000000000000000000000000000000000000000000040000000000000000000000000000000000000000000000000000000000000002000000000000000000000000000000000000000000000000000abec921e2f8555",
      "subtraces": 3,
      "traceAddress": [
        0,
        0,
        5,
        0,
        0,
        2
      ]
    },
    {
      "type": "STATICCALL",
      "from": "0x235ab23038540e6aa289f3f6d775f76600c5f9c9",
      "to": "0x38b5249ec6529f19aee7ce2c650cadd407a78ed7",
      "gas": "0xe8e7",
      "gasUsed": "0x385",
      "input": "0x9a0e776b7d971612020101000000000000000000000000000000000000000000000001ed0000000000000000000000009f8cc08fc5293d76a0d8b3b0924742fc36a1301cc5d2460186f7233c927e7db2dcc703c0e500b653ca82273b7bfad8045d85a470000000000000000000000000254fb98e8943faf0f732477c4de6af7a1dd7fd2d",
      "output": "0x000000000000000000000000254fb98e8943faf0f732477c4de6af7a1dd7fd2d0000000000000000000000000000000000000000000000000000000000000000",
      "subtraces": 0,
      "traceAddress": [
        0,
        0,
        5,
        0,
        0,
        2,
        0
      ]
    },
    {
      "type": "STATICCALL",
      "from": "0x235ab23038540e6aa289f3f6d775f76600c5f9c9",
      "to": "0x235ab23038540e6aa289f3f6d775f76600c5f9c9",
      "gas": "0xe362",
      "gasUsed": "0x59",
      "input": "0x02d05d3f",
      "output": "0x0000000000000000000000003628be9e0befe4406cdfca72e51d40d3902b9a22",
      "subtraces": 0,
      "traceAddress": [
        0,
        0,
        5,
        0,
        0,
        2,
        1
      ]
    },
    {
      "type": "STATICCALL",
      "from": "0x235ab23038540e6aa289f3f6d775f76600c5f9c9",
      "to": "0x254fb98e8943faf0f732477c4de6af7a1dd7fd2d",
      "gas": "0xd9b6",
      "gasUsed": "0x658",
      "input": "0xfed05b8a0000000000000000000000000000000000000000000000000203c5b65a8e9000000000000000000000000000000000000000000000000000000000000000001200000000000000000000000000000000000000000000000029a2241af62c000000000000000000000000000000000000000000000000000000000000000000120000000000000000000000000000000000000000000000000000000000000012",
      "output": "0x00000000000000000000000000000000000000000000000000abec921e2f8555",
      "subtraces": 0,
      "traceAddress": [
        0,
        0,
        5,
        0,
        0,
        2,
        2
      ]
    },
    {
      "type": "CALL",
      "from": "0x9f8cc08fc5293d76a0d8b3b0924742fc36a1301c",
      "to": "0x235ab23038540e6aa289f3f6d775f76600c5f9c9",
      "gas": "0x1338f",
      "gasUsed": "0x5526",
      "value": "0x0",
      "input": "0x0496ce2a7d971612020101000000000000000000000000000000000000000000000001ed57c2f750cd208906d8df9d3639c3cde53d5d523206a6a181f63b193f9c60242c00000000000000000000000000000000000000000000000000000000000000800000000000000000000000000000000000000000000000000000000000000180000000000000000000000000b4fbf271143f4fbf7b91a5ded31805e42b2208d6c5d2460186f7233c927e7db2dcc703c0e500b653ca82273b7bfad8045d85a47000000000000000000000000000000000000000000000000000abec921e2f8555bd063e0002010100000000000000657ee7bb00657ee56300000000e9a15e120c0000000000000000000000000000000000000000000000000500050001338f0000000000000000000000000000000000000000000000000000000000000000c00000000000000000000000000000000000000000000000000000000000000004d0e30db0000000000000000000000000000000000000000000000000000000000000000000000000000000000000000000000000000000000000000000000002000000000000000000000000991e5e72d9acc110b1d8d2aa06c26931ee8cf330000000000000000000000000f88c0381d3a276e90725f46cb9cb3a6ceaaea500",
      "output": "0x000000000000000000000000000000000000000000000000000000000000000100000000000000000000000000000000000000000000000000000000000000400000000000000000000000000000000000000000000000000000000000000000",
      "subtraces": 1,
      "traceAddress": [
        0,
        0,
        6
      ]
    },
    {
      "type": "DELEGATECALL",
      "from": "0x235ab23038540e6aa289f3f6d775f76600c5f9c9",
      "to": "0xb09da8d74d593e946ab1a2eaaeac6dad44992c25",
      "gas": "0x12da2",
      "gasUsed": "0x53c6",
      "input": "0x0496ce2a7d971612020101000000000000000000000000000000000000000000000001ed57c2f750cd208906d8df9d3639c3cde53d5d523206a6a181f63b193f9c60242c00000000000000000000000000000000000000000000000000000000000000800000000000000000000000000000000000000000000000000000000000000180000000000000000000000000b4fbf271143f4fbf7b91a5ded31805e42b2208d6c5d2460186f7233c927e7db2dcc703c0e500b653ca82273b7bfad8045d85a47000000000000000000000000000000000000000000000000000abec921e2f8555bd063e0002010100000000000000657ee7bb00657ee56300000000e9a15e120c0000000000000000000000000000000000000000000000000500050001338f0000000000000000000000000000000000000000000000000000000000000000c00000000000000000000000000000000000000000000000000000000000000004d0e30db0000000000000000000000000000000000000000000000000000000000000000000000000000000000000000000000000000000000000000000000002000000000000000000000000991e5e72d9acc110b1d8d2aa06c26931ee8cf330000000000000000000000000f88c0381d3a276e90725f46cb9cb3a6ceaaea500",
      "output": "0x000000000000000000000000000000000000000000000000000000000000000100000000000000000000000000000000000000000000000000000000000000400000000000000000000000000000000000000000000000000000000000000000",
      "subtraces": 1,
      "traceAddress": [
        0,
        0,
        6,
        0
      ]
    },
    {
      "type": "DELEGATECALL",
      "from": "0x235ab23038540e6aa289f3f6d775f76600c5f9c9",
      "to": "0x72ee41f7faf00d234db1b4dde361e944bef87ead",
      "gas": "0x12722",
      "gasUsed": "0x51c9",
      "input": "0x0496ce2a7d971612020101000000000000000000000000000000000000000000000001ed57c2f750cd208906d8df9d3639c3cde53d5d523206a6a181f63b193f9c60242c00000000000000000000000000000000000000000000000000000000000000800000000000000000000000000000000000000000000000000000000000000180000000000000000000000000b4fbf271143f4fbf7b91a5ded31805e42b2208d6c5d2460186f7233c927e7db2dcc703c0e500b653ca82273b7bfad8045d85a47000000000000000000000000000000000000000000000000000abec921e2f8555bd063e0002010100000000000000657ee7bb00657ee56300000000e9a15e120c0000000000000000000000000000000000000000000000000500050001338f0000000000000000000000000000000000000000000000000000000000000000c00000000000000000000000000000000000000000000000000000000000000004d0e30db0000000000000000000000000000000000000000000000000000000000000000000000000000000000000000000000000000000000000000000000002000000000000000000000000991e5e72d9acc110b1d8d2aa06c26931ee8cf330000000000000000000000000f88c0381d3a276e90725f46cb9cb3a6ceaaea500",
      "output": "0x000000000000000000000000000000000000000000000000000000000000000100000000000000000000000000000000000000000000000000000000000000400000000000000000000000000000000000000000000000000000000000000000",
      "subtraces": 3,
      "traceAddress": [
        0,
        0,
        6,
        0,
        0
      ]
    },
    {
      "type": "STATICCALL",
      "from": "0x235ab23038540e6aa289f3f6d775f76600c5f9c9",
      "to": "0x235ab23038540e6aa289f3f6d775f76600c5f9c9",
      "gas": "0x12141",
      "gasUsed": "0x59",
      "input": "0x02d05d3f",
      "output": "0x0000000000000000000000003628be9e0befe4406cdfca72e51d40d3902b9a22",
      "subtraces": 0,
      "traceAddress": [
        0,
        0,
        6,
        0,
        0,
        0
      ]
    },
    {
      "type": "STATICCALL",
      "from": "0x235ab23038540e6aa289f3f6d775f76600c5f9c9",
      "to": "0x3628be9e0befe4406cdfca72e51d40d3902b9a22",
      "gas": "0x11fe5",
      "gasUsed": "0x36c",
      "input": "0x0e6d1de9",
      "output": "0x00000000000000000000000001ba3b382efdc10e9acc8a08f3bb26334f553239",
      "subtraces": 1,
      "traceAddress": [
        0,
        0,
        6,
        0,
        0,
        1
      ]
    },
    {
      "type": "DELEGATECALL",
      "from": "0x3628be9e0befe4406cdfca72e51d40d3902b9a22",
      "to": "0xe8572102fa6ae172df00634d5262e56ee283c134",
      "gas": "0x119b5",
      "gasUsed": "0x18e",
      "input": "0x0e6d1de9",
      "output": "0x00000000000000000000000001ba3b382efdc10e9acc8a08f3bb26334f553239",
      "subtraces": 0,
      "traceAddress": [
        0,
        0,
        6,
        0,
        0,
        1,
        0
      ]
    },
    {
      "type": "DELEGATECALL",
      "from": "0x235ab23038540e6aa289f3f6d775f76600c5f9c9",
      "to": "0x01ba3b382efdc10e9acc8a08f3bb26334f553239",
      "gas": "0x11b70",
      "gasUsed": "0x4a6a",
      "input": "0x0496ce2a7d971612020101000000000000000000000000000000000000000000000001ed57c2f750cd208906d8df9d3639c3cde53d5d523206a6a181f63b193f9c60242c00000000000000000000000000000000000000000000000000000000000000800000000000000000000000000000000000000000000000000000000000000180000000000000000000000000b4fbf271143f4fbf7b91a5ded31805e42b2208d6c5d2460186f7233c927e7db2dcc703c0e500b653ca82273b7bfad8045d85a47000000000000000000000000000000000000000000000000000abec921e2f8555bd063e0002010100000000000000657ee7bb00657ee56300000000e9a15e120c0000000000000000000000000000000000000000000000000500050001338f0000000000000000000000000000000000000000000000000000000000000000c00000000000000000000000000000000000000000000000000000000000000004d0e30db0000000000000000000000000000000000000000000000000000000000000000000000000000000000000000000000000000000000000000000000002000000000000000000000000991e5e72d9acc110b1d8d2aa06c26931ee8cf330000000000000000000000000f88c0381d3a276e90725f46cb9cb3a6ceaaea500",
      "output": "0x000000000000000000000000000000000000000000000000000000000000000100000000000000000000000000000000000000000000000000000000000000400000000000000000000000000000000000000000000000000000000000000000",
      "subtraces": 3,
      "traceAddress": [
        0,
        0,
        6,
        0,
        0,
        2
      ]
    },
    {
      "type": "STATICCALL",
      "from": "0x235ab23038540e6aa289f3f6d775f76600c5f9c9",
      "to": "0x38b5249ec6529f19aee7ce2c650cadd407a78ed7",
      "gas": "0x112a9",
      "gasUsed": "0x385",
      "input": "0x9a0e776b7d971612020101000000000000000000000000000000000000000000000001ed0000000000000000000000009f8cc08fc5293d76a0d8b3b0924742fc36a1301cc5d2460186f7233c927e7db2dcc703c0e500b653ca82273b7bfad8045d85a470000000000000000000000000b4fbf271143f4fbf7b91a5ded31805e42b2208d6",
      "output": "0x000000000000000000000000b4fbf271143f4fbf7b91a5ded31805e42b2208d60000000000000000000000000000000000000000000000000000000000000000",
      "subtraces": 0,
      "traceAddress": [
        0,
        0,
        6,
        0,
        0,
        2,
        0
      ]
    },
    {
      "type": "STATICCALL",
      "from": "0x235ab23038540e6aa289f3f6d775f76600c5f9c9",
      "to": "0x235ab23038540e6aa289f3f6d775f76600c5f9c9",
      "gas": "0x10d24",
      "gasUsed": "0x59",
      "input": "0x02d05d3f",
      "output": "0x0000000000000000000000003628be9e0befe4406cdfca72e51d40d3902b9a22",
      "subtraces": 0,
      "traceAddress": [
        0,
        0,
        6,
        0,
        0,
        2,
        1
      ]
    },
    {
      "type": "CALL",
      "from": "0x235ab23038540e6aa289f3f6d775f76600c5f9c9",
      "to": "0xb4fbf271143f4fbf7b91a5ded31805e42b2208d6",
      "gas": "0xea0d",
      "gasUsed": "0x1af6",
      "value": "0xabec921e2f8555",
      "input": "0xd0e30db0",
      "output": "0x",
      "subtraces": 0,
      "traceAddress": [
        0,
        0,
        6,
        0,
        0,
        2,
        2
      ]
    },
    {
      "type": "CALL",
      "from": "0x9f8cc08fc5293d76a0d8b3b0924742fc36a1301c",
      "to": "0x235ab23038540e6aa289f3f6d775f76600c5f9c9",
      "gas": "0x1389e",
      "gasUsed": "0x40ec",
      "value": "0x0",
      "input": "0x0496ce2a7d971612020101000000000000000000000000000000000000000000000001ed57c2f750cd208906d8df9d3639c3cde53d5d523206a6a181f63b193f9c60242c000000000000000000000000000000000000000000000000000000000000008000000000000000000000000000000000000000000000000000000000000001c0000000000000000000000000b4fbf271143f4fbf7b91a5ded31805e42b2208d6c5d2460186f7233c927e7db2dcc703c0e500b653ca82273b7bfad8045d85a4700000000000000000000000000000000000000000000000000000000000000000bd063e0002010100000000000000657ee7bb00657ee56300000000e9a15e120c0000000000000000000000000000000000000600000000000600060001389e0400000000000000000000000000000000000000000000000000000000000000c00000000000000000000000000000000000000000000000000000000000000044a9059cbb000000000000000000000000f88c0381d3a276e90725f46cb9cb3a6ceaaea50000000000000000000000000000000000000000000000000000abec921e2f8555000000000000000000000000000000000000000000000000000000000000000000000000000000000000000000000000000000000000000000000002000000000000000000000000991e5e72d9acc110b1d8d2aa06c26931ee8cf330000000000000000000000000f88c0381d3a276e90725f46cb9cb3a6ceaaea500",
      "output": "0x0000000000000000000000000000000000000000000000000000000000000001000000000000000000000000000000000000000000000000000000000000004000000000000000000000000000000000000000000000000000000000000000200000000000000000000000000000000000000000000000000000000000000001",
      "subtraces": 1,
      "traceAddress": [
        0,
        0,
        7
      ]
    },
    {
      "type": "DELEGATECALL",
      "from": "0x235ab23038540e6aa289f3f6d775f76600c5f9c9",
      "to": "0xb09da8d74d593e946ab1a2eaaeac6dad44992c25",
      "gas": "0x13291",
      "gasUsed": "0x3f7d",
      "input": "0x0496ce2a7d971612020101000000000000000000000000000000000000000000000001ed57c2f750cd208906d8df9d3639c3cde53d5d523206a6a181f63b193f9c60242c000000000000000000000000000000000000000000000000000000000000008000000000000000000000000000000000000000000000000000000000000001c0000000000000000000000000b4fbf271143f4fbf7b91a5ded31805e42b2208d6c5d2460186f7233c927e7db2dcc703c0e500b653ca82273b7bfad8045d85a4700000000000000000000000000000000000000000000000000000000000000000bd063e0002010100000000000000657ee7bb00657ee56300000000e9a15e120c0000000000000000000000000000000000000600000000000600060001389e0400000000000000000000000000000000000000000000000000000000000000c00000000000000000000000000000000000000000000000000000000000000044a9059cbb000000000000000000000000f88c0381d3a276e90725f46cb9cb3a6ceaaea50000000000000000000000000000000000000000000000000000abec921e2f8555000000000000000000000000000000000000000000000000000000000000000000000000000000000000000000000000000000000000000000000002000000000000000000000000991e5e72d9acc110b1d8d2aa06c26931ee8cf330000000000000000000000000f88c0381d3a276e90725f46cb9cb3a6ceaaea500",
      "output": "0x0000000000000000000000000000000000000000000000000000000000000001000000000000000000000000000000000000000000000000000000000000004000000000000000000000000000000000000000000000000000000000000000200000000000000000000000000000000000000000000000000000000000000001",
      "subtraces": 1,
      "traceAddress": [
        0,
        0,
        7,
        0
      ]
    },
    {
      "type": "DELEGATECALL",
      "from": "0x235ab23038540e6aa289f3f6d775f76600c5f9c9",
      "to": "0x72ee41f7faf00d234db1b4dde361e944bef87ead",
      "gas": "0x12bf2",
      "gasUsed": "0x3d71",
      "input": "0x0496ce2a7d971612020101000000000000000000000000000000000000000000000001ed57c2f750cd208906d8df9d3639c3cde53d5d523206a6a181f63b193f9c60242c000000000000000000000000000000000000000000000000000000000000008000000000000000000000000000000000000000000000000000000000000001c0000000000000000000000000b4fbf271143f4fbf7b91a5ded31805e42b2208d6c5d2460186f7233c927e7db2dcc703c0e500b653ca82273b7bfad8045d85a4700000000000000000000000000000000000000000000000000000000000000000bd063e0002010100000000000000657ee7bb00657ee56300000000e9a15e120c0000000000000000000000000000000000000600000000000600060001389e0400000000000000000000000000000000000000000000000000000000000000c00000000000000000000000000000000000000000000000000000000000000044a9059cbb000000000000000000000000f88c0381d3a276e90725f46cb9cb3a6ceaaea50000000000000000000000000000000000000000000000000000abec921e2f8555000000000000000000000000000000000000000000000000000000000000000000000000000000000000000000000000000000000000000000000002000000000000000000000000991e5e72d9acc110b1d8d2aa06c26931ee8cf330000000000000000000000000f88c0381d3a276e90725f46cb9cb3a6ceaaea500",
      "output": "0x0000000000000000000000000000000000000000000000000000000000000001000000000000000000000000000000000000000000000000000000000000004000000000000000000000000000000000000000000000000000000000000000200000000000000000000000000000000000000000000000000000000000000001",
      "subtraces": 3,
      "traceAddress": [
        0,
        0,
        7,
        0,
        0
      ]
    },
    {
      "type": "STATICCALL",
      "from": "0x235ab23038540e6aa289f3f6d775f76600c5f9c9",
      "to": "0x235ab23038540e6aa289f3f6d775f76600c5f9c9",
      "gas": "0x125fe",
      "gasUsed": "0x59",
      "input": "0x02d05d3f",
      "output": "0x0000000000000000000000003628be9e0befe4406cdfca72e51d40d3902b9a22",
      "subtraces": 0,
      "traceAddress": [
        0,
        0,
        7,
        0,
        0,
        0
      ]
    },
    {
      "type": "STATICCALL",
      "from": "0x235ab23038540e6aa289f3f6d775f76600c5f9c9",
      "to": "0x3628be9e0befe4406cdfca72e51d40d3902b9a22",
      "gas": "0x124a1",
      "gasUsed": "0x36c",
      "input": "0x0e6d1de9",
      "output": "0x00000000000000000000000001ba3b382efdc10e9acc8a08f3bb26334f553239",
      "subtraces": 1,
      "traceAddress": [
        0,
        0,
        7,
        0,
        0,
        1
      ]
    },
    {
      "type": "DELEGATECALL",
      "from": "0x3628be9e0befe4406cdfca72e51d40d3902b9a22",
      "to": "0xe8572102fa6ae172df00634d5262e56ee283c134",
      "gas": "0x11e5e",
      "gasUsed": "0x18e",
      "input": "0x0e6d1de9",
      "output": "0x00000000000000000000000001ba3b382efdc10e9acc8a08f3bb26334f553239",
      "subtraces": 0,
      "traceAddress": [
        0,
        0,
        7,
        0,
        0,
        1,
        0
      ]
    },
    {
      "type": "DELEGATECALL",
      "from": "0x235ab23038540e6aa289f3f6d775f76600c5f9c9",
      "to": "0x01ba3b382efdc10e9acc8a08f3bb26334f553239",
      "gas": "0x12021",
      "gasUsed": "0x3603",
      "input": "0x0496ce2a7d971612020101000000000000000000000000000000000000000000000001ed57c2f750cd208906d8df9d3639c3cde53d5d523206a6a181f63b193f9c60242c000000000000000000000000000000000000000000000000000000000000008000000000000000000000000000000000000000000000000000000000000001c0000000000000000000000000b4fbf271143f4fbf7b91a5ded31805e42b2208d6c5d2460186f7233c927e7db2dcc703c0e500b653ca82273b7bfad8045d85a4700000000000000000000000000000000000000000000000000000000000000000bd063e0002010100000000000000657ee7bb00657ee56300000000e9a15e120c0000000000000000000000000000000000000600000000000600060001389e0400000000000000000000000000000000000000000000000000000000000000c00000000000000000000000000000000000000000000000000000000000000044a9059cbb000000000000000000000000f88c0381d3a276e90725f46cb9cb3a6ceaaea50000000000000000000000000000000000000000000000000000abec921e2f8555000000000000000000000000000000000000000000000000000000000000000000000000000000000000000000000000000000000000000000000002000000000000000000000000991e5e72d9acc110b1d8d2aa06c26931ee8cf330000000000000000000000000f88c0381d3a276e90725f46cb9cb3a6ceaaea500",
      "output": "0x0000000000000000000000000000000000000000000000000000000000000001000000000000000000000000000000000000000000000000000000000000004000000000000000000000000000000000000000000000000000000000000000200000000000000000000000000000000000000000000000000000000000000001",
      "subtraces": 3,
      "traceAddress": [
        0,
        0,
        7,
        0,
        0,
        2
      ]
    },
    {
      "type": "STATICCALL",
      "from": "0x235ab23038540e6aa289f3f6d775f76600c5f9c9",
      "to": "0x38b5249ec6529f19aee7ce2c650cadd407a78ed7",
      "gas": "0x11748",
      "gasUsed": "0x385",
      "input": "0x9a0e776b7d971612020101000000000000000000000000000000000000000000000001ed0000000000000000000000009f8cc08fc5293d76a0d8b3b0924742fc36a1301cc5d2460186f7233c927e7db2dcc703c0e500b653ca82273b7bfad8045d85a470000000000000000000000000b4fbf271143f4fbf7b91a5ded31805e42b2208d6",
      "output": "0x000000000000000000000000b4fbf271143f4fbf7b91a5ded31805e42b2208d60000000000000000000000000000000000000000000000000000000000000000",
      "subtraces": 0,
      "traceAddress": [
        0,
        0,
        7,
        0,
        0,
        2,
        0
      ]
    },
    {
      "type": "STATICCALL",
      "from": "0x235ab23038540e6aa289f3f6d775f76600c5f9c9",
      "to": "0x235ab23038540e6aa289f3f6d775f76600c5f9c9",
      "gas": "0x111c2",
      "gasUsed": "0x59",
      "input": "0x02d05d3f",
      "output": "0x0000000000000000000000003628be9e0befe4406cdfca72e51d40d3902b9a22",
      "subtraces": 0,
      "traceAddress": [
        0,
        0,
        7,
        0,
        0,
        2,
        1
      ]
    },
    {
      "type": "CALL",
      "from": "0x235ab23038540e6aa289f3f6d775f76600c5f9c9",
      "to": "0xb4fbf271143f4fbf7b91a5ded31805e42b2208d6",
      "gas": "0x1083f",
      "gasUsed": "0x2023",
      "value": "0x0",
      "input": "0xa9059cbb000000000000000000000000f88c0381d3a276e90725f46cb9cb3a6ceaaea50000000000000000000000000000000000000000000000000000abec921e2f8555",
      "decodedInput": [
        {
          "value": "0xf88c0381d3a276e90725f46cb9cb3a6ceaaea500",
          "type": "address",
          "name": "dst"
        },
        {
          "value": "48392333333333333",
          "type": "uint256",
          "name": "wad"
        }
      ],
      "method": "transfer",
      "output": "0x0000000000000000000000000000000000000000000000000000000000000001",
      "decodedOutput": [
        {
          "value": true,
          "type": "bool",
          "name": ""
        }
      ],
      "subtraces": 0,
      "traceAddress": [
        0,
        0,
        7,
        0,
        0,
        2,
        2
      ]
    },
    {
      "type": "STATICCALL",
      "from": "0x862a8fb429195d735106c06c4e352e305d8c7b31",
      "to": "0x38b5249ec6529f19aee7ce2c650cadd407a78ed7",
      "gas": "0x2fc29",
      "gasUsed": "0x268",
      "input": "0x416a9ef57d97161202010100000000000000000000000000000000000000000000000000",
      "output": "0x7d971612020101000000000000000000000000000000000000000000000001ed",
      "subtraces": 0,
      "traceAddress": [
        1
      ]
    },
    {
      "type": "STATICCALL",
      "from": "0x862a8fb429195d735106c06c4e352e305d8c7b31",
      "to": "0x47fca35c6fab9e90a1ccf2630941ff64866fd3d2",
      "gas": "0x2d60f",
      "gasUsed": "0x4880",
      "input": "0xd0d3bdb2000000000000000000000000000000000000000000000000000000000000000000000000000000000000000000000000000000000000000000000000009c0bd800000000000000000000000000000000000000000000000000000000000000000000000000000000000000000000000000000000000000000000000000092d1d7d971612020101000000000000000000000000000000000000000000000001ed00000000000000000000000000000000000000000000000000000000000000c000000000000000000000000000000000000000000000000000000000000002e0c5d2460186f7233c927e7db2dcc703c0e500b653ca82273b7bfad8045d85a470000000000000000000000000000000000000000000000000000000000000000000000000000000000000000000000000000000000000000000000000e9a15e1200000000000000000000000000000000000000000000000000000000000000800000000000000000000000000000000000000000000000000000000000000009000000000000000000000000235ab23038540e6aa289f3f6d775f76600c5f9c9000000000000000000000000000000000000000000000000000000000000cbde000000000000000000000000235ab23038540e6aa289f3f6d775f76600c5f9c900000000000000000000000000000000000000000000000000000000000075ab000000000000000000000000235ab23038540e6aa289f3f6d775f76600c5f9c900000000000000000000000000000000000000000000000000000000000072d8000000000000000000000000235ab23038540e6aa289f3f6d775f76600c5f9c90000000000000000000000000000000000000000000000000000000000007680000000000000000000000000235ab23038540e6aa289f3f6d775f76600c5f9c90000000000000000000000000000000000000000000000000000000000008c76000000000000000000000000235ab23038540e6aa289f3f6d775f76600c5f9c9000000000000000000000000000000000000000000000000000000000000810a000000000000000000000000000000000000000000000000000000000000000000000000000000000000000000000000000000000000000000000000000000000000000000000000000000000000000000000000000000000000000000000000000000000000000000000000000000000000000000000000000000000000000000000000000000000000000000000000000000000000000000000000000000000000000000000000000000000000000000000000000000000000000000000000",
      "output": "0x00000000000000000000000000000000000000000000000000000000000000600000000000000000000000000000000000000000000000000000000000000000c5d2460186f7233c927e7db2dcc703c0e500b653ca82273b7bfad8045d85a4700000000000000000000000000000000000000000000000000000000000000001000000000000000000000000235ab23038540e6aa289f3f6d775f76600c5f9c90000000000000000000000000000000000000000000000000000000000033861000000000000000000000000000000000000000000000000000000007d65f31900000000000000000000000000000000000000000000000000000000000007d000000000000000000000000000000000000000000000000000000000000000000000000000000000000000000000000000000000000000000000000000000000",
      "subtraces": 1,
      "traceAddress": [
        2
      ]
    },
    {
      "type": "STATICCALL",
      "from": "0x47fca35c6fab9e90a1ccf2630941ff64866fd3d2",
      "to": "0x862a8fb429195d735106c06c4e352e305d8c7b31",
      "gas": "0x2ac44",
      "gasUsed": "0xa08",
      "input": "0x24e12cd4c5d2460186f7233c927e7db2dcc703c0e500b653ca82273b7bfad8045d85a470",
      "output": "0x0000000000000000000000000000000000000000000000000000000000000000",
      "subtraces": 0,
      "traceAddress": [
        2,
        0
      ]
    },
    {
      "type": "STATICCALL",
      "from": "0x862a8fb429195d735106c06c4e352e305d8c7b31",
      "to": "0x235ab23038540e6aa289f3f6d775f76600c5f9c9",
      "gas": "0x286ce",
      "gasUsed": "0xdf9",
      "input": "0x86db93f07d971612020101000000000000000000000000000000000000000000000001ed00000000000000000000000047fca35c6fab9e90a1ccf2630941ff64866fd3d2",
      "output": "0x",
      "subtraces": 1,
      "traceAddress": [
        3
      ]
    },
    {
      "type": "DELEGATECALL",
      "from": "0x235ab23038540e6aa289f3f6d775f76600c5f9c9",
      "to": "0xb09da8d74d593e946ab1a2eaaeac6dad44992c25",
      "gas": "0x27be1",
      "gasUsed": "0xcf0",
      "input": "0x86db93f07d971612020101000000000000000000000000000000000000000000000001ed00000000000000000000000047fca35c6fab9e90a1ccf2630941ff64866fd3d2",
      "output": "0x",
      "subtraces": 1,
      "traceAddress": [
        3,
        0
      ]
    },
    {
      "type": "DELEGATECALL",
      "from": "0x235ab23038540e6aa289f3f6d775f76600c5f9c9",
      "to": "0x72ee41f7faf00d234db1b4dde361e944bef87ead",
      "gas": "0x27075",
      "gasUsed": "0xb4a",
      "input": "0x86db93f07d971612020101000000000000000000000000000000000000000000000001ed00000000000000000000000047fca35c6fab9e90a1ccf2630941ff64866fd3d2",
      "output": "0x",
      "subtraces": 3,
      "traceAddress": [
        3,
        0,
        0
      ]
    },
    {
      "type": "STATICCALL",
      "from": "0x235ab23038540e6aa289f3f6d775f76600c5f9c9",
      "to": "0x235ab23038540e6aa289f3f6d775f76600c5f9c9",
      "gas": "0x2656f",
      "gasUsed": "0x59",
      "input": "0x02d05d3f",
      "output": "0x0000000000000000000000003628be9e0befe4406cdfca72e51d40d3902b9a22",
      "subtraces": 0,
      "traceAddress": [
        3,
        0,
        0,
        0
      ]
    },
    {
      "type": "STATICCALL",
      "from": "0x235ab23038540e6aa289f3f6d775f76600c5f9c9",
      "to": "0x3628be9e0befe4406cdfca72e51d40d3902b9a22",
      "gas": "0x26412",
      "gasUsed": "0x36c",
      "input": "0x0e6d1de9",
      "output": "0x00000000000000000000000001ba3b382efdc10e9acc8a08f3bb26334f553239",
      "subtraces": 1,
      "traceAddress": [
        3,
        0,
        0,
        1
      ]
    },
    {
      "type": "DELEGATECALL",
      "from": "0x3628be9e0befe4406cdfca72e51d40d3902b9a22",
      "to": "0xe8572102fa6ae172df00634d5262e56ee283c134",
      "gas": "0x258d1",
      "gasUsed": "0x18e",
      "input": "0x0e6d1de9",
      "output": "0x00000000000000000000000001ba3b382efdc10e9acc8a08f3bb26334f553239",
      "subtraces": 0,
      "traceAddress": [
        3,
        0,
        0,
        1,
        0
      ]
    },
    {
      "type": "DELEGATECALL",
      "from": "0x235ab23038540e6aa289f3f6d775f76600c5f9c9",
      "to": "0x01ba3b382efdc10e9acc8a08f3bb26334f553239",
      "gas": "0x25fe4",
      "gasUsed": "0x43c",
      "input": "0x86db93f07d971612020101000000000000000000000000000000000000000000000001ed00000000000000000000000047fca35c6fab9e90a1ccf2630941ff64866fd3d2",
      "output": "0x",
      "subtraces": 0,
      "traceAddress": [
        3,
        0,
        0,
        2
      ]
    },
    {
      "type": "STATICCALL",
      "from": "0x862a8fb429195d735106c06c4e352e305d8c7b31",
      "to": "0x47fca35c6fab9e90a1ccf2630941ff64866fd3d2",
      "gas": "0x2308e",
      "gasUsed": "0x416",
      "input": "0xa9859704000000000000000000000000000000000000000000000000000000000000000100000000000000000000000000000000000000000000000000000000000018040000000000000000000000000000000000000000000000000000000000000000",
      "output": "0x0000000000000000000000000000000000000000000000000000000000013ba8",
      "subtraces": 0,
      "traceAddress": [
        4
      ]
    }
  ],
  "assetChanges": [
    {
      "assetInfo": {
        "standard": "ERC20",
        "contractAddress": "0xb4fbf271143f4fbf7b91a5ded31805e42b2208d6"
      },
      "type": "Mint",
      "to": "0x235ab23038540e6aa289f3f6d775f76600c5f9c9",
      "rawAmount": "0xabec921e2f8555"
    },
    {
      "assetInfo": {
        "standard": "ERC20",
        "contractAddress": "0xb4fbf271143f4fbf7b91a5ded31805e42b2208d6"
      },
      "type": "Transfer",
      "from": "0x235ab23038540e6aa289f3f6d775f76600c5f9c9",
      "to": "0xf88c0381d3a276e90725f46cb9cb3a6ceaaea500",
      "rawAmount": "0xabec921e2f8555"
    },
    {
      "assetInfo": {
        "standard": "NativeCurrency",
        "type": "Native",
        "symbol": "eth",
        "name": "Ethereum",
        "logo": "https://assets.coingecko.com/coins/images/279/large/ethereum.png?1696501628",
        "decimals": 18,
        "dollarValue": "2227.3701171875"
      },
      "type": "Transfer",
      "from": "0x235ab23038540e6aa289f3f6d775f76600c5f9c9",
      "to": "0xf88c0381d3a276e90725f46cb9cb3a6ceaaea500",
      "rawAmount": "0x60b51230fabb000",
      "amount": "0.435531",
      "dollarValue": "970.0887345087890625"
    },
    {
      "assetInfo": {
        "standard": "NativeCurrency",
        "type": "Native",
        "symbol": "eth",
        "name": "Ethereum",
        "logo": "https://assets.coingecko.com/coins/images/279/large/ethereum.png?1696501628",
        "decimals": 18,
        "dollarValue": "2227.3701171875"
      },
      "type": "Transfer",
      "from": "0x235ab23038540e6aa289f3f6d775f76600c5f9c9",
      "to": "0xb4fbf271143f4fbf7b91a5ded31805e42b2208d6",
      "rawAmount": "0xabec921e2f8555",
      "amount": "0.048392333333333333",
      "dollarValue": "107.78763716764322843"
    }
  ],
  "balanceChanges": [
    {
      "address": "0x235ab23038540e6aa289f3f6d775f76600c5f9c9",
      "dollarValue": "-1077.876371676432291",
      "transfers": [
        0,
        1,
        2,
        3
      ]
    },
    {
      "address": "0xb4fbf271143f4fbf7b91a5ded31805e42b2208d6",
      "dollarValue": "107.78763716764322843",
      "transfers": [
        3
      ]
    },
    {
      "address": "0xf88c0381d3a276e90725f46cb9cb3a6ceaaea500",
      "dollarValue": "970.0887345087890625",
      "transfers": [
        1,
        2
      ]
    }
  ]
}